:020000040001F9
:10B0000078390020D5B00100EFB00100F1B00100A7
:10B010000000000000000000000000000000000030
:10B02000000000000000000000000000F3B001007C
:10B030000000000000000000F5B00100F7B00100C2
:10B040006DB70100F9B0010005BB010069B901004D
:10B05000A5B90100000000000DB30100ADB2010070
:10B06000BDBA0100D5BA0100EDBA0100F9B0010086
:10B07000F9B00100F9B00100F9B00100F9B0010028
:10B08000F9B0010049B90100F9B00100F9B00100BF
:10B09000F5B90100F9B00100FDB90100F9B00100F6
:10B0A000F9B00100F9B0010000000000000000004C
:10B0B0000000000000000000000000000000000090
:10B0C0000348854600F0B4F800480047F1DB010072
:10B0D000783900200321094802680A4302600848C1
:10B0E00002680A4302600748804707480047FEE7B6
:10B0F000FEE7FEE7FEE7FEE7FEE70000240500406E
:10B10000540500401DBA0100C1B0010030B50B4626
:10B11000014600202022012409E00D46D5409D4231
:10B1200005D31D469540491B2546954040191546B7
:10B13000521E002DF1DC30BDF0B51FB406460020D4
:10B1400082B005464024019100901BE001992246FF
:10B150000F46304600F05BF8049A059B801A99412F
:10B1600010D310461946224600F041F8361A8F4196
:10B170000197224601200021009F00F038F838187E
:10B180004D4100902046641E0028DFDC019B0098A2
:10B190002946324607B0F0BD03460B439B0703D058
:10B1A00009E008C9121F08C0042AFAD203E00B788C
:10B1B0000370401C491C521EF9D27047D2B201E004
:10B1C0000270401C491EFBD270470022F6E710B502
:10B1D00013460A4604461946FFF7F0FF204610BD05
:10B1E000421C0178401C0029FBD1801A704710B521
:10B1F000202A04DB0146203A9140002010BD9140F6
:10B2000020239C1A0346E3401943904010BD10B51B
:10B21000202A04DB0846203AD040002110BD0B460E
:10B22000D340D0402024A21A91400843194610BDB3
:10B23000064C0125064E05E0E36807CC2B430C3C89
:10B2400098471034B442F7D3FFF73EFF08210200BD
:10B250002821020070B58C180578401C6B075B0F25
:10B2600001D10378401C2A1106D10278401C03E06A
:10B2700006780E70401C491C5B1EF9D12B0705D4C3
:10B280000023521E0DD40B70491CFAE70378401CB2
:10B29000CB1A921C03E01D780D70491C5B1C521EDA
:10B2A000F9D5A142D8D3002070BD0000FEB5134CE3
:10B2B0000026E0680125124F002810D000F056FC4F
:10B2C00000280BD00120B86068460670E068019045
:10B2D000217C68460181A57421688847FEBD094824
:10B2E00006600120B8600848066069460D708068F5
:10B2F0008880A57468462168EFE700009830002038
:10B30000007300400071004000750040F0B500245B
:10B31000FF268BB00136012527460694304603F000
:10B320006DFE002807D054484068284203D03046BC
:10B3300003F05CFE2C43361D6D007F1CB6B2042F5B
:10B34000ECD3FF257D35284603F058FE002809D0B0
:10B35000284603F04BFE6807044306AA012100209B
:10B3600003F030FE454D200714D001270026274268
:10B370000CD04348B200111808690969C004C00E16
:10B380008903AA58890F002A00D090477F00761CB5
:10B39000042EECD3002C6DDA00200890401E63E0F0
:10B3A000281940300778B906890E009100214156CE
:10B3B000491C49D009A9009802F018FF002843D081
:10B3C000B8090190009801F0A5FD80002F58019860
:10B3D000002F02D0032802D00DE0032834D10098BA
:10B3E00008ABC20841079446985C490F01228A4085
:10B3F00010436246985400980521090780004018C0
:10B40000072109024018006806A98003800F0290F6
:10B41000009802F0EBFE0028029802D0022802D029
:10B4200012E0032810D10198032808D102980228BD
:10B430001ED00221009803F094FD761CF6B2002F76
:10B4400002D001990098B847641C042CA8D3002EA0
:10B4500010D06A460121002003F0B4FD069900983F
:10B46000884207D00690089800263446099097E74E
:10B470000321DFE70BB0F0BD00630040AC300020DB
:10B480000065004030B587B014221A496846FFF7BE
:10B4900083FE01206946087248721648164A303801
:10B4A00000F03EFE0590002801D000F099FC114804
:10B4B000303800F0F9FD0024684604800F4D2C70F0
:10B4C0000C4800221146303800F0CEFC1128F7D08D
:10B4D00028780028FCD02C70064800220121303842
:10B4E00000F0C2FC1128F7D028780028FCD007B063
:10B4F00030BD0000F81D020045F2010006200020CA
:10B5000070B50546114C0020207064204843FF218F
:10B51000FFF7FCFDC6B2322D0CD0332D09D13246D7
:10B5200001210B4800F0A0FC1128F8D02078002859
:10B53000FCD070BD32460021054800F095FC112872
:10B54000F8D020780028FCD070BD00000620002034
:10B55000C81D020070B5114C114D2146A06009783C
:10B5600000280DD000290AD100226221286800F0AD
:10B57000FDFE002801D000F033FC0120207070BDDA
:10B580000029FCD0074800780028F8D105F0DAF847
:10B59000286800F02FFF0020F0E7000008200020BE
:10B5A000481E0200042000200EB50BA00068009089
:10B5B0000AA0006801900AA0006802900221684673
:10B5C00004F094FD022101A804F090FD022102A8DC
:10B5D00004F08CFD0EBD0000100000001180000082
:10B5E000106100000EB50BA0006800900AA0006872
:10B5F00001900AA0006802900221684604F08EFDC6
:10B60000022101A804F08AFD022102A804F086FDAF
:10B610000EBD000060000000610200006208000032
:10B6200000B524A08BB00068009023A000680190B2
:10B6300022A00068029022A00068039021A0006868
:10B64000049021A00068059020A00068069020A02A
:10B65000006807901FA0006808901FA0006809906C
:10B660000221684604F010FD022101A804F00CFD3F
:10B67000022102A804F008FD022103A804F004FD41
:10B68000022104A804F000FD022105A804F0FCFC3E
:10B69000022106A804F0F8FC022107A804F0F4FC3B
:10B6A000022108A804F0F0FC022109A804F0ECFC37
:10B6B0000BB000BD2A0000002B1000002C00000081
:10B6C0002D0000002E0000000E0000001578000084
:10B6D000171F0000180000002A2100001FB50EA04F
:10B6E000006800900DA0006801900DA00068029015
:10B6F0000CA000680390022102A804F0DDFC0221E6
:10B70000684604F0D9FC022101A804F0D5FC02210E
:10B7100003A804F0D1FC1FBD2380000032500000BC
:10B7200020270000302A00008307FF22DB0E9A400A
:10B730008907090E994000280BDA0007000F083826
:10B74000830808489B001818C36993430B43C361DF
:10B750007047830804489B001B18186890430843EF
:10B760001860704700ED00E000E400E0F8B5FF204D
:10B77000013002F043FD002401250E4E0E4F00283B
:10B7800007D00E4804600120B0607D70002001F0F9
:10B7900095FCFF20053002F031FD002808D0074855
:10B7A000001D04600220B060BD70012001F086FC25
:10B7B000F8BD000000030040FC2F00200001004005
:10B7C00030B585B00D460446142214496846FFF78B
:10B7D000E3FC01206946009408721048104A1C38A6
:10B7E00000F09EFC0D481C3800F05EFC0D4C002063
:10B7F0002070284664214843FF21FFF787FC054657
:10B8000006482A4600211C3800F02EFB1128F7D0EC
:10B8100020780028FCD005B030BD0000E41D0200F7
:10B8200045F2010006200020F0B585B016460F460F
:10B8300004461D4614221E496846FFF7ADFC012050
:10B84000694601970094087248721948194A0838E5
:10B8500000F066FC1648083800F026FC164C00275D
:10B860002770304664214843FF21FFF74FFC06460E
:10B870000F4832460021083800F0F6FA1128F7D0B8
:10B8800020780028FCD02770284664214843FF21F7
:10B89000FFF73CFC054606482A460121083800F01F
:10B8A000E3FA1128F7D020780028FCD005B0F0BDCD
:10B8B000D01D020045F201000620002030B56421B1
:10B8C000484385B0FF21FFF721FC054614221049AB
:10B8D0006846FFF761FC0120694608720C480D4A72
:10B8E000083800F01DFC0A48083800F0DDFB0A4C5F
:10B8F0000020207006482A460021083800F0B4FADB
:10B900001128F7D020780028FCD005B030BD000009
:10B91000181E020089F201000720002010B5FFF771
:10B920004FFF10BD10B5054C0121E37EE27B0220E4
:10B93000FFF77AFFE078FFF7C1FF10BDDC2D002094
:10B9400010B5FFF771FF10BD10B506490020086063
:10B9500048608860C860034940390860486004F066
:10B9600099FF10BD4011014070B5FF210C4809310D
:10B970000A4C00254550214604F0CCFF00280CD18C
:10B98000042002F0ABFCA07EFF2801D003F00AFBEC
:10B99000657625712168201D884770BD2C300020F8
:10B9A0000030004010B50249024801F0B9FF10BD57
:10B9B00070300020004000401FB50B486C460FC897
:10B9C0000FC410216846C170162181701521417085
:10B9D00017210170054A6946054802F0C1FF002899
:10B9E00001D000F0FDF91FBDC8200200950502003E
:10B9F0009420002010B504F0BFFE10BD10B506481D
:10BA00004068002805D08047002801D000F0E8F900
:10BA100010BD01F025FF10BD2021002010B502F05F
:10BA200009F8002805D01F491D484860C8131E4961
:10BA300088611E48018CC9B201290BD1828C120782
:10BA400008D1028D1206120F042A03D1828D12062C
:10BA5000120F0AD0012921D1818C09071ED1018D35
:10BA60000906090F0A2904D007E0114A0121916053
:10BA7000F5E7828D1206120F05D00D290ED1808DAB
:10BA80000006000F0AD10B480168012904D00A49B9
:10BA9000016001680129FCD1C021416110BD000095
:10BAA000DFFF07C000050040006C0040C00F00F041
:10BAB0000006004000EC06407593000010B504221B
:10BAC0000249034801F00CFF10BD00004C3000207B
:10BAD0000080004010B504220249034801F000FF35
:10BAE00010BD0000583000200090004010B5042226
:10BAF0000249034801F0F4FE10BD0000643000204C
:10BB000000A0004010B50249024805F0A2F910BD9E
:10BB1000103000200020004030B47446641E2578A8
:10BB2000641CAB4200D21D46635D5B00E31830BC71
:10BB3000184702E008C8121F08C1002AFAD170474E
:10BB40007047002001E001C1121F002AFBD170479D
:10BB5000202804DA012181400348014201D001205C
:10BB60007047002070470000FC06FFBC70B5144908
:10BB70000020124B0860134908608C681248427C10
:10BB8000C5685600521CAC53D2B24274047CA24227
:10BB900012D2846800226468002C0AD001228460DA
:10BBA0002068486001200860002A00D0186000204A
:10BBB00070BD44688460F3E7012070BD00700040F0
:10BBC000007100400075004098300020F7B584B047
:10BBD000064600251788158020300290407B1446C9
:10BBE000002806D03A462146059800F055FE05008B
:10BBF00009D1B078002823D0059886462088001DFA
:10BC0000B84202D90C2007B0F0BD684679DF0028A1
:10BC1000F9D1218803207246505420881921401CF4
:10BC200080B22080115420887146401C80B2208050
:10BC300041186846008805F02FFB218840182080B5
:10BC4000F078002817D0218803230A46F356C91C30
:10BC50000598B942D6D80221815421880122491C75
:10BC600089B2218042542188491C89B221804354E1
:10BC70002088401C20807068002817D0218800236D
:10BC8000C3560A46C91C0598B942BBD80221815443
:10BC900021880A22491C89B2218042542188491CEA
:10BCA00089B2218043542088401C2080308900289C
:10BCB0000AD0009430460197062202210830059BE5
:10BCC00005F06AFB05009ED1308A00280AD0009456
:10BCD00030460197072203211030059B05F05CFBDD
:10BCE000050090D1308B00280AD00094304601978F
:10BCF000152214211830059B05F04EFB050082D15A
:10BD0000306A002806D03B462246059901F04EFADB
:10BD10000500D8D1706A002806D03B462246059916
:10BD200001F0FCFF0500CED10298007B002807D06F
:10BD30003B4622463046059904F02CFA0500C2D154
:10BD40003078002807D03B4622463046059902F05D
:10BD5000B7F90500B7D1284655E70000174A00217A
:10BD6000535C002B01D0012203E0491C0629F7D3C4
:10BD700000221349012806D002280BD0032810D036
:10BD8000042818D112E04878002803D0002A01D0F6
:10BD9000012070478878002803D0002A01D00220B3
:10BDA0007047C878002801D0032070470879002820
:10BDB00001D004207047002070470000B52000200B
:10BDC000142E0020BFF34F8F04490348C860BFF30F
:10BDD0004F8F00BFFDE700000400FA0500ED00E012
:10BDE0000EB50021029000916A4601910148FFF7CB
:10BDF000E9FF0EBD0140000010B5034800F010F946
:10BE0000014800F04DFA10BDC81D020010B50648EB
:10BE1000006800F0EFFA0448001D00F001F9024844
:10BE2000001D00F03DFA10BD0C1E020070B5054665
:10BE300040680B4E0179715C0124FF290DD0FE2969
:10BE40000CD002F05BFE01466868064B0079820068
:10BE50009A58914202D1FF2131540024204670BDEE
:10BE6000162100205C31002070B5044600680D46A4
:10BE7000008B642180B25043FFF748F982B2294613
:10BE8000204600F001F870BDF8B50D46044617468F
:10BE900000680C212E4623224E43125C3118022AE0
:10BEA00001D00820F8BD4968B94206D1C16900290E
:10BEB0003FD06068007988473BE02046FFF7B6FF37
:10BEC000002802D0606802F026FE61681A4A0979EB
:10BED000FE20505423683A469E197768204629462A
:10BEE000002F02D09E69B7420AD3002A02D09B6974
:10BEF000934202D803F050FA0BE003F087FA08E00F
:10BF0000002A01D0964202D803F00AFB01E003F0B8
:10BF10008DFB2068C06900280BD06168064A09794A
:10BF200002204900D21C891848550221606802F09D
:10BF30001BFE0020F8BD000016210020FFB581B0D7
:10BF400006460768029D0C2045432320C05DEC197E
:10BF5000002802D0082005B0F0BD002060600498E1
:10BF6000A0722C4800680090284631680A30085CAE
:10BF7000002808D0002069464870039802F0B6FAFD
:10BF8000002816D101E00120F5E703987851012738
:10BF900003983D46854004991F48002901D0C5609B
:10BFA00000E0856000256019083002F055FB00288C
:10BFB00001D00420CFE76D1CEDB2022DF3D3207A1F
:10BFC00002F09EFB607A02F09BFB206802F0DAFA36
:10BFD00005467068029902F0B7FD237A01462A46A9
:10BFE000184602F06DFB206802F0CCFA05460221EB
:10BFF000706802F0A9FD0146607A2A4602F060FBF3
:10C00000E7727168054A0979002049008A18029987
:10C010005054A0E7FC200200000500501921002028
:10C02000F8B506460768406802F0B0FD0221706866
:10C0300002F091FD002438192030007802F060FBF6
:10C04000641CE4B2022CF6D3002420460C214843A1
:10C05000C519E97A002912D031680A30085C002835
:10C060001AD02978012088400E49C860286802F05B
:10C0700093FA287A02F044FB687A02F041FB641CD0
:10C08000E4B2022CE1D370680021006803F08CF860
:10C0900001202037F870F8BD28780121814001483F
:10C0A0008160E3E700050050F8B507680546002405
:10C0B0006A68204612790C2148435300174AC61972
:10C0C00000219A181155F17A00290DD029680A30FB
:10C0D000085C002820D00021306802F085FA306822
:10C0E00002F06AFA00207060641C022CE0D36968D8
:10C0F0000A4AFF200979D21E50546868012100685D
:10C1000003F052F8686802F006FD686802F04AFD24
:10C1100002202037F870F8BD0121DDE71921002049
:10C12000F7B588B00E00054609D02C6820462030AF
:10C130000690C078002804D008200BB0F0BD0B207A
:10C14000FBE702F001FC002803D0852801D0042081
:10C15000F3E702F0C3F9002805D102F091F90028B5
:10C1600001D00320E9E70698FF210170069841708D
:10C1700006988170002007460C2141430B19DF729D
:10C18000FF221A725A720022D243401CC0B262507F
:10C190000228F1D32046223002F062FB002806D1AB
:10C1A0000027E019203002F057FA002803D0284673
:10C1B00003F07CF8CBE77F1CFFB2022FF1D30027FE
:10C1C000B8003258501C12D0F019037A394628466C
:10C1D000FFF7B4FE0490002804D0284603F066F868
:10C1E0000498AAE7002239462846FFF74DFE7F1C37
:10C1F000FFB2022FE4D300200922244B316901E071
:10C200004908401C994201D99042F9D3204A51680B
:10C210009268029201916946087168681D4A007926
:10C22000029001A9686802F0E3FC070004D02846E8
:10C2300003F03CF8384680E768680522006812027F
:10C240008018316900690E01C640A661686802F075
:10C2500062FC01270097042332460221686802F03D
:10C26000AFFC0221686802F076FC0A98E061686819
:10C2700009490079094A80000D506968FF20097951
:10C2800050540698C770002057E70000FF0F0000C9
:10C29000FC20020041F3010068310020162100203B
:10C2A00070B5046805462034E078022802D00028E2
:10C2B00009D002E02846FFF7B3FE284602F0F6FF59
:10C2C0000020E07070BD082070BD0000094B5B6865
:10C2D000002B07D0002A07D0002805D00068037C77
:10C2E000002B03D00820704707207047417442613B
:10C2F00000207047F8200020FFB507469007002572
:10C3000081B01E461446002825D1002C23D003F00E
:10C31000CBFD3046114EF060304610300570457050
:10C320000299817044607560357001240C48757005
:10C330002405046003211420FFF7F6F9094804607E
:10C34000094CA76003211120FFF7EEF96068B06087
:10C35000002005B0F0BD0720FBE70000E82000202A
:10C3600080E200E000E100E000150140FEB51F4B57
:10C370005B68002B30D000282ED0052901D2072081
:10C38000FEBD4369002B27D0437C012B26D000271C
:10C39000029104460025694616460D70684600F075
:10C3A0003DF801A804F0E2FF002819D00121017036
:10C3B0000F49446049688160029907614661C16024
:10C3C00068460A49007948706846007800F044F8E9
:10C3D00004F014FA2846FEBD0820FEBD0F46D7E73C
:10C3E00068460425007800F037F8F3E7F8200020CD
:10C3F0000015014010B50849496800290AD00028F5
:10C4000008D04169002905D000210174022104F0FF
:10C410001DFA10BD082010BDF820002030B5EFF344
:10C42000108172B6094A54680123002C04D00370AD
:10C43000002900D162B630BD5360054B1D68054C24
:10C44000254015601C6000220270F1E70C210020DD
:10C4500080E100E0FC06FFBC08494A68002A0CD0D5
:10C4600000280AD1EFF3108072B60A68044B1A60F4
:10C4700000224A60002800D162B670470C210020DB
:10C4800000E100E0800B01D00020704701207047E0
:10C49000F0B50C4693B01F216A461180072600278D
:10C4A0009180002809D0C17849070DD502A9FFF76E
:10C4B0008DFB002809D102AD01E000251780002C7A
:10C4C0000ED0E078002802D0304613B0F0BD01AAAB
:10C4D0000AA92046FFF77AFB0028F6D10AAA02E053
:10C4E00068460022878068468088C3B26846008814
:10C4F000C1B2284672DFE8E7FFB581B01E460A9F49
:10C500001346040047D0002B45D0504D0120287021
:10C510000020E870202219464D48FEF73DFE00201D
:10C520006F61C0432E612881284607211830FEF72D
:10C530004CFE47483C212030FEF747FE4448217816
:10C5400020300170A1788170E178C170617841700C
:10C550003F4A656923695563114613632031E368D7
:10C56000A268CB608A603A49E369A269CB638A63B7
:10C57000616A00291AD001463C31024648324162C4
:10C580008A60636A1B880B80616A436A8988998024
:10C590000021436A07E00E2005B0F0BD656AAD6872
:10C5A0006D5C5554491C9D888D42F7D8A16A0029BD
:10C5B0001CD0274A943211460C398A608162A36AE2
:10C5C0009B888B80A16A836A098819800021836A0D
:10C5D00004E0A56AAD686D5C5554491C9D888D4288
:10C5E000F7D82C210A5D1A4940310A73216A0029C3
:10C5F00009D016490A310162226A52884A80216AAA
:10C60000026A098811806168002900D04160104ADF
:10C610000E490020B3322031C3001B1A85009B183D
:10C620000C68401C63510828F6DB094A0020EB32F5
:10C63000030185009B188C68401C63510828F7DBB8
:10C64000034802992030FFF723FFA5E79C20002034
:10C65000142E002010B50188134C102915D0112973
:10C6600019D01B2910D1007A00280DD1E0780521BE
:10C67000401CFEF74BFD084600F018F8002803D0D8
:10C680006169002900D0884710BD817D0129FBD157
:10C690008088208110BD00216171808821898842B5
:10C6A000F8D10120E8E700009C200020F1B53F4CC4
:10C6B00088B0207800280AD00898E07006A800F01A
:10C6C000E1FE06980125002804D065706AE0082084
:10C6D00009B0F0BD3548002707211830FEF775FD79
:10C6E000334E7078002802D0E078012807D0B07867
:10C6F00000280CD0E078012801D0022807D1216958
:10C70000002903D025710820884700E02771089888
:10C71000FFF724FBE0702169002909D0032801D02C
:10C72000042805D13078002802D06079002811D083
:10C73000A77118216846FEF748FD68460770077222
:10C74000E1781A480B001830FFF7E6F9052E080FBC
:10C75000191D2000A57107208847EAE7A570019000
:10C76000684605704782078213E00221A17001909C
:10C7700068460570B18941823189018209E06846C5
:10C7800003F050FD02E0684603F078FDE0780028F1
:10C7900003D0684673DF00289AD12169002901D0AF
:10C7A000A0788847002093E7A770F6E79C20002038
:10C7B000142E002070B5054601461C220E48FEF7D7
:10C7C000EBFC0E4C002626702968002906D00822B2
:10C7D000201DFEF7E1FC201D7ADF02E00748001D66
:10C7E0007BDF002807D1401E60806670044A00216C
:10C7F0000448FFF76BFD70BDE02F0020CC20002027
:10C8000009130200D8200200F8B5214C0146028825
:10C8100000261E48E589102A13D01E4F112A1FD06A
:10C82000122A2BD0502A1AD1881DC988A94216D1A4
:10C830004189022913D10C3000F0FCF800280CD1FA
:10C8400012E08A8804464280104808220C301831D1
:10C85000FEF7A2FC6670002D01D100F0EFFCF8BDE0
:10C860000021C943418046703868FFF7C3FD0028A6
:10C87000F5D0A1690029F2D08847F8BD0348082205
:10C880000C300831FEF788FCE7E70000CC200020E0
:10C89000E02F0020D82002007CB5054608880C4611
:10C8A0000930904201D90C207CBD684671DF002818
:10C8B000FAD121880820685420881B21401C80B2AE
:10C8C00020802954208800A9401C80B22080401973
:10C8D00006220131FEF760FC20886946801D80B287
:10C8E00020800978002900D0012129542088401C8B
:10C8F000208000207CBD000010B50446FFF784FFB7
:10C900002146054800F03EF8204602F0B5FB2046DF
:10C91000FFF7A0FE10BD00009822002030B5184B94
:10C920000D4604000FCB85B003936B4607C324D09C
:10C93000002D22D00020C043A0822868A0610020E2
:10C94000A0752146684663DF002814D12178684627
:10C95000817401210182A21C04A90120A0DF00280A
:10C9600009D12946204603F0F4FA002803D12946CC
:10C97000204604F022FA05B030BD0E20FBE700008F
:10C98000DC20020010B500281BD0002919D00A882D
:10C99000102A17D0112A17D0502A12D104468A1D06
:10C9A000C888238A1231984202D15389022B0FD0B2
:10C9B000A388984205D1A369002B02D05289204652
:10C9C000984710BD898801E00021C943818210BDCC
:10C9D000084600F02FF8002800D00120A07510BDF7
:10C9E00007B584B000280DD0828A114B9A420BD033
:10C9F000827D002A08D06A46128B142A06D90720A5
:10CA000007B000BD0E20FBE70820F9E700220092E6
:10CA100001920292039282896B461A80039106A9C1
:10CA2000029101219970808A6946A6DFE8E700003B
:10CA3000FFFF00004178027808021043C007C00FD2
:10CA40007047000000B5174887B0006805900023C4
:10CA50004822154905A803F061FD002801D0FFF721
:10CA6000BFF96A460121002003F040FD002801D0F3
:10CA7000FFF7B6F9684603F02FFD002801D0FFF755
:10CA8000AFF90A4803F01EFD002801D0FFF7A8F90E
:10CA9000074803F075FD002801D0FFF7A1F907B0A2
:10CAA00000BD0000F015020048210020F9C8010077
:10CAB0007107020008B500200246009007480649A9
:10CAC0000068FFF753FC0090002801D0FFF788F9B9
:10CAD00003490120087008BDD7030000B4200200FC
:10CAE0000020002038B50024064800940068FFF7B5
:10CAF00081FC0090002801D0FFF772F90248047011
:10CB000038BD0000B42002000020002010B5094C00
:10CB1000607800280CD008480078002801D0052251
:10CB200000E00E2205490648FFF75AFF002060701A
:10CB300010BD00005020002002200020DB23002038
:10CB400098220020F0B587B000262D4F05460096AC
:10CB500038780C46002815D02A480068FFF74AFCB0
:10CB60002848001DFFF75CFA032001F015FD254859
:10CB7000001DFFF795FB0590032002F0DEF9224926
:10CB80000820C860002C11D0FF23610CE003F533AE
:10CB90000022C01851415A000023FEF7CDFA014689
:10CBA000184800220068FFF7E1FB05902846174966
:10CBB0003238884222D8164C26701249142220316D
:10CBC0006846FEF7E9FA04950125684605720D48A6
:10CBD000104A6946001DFFF7A3FA05900948001D99
:10CBE000FFF762FA074832220021001DFFF73CF9E7
:10CBF0001128F7D020780028FCD03D7007B0F0BD98
:10CC0000052000200C1E0200000500501EC300007D
:10CC10000720002089F2010010B564210E48FFF7BB
:10CC200091FF642001F026FBEF206421C000FFF794
:10CC300089FF642001F01EFB64210848FFF782FF92
:10CC4000642001F017FB64210548FFF77BFF642097
:10CC500001F010FB10BD0000DF0B0000A706000074
:10CC60004705000010B564210E48FFF76BFF6420F4
:10CC700001F000FBFD206421C000FFF763FF64208A
:10CC800001F0F8FA64210848FFF75CFF642001F026
:10CC9000F1FA64210548FFF755FF642001F0EAFA34
:10CCA00010BD0000A6060000F7090000E80E000015
:10CCB000F0B591B055200690FF202D300021049052
:10CCC0006E4D19206C42019402940B9005910895C9
:10CCD000079508466A4A1154401C80B20628F9D3C9
:10CCE000104600F0D7F9002600F056F9314606222A
:10CCF0005143644A00208F180F9143006049401C43
:10CD000013315A18517892780902114380B2F952BE
:10CD10000328F2D3322001F079FA0B990498FEF738
:10CD2000F5F901463046FEF7F1F9002909D10598D9
:10CD30000121084305900699FEF70CFC0598400078
:10CD4000059050480F99405EA84200DA0546A0427F
:10CD500000DD04460220385E0899884200DA089017
:10CD60000299884200DD02900420385E07998842CB
:10CD700000DA07900199884200DD0190601B643061
:10CD8000C8282CD908990298401A6430C82826D996
:10CD900007990198401A6430C82820D9049840089F
:10CDA000B0421CD2364804210C3841706119CA0FB8
:10CDB000511849100181089A02998918CA0F51180F
:10CDC00049104181079A01998918CA0F51184910D1
:10CDD000C180817801292BD0022946D117E0761C29
:10CDE0000498B6B2864200D27EE7254808210C3866
:10CDF000417025480699FEF7ADFB7D20C00001F08B
:10CE000005FA00200699FEF7A5FB11B0F0BD0189D7
:10CE10000A0A1B494A7002890A704289120ACA70BA
:10CE200042898A70C288120A4A71C08808711CE05F
:10CE3000018949000181418949004181C188490036
:10CE4000C18001890A0A0E490A700389FE22134033
:10CE50004B7043891B0A8B7043891340CB70C38886
:10CE60001B0A0B71C08810404871054800F012F988
:10CE7000034804F023FB05480699BCE7FD7F00004A
:10CE800034200020802600205111150100A222002C
:10CE900010B50B46012806D0022803D111461846CA
:10CEA00002F0D6F910BD1146184602F0B1F910BDD6
:10CEB0000022D243830004490428CA5002D3081830
:10CEC0002030027770470000AC300020F0B500251C
:10CED000ED43002A02D00023042601E004230826A3
:10CEE0000B4C04E09F00E7597F1C04D05B1CB3424D
:10CEF000F8D32846F0BD26185DB2203635709E0066
:10CF0000A151002AF5D1E11820310877F1E700009E
:10CF1000AC30002002490918202008567047000054
:10CF2000AC30002010B502F00FFF012801D002281C
:10CF3000F9D110BD00B50022104600F035FB0349C1
:10CF4000884200D10122104600BD000055555555BC
:10CF5000002807D00449814204D80449814201D9FC
:10CF60000120704700207047382100204821002010
:10CF700070B5084C0025A078002803D003F056FBBC
:10CF8000A57070BDE0780028FBD003F0A9FBE57028
:10CF900070BD0000E81F002010B506488078012809
:10CFA00004D0022801D102F081FD10BD02F034FD51
:10CFB00010BD00002820002010B50B4C607900281F
:10CFC00010D1207900280DD0022802D0032805D1E5
:10CFD00002E0FFF721FE01E0FFF744FE04F084F9D0
:10CFE0000020207110BD0000E81F002010B57D203A
:10CFF000000101F025F90F490D2003F0B7FC642072
:10D0000001F01EF902F0EAFC0B48C1780B48213907
:10D01000DE2908D20A4942220A704A7000210170B2
:10D0200000F054FB03E00121017001F01BF802F055
:10D0300035FC10BD61200020DB230020ED1F002007
:10D04000EE1F002010B50F490D2003F08FFC642067
:10D0500001F0F6F802F0C2FC0B48C1780B48213908
:10D06000DE2908D20A4942220A704A700021017062
:10D0700000F02CFB03E00121017000F0F3FF02F04F
:10D080000DFC10BD6E200020DB230020ED1F0020D2
:10D09000EE1F002010B508498978012906D0022921
:10D0A00003D104F079FA02F01FFE10BD04F034FA47
:10D0B00002F0EAFD10BD00002820002070B5084CE9
:10D0C000050009D010342168002907D008682060C5
:10D0D000496828468847F6E70834F4E770BD000041
:10D0E000FC2F0020F8B52348416800293ED00E6887
:10D0F00021494C6887688078E11B0D022D0AED1CE0
:10D10000002814D101201D4A000450601B4A403AF7
:10D1100050601B49400008601A4908601A49012004
:10D1200008602F2001F00AF9124901208870B542E9
:10D1300000D23546E81900020F4B000A4033186050
:10D140000D4A5168001B091B0902090A0002000A66
:10D15000C91C814209D9506818602F2001F0EEF8EF
:10D1600001200749400480390860F8BD02F09CFEA8
:10D17000F8BD0000E82000200015014040130140E8
:10D1800080E200E000E100E0001001401CB506492B
:10D190008868C96801910090002069460870684657
:10D1A00000F0DEFF1CBD0000B8200200F8B5064606
:10D1B000108814468446801D0D46984201D90C20E3
:10D1C000F8BD32880720062AFAD31927FF01184B29
:10D1D000BA4201D99A42F3D171880629F0D3B942F3
:10D1E00001D99942ECD19A4203D0994201D08A42A6
:10D1F000E6D805216046295420881221401C80B2BF
:10D20000208029542088401C80B220804119308819
:10D2100004F042F82188401880B2208041197088BB
:10D2200004F03AF82188401820800020F8BD000062
:10D23000FFFF000010B5FEF7D3FD10BDF8B516488E
:10D2400000F0EAFB144D00260C3D144C002807D0DA
:10D25000616900291CD001206A461070684616E0FA
:10D260002878002805D06169002911D06846067029
:10D270000DE0687800280DD0A168094800220068F8
:10D28000FFF774F8002803D0A169002900D088476F
:10D290002E70F8BD6168F0E7D8200020E02F002054
:10D2A000D8200200092801D8303000E03730C0B261
:10D2B00070470000024948784042487070470000BB
:10D2C0004020002010B50D4B00204100CA185178B5
:10D2D00009020CB2917821434C000919CC0F611856
:10D2E000491009B2012801D0494209B20C0A401C78
:10D2F0005470C0B291700328E7D310BD47200020BE
:10D3000010B50E4900230A784C78A24212D0521C64
:10D31000D2B20A70022A00D10B700A78074B920031
:10D3200018339A580260886810180002000A886052
:10D33000012010BD0360002010BD0000E820002087
:10D34000014880787047000028200020F8B5064684
:10D350001C481F46007815460C46C0070AD03046C8
:10D36000FFF7F6FD002807D0002C07D0A00507D056
:10D370000620F8BD0120F8BD0220F8BD0320F8BD4D
:10D380003068A04204D8A80271680019884201D907
:10D390000520F8BD002D10D0684602F0C9F900281C
:10D3A0000DD000980221C0C00170A101090C81803C
:10D3B000058102F00FFA0020F8BD0420F8BD072017
:10D3C000F8BD000014210020002902D101490020ED
:10D3D000087070477C200020F0B52648264C001BC2
:10D3E0000309264819464069421C03D10120000761
:10D3F00040698002224A12789646D2070CD000205B
:10D40000F0BD1D4C15012C192568002D03D0646852
:10D41000002C00D0491E521C9A42F2D3002420E076
:10D42000E2B2002594462A460FE0134E1701BE19BA
:10D430003768002F02D07768002F05D1767BAE4287
:10D4400002D93546D6B2B446521C9A42EDD3624652
:10D450001501094AAA185060157BAD02401B641CD7
:10D4600010608C42DCD306487146012211430170E2
:10D47000C5E70000482100203821002000100010DE
:10D4800014210020002804D00349496E01600020C7
:10D490007047032070470000F4300020F8B50746BD
:10D4A0001E481E46007815460C46C0070ED038466A
:10D4B000FFF74EFD00280BD0002D0BD0002C09D01B
:10D4C00028462043800707D00620F8BD0120F8BD7C
:10D4D0000220F8BD0320F8BD3868A04204D8B1008E
:10D4E00078680919884201D20520F8BD002E11D0B4
:10D4F000684602F01DF900280ED0009806990760D2
:10D50000416001210172C5600461868202F062F906
:10D510000020F8BD0420F8BD0720F8BD142100202C
:10D5200070B5174B0446186E182148431549C018AA
:10D530000A78950715D5022C02D0032C1CD102E0E5
:10D5400001F008FE18E04A78521CD2B24A70032A51
:10D5500012D900224A70082102F0F8FD02F0D2F838
:10D560000AE0500708D5FB2002400A70586E0028D8
:10D5700002D0022002430A7002F0F6F870BD0000EB
:10D58000F43000201421002010B505490120087056
:10D590000448002301220168FFF7D8FE10BD0000F7
:10D5A0007C200020382100200349800009680958A8
:10D5B0000248416040687047382100207C200020EC
:10D5C00038B500236A461370074C01222270074ABF
:10D5D0000093126889005118024601230348FFF79F
:10D5E0005DFF6A46107038BD7C2000203821002085
:10D5F0000EB502F013FF6946112008720E48FDF7C0
:10D60000EFFD82B20C4902A87CDF002801D0FEF7B2
:10D61000E7FB002000901022694601900A803C221E
:10D620004A808880FF209130C88068467ADF0028D1
:10D6300001D0FEF7D5FB0EBDB4220020FEB501A837
:10D6400071DF6846C0790007000B0090684680795A
:10D650000099000208430090684640790099084309
:10D6600000900107090FC0B247181148009B009AAB
:10D67000C45D10489204920E047054180E4A9B0226
:10D68000155D45701B0E0D4D5E18A95D8170641C03
:10D6900002F02CFC002809D00548C15D0548017046
:10D6A0000549095D4170A95D8170F1E7FEBD00008B
:10D6B000F4150200FC1F0020F4170200F419020008
:10D6C0000149800008587047901E020010B502F012
:10D6D000BDFBFDF7D7FE10BDFEB500242646114D5B
:10D6E000032701E0092C0BDA285D012200231146F3
:10D6F0000097019601F0D2FB285D01F04BFC0AE097
:10D70000285D0122009600231146019601F0C6FB18
:10D71000285D01F037FC641C0C2CE3DB00F020F8E2
:10D72000FEBD0000501E020008B500200090054A12
:10D7300001210548FEF7CAFD0090002801D0FEF740
:10D740004FFB08BD0DCB0100B420020010B5002135
:10D75000112001F0E8FB00211A2001F0E4FB10BDCC
:10D7600030B5074B002007491C4619341D5C4200A8
:10D770008D54255C5218401C55701928F6DB30BDBD
:10D780005C1E02002826002010B5FFF7A5FF0A4AFC
:10D7900001210A48FEF79AFD002801D0FEF720FB80
:10D7A0000648074A0121001DFEF790FD002801D020
:10D7B000FEF716FB10BD0000C9DD0100481E020087
:10D7C00085DD010010B5FFF7C1FF03F03DF9FFF75C
:10D7D000A9FB0A490128887008D0022805D100F069
:10D7E00015F8FDF77BFFFDF7FDFE10BD00F008F812
:10D7F000FDF7DAFEFDF714FF10BD00002820002021
:10D8000010B502F04FFE02F041FE10BD10B502F05F
:10D8100053FE02F041FE10BD044A00200146CA3109
:10D820001154401CC0B21228F8D37047C8220020FF
:10D8300008B5032001F081FB06490820C860064AAC
:10D8400000210648FEF742FD0090002801D0FEF7B7
:10D85000C7FA08BD0005005005DE01000C1E0200DD
:10D86000F8B51E4C2078002836D0E0680026002845
:10D870000CD00025607800282ED1684652DF05289C
:10D8800006D0002806D0FEF7ABFA0BE00125F1E741
:10D89000012607E0009800F0BDFD2169002901D0B4
:10D8A00000988847002D13D16078002814D1608833
:10D8B00069460880A06861DF052804D0002804D0EC
:10D8C000FEF78EFA04E0012502E0E168A0688847CF
:10D8D000002ECFD0002DE5D0F8BD00002021002083
:10D8E000F7B50025164604462F4616E0A80001218C
:10D8F0000904A940FF3041302258002A0BD00322EE
:10D900001202A21852680A4205D02750019A0199C2
:10D910001268496890476D1CEDB2B542E6D3FEBD72
:10D920007FB50C460D46203506466978287801916A
:10D93000009022462632D11E3046E36903F015F9E5
:10D94000002819D1E87800281DD1207B022801D0B9
:10D95000032818D12269E169914214D16269E26118
:10D96000E37B2B70217E8906C90F6970032804D0E0
:10D970003146204603F092F87FBD009131462046A3
:10D9800003F078F97FBD20460C3007C801AB07C310
:10D99000E878002100280ED00920C0013218506C10
:10D9A0005064820701D5012002E0400705D502201E
:10D9B0006A46107001E0684601702971207E4007B8
:10D9C000E0D422686846616890477FBD01218140AC
:10D9D00003484068014201D0012070470020704791
:10D9E000E02000200121814003484078014201D01D
:10D9F0000120704700207047E0200020014610B54C
:10DA000001208840FEF73EFD10BD012181408807BE
:10DA100000D00120704700004188054802889142EB
:10DA200004D34088814201D801207047002070470C
:10DA3000D02000201048018CC9B2012917D1818C57
:10DA4000090714D1018D09060A0F03D1828D120630
:10DA5000120F0ED0090F012903D1828D1206120F69
:10DA600007D0032903D1808D0006000F01D00020CC
:10DA70007047012070470000C00F00F00121814075
:10DA8000880400D001207047F0B5284C2146103999
:10DA900048688B68227886469C46CF78667836E060
:10DAA000182353436168521CC918A378D2B2934219
:10DAB00000D100220B78022B02D0032B27D123E0C8
:10DAC00003464D68194603E0A94204D00B46C969D4
:10DAD00000291CD0F8E7002919D08B4208D1C06971
:10DAE000002805D1124F0125BD600025AC46012755
:10DAF0000D68C969D961002909D00B685B190B60F1
:10DB000005E00174C06900E000210028F9D19642C7
:10DB1000C6D10649624610398A604860CF707045A8
:10DB200001D00120F0BD0020F0BD0000F820002051
:10DB300000100140F8B52C4E044670680025009096
:10DB400041E0002C02D02046E46920E0264818235A
:10DB50001030017842684B43491CC9B2D218017099
:10DB60008378994200D105701178506801292CD131
:10DB7000017C002929D191684160D16881601169D7
:10DB8000C16051698161F178002900D04560436826
:10DB9000B268164F991A0902090AB94202D282687C
:10DBA000891806E0D11A09028268090A8A4202D954
:10DBB000511A016000E00560456001218560017433
:10DBC000C56102F023FE002CBBD10748103001785C
:10DBD00040788142BAD171680098814201D0012019
:10DBE000F8BD0020F8BD0000E8200020FFFF7F0006
:10DBF0004349A8B0414808610023424A0B21184616
:10DC0000FEF77AFB002801D0FEF7EAF8FFF710FED6
:10DC1000FFF702FEFFF7B8FDFFF786FDFFF7D2FD25
:10DC2000FDF7CAFEFDF72EFCFFF7E0F9FEF70AFF4D
:10DC3000FFF7DEFC34480090002469463348FEF7C5
:10DC40006DFE002801D0FEF7CBF83C2101A8FDF7BE
:10DC5000BCFA02216846017184710621C1713C2120
:10DC600010A8FDF7B2FA012510A80582244820214A
:10DC70000C3015901FA8FDF7A8FA18A8C57740200A
:10DC8000009423902494224B1FAA10A901A8FEF708
:10DC900033FC002801D0FEF7A3F81C216846FDF7ED
:10DCA00094FA0520C00301900F2000040290009414
:10DCB000032168460173C481047416480590164810
:10DCC00006906846FEF776FD002801D0FEF788F83A
:10DCD000FFF7B4FC02F0C8FC02F0A8FC0320FEF73A
:10DCE000E5FC0090002801D0FEF77AF803F046F931
:10DCF000FFF73EF9FFF760F9F8E700005555555575
:10DD0000E81F00209021002035F00100982200201B
:10DD100075F0010041F1010035D2010070B51446E3
:10DD200082880E4605462088111D4118921C994292
:10DD300001D8FE2A01D90C2070BD521C3254208813
:10DD4000FF21401C80B2208031542088401C80B2CA
:10DD500020808119288803F09FFA2188401880B21A
:10DD60002080AA88002A09D0A968002908D0801933
:10DD7000FDF712FA2088A98840182080002070BD85
:10DD8000072070BD10B50D480D4C0078002806D056
:10DD900060780C49800008585521FDF7DBFB60785E
:10DDA000401CC0B26070E178884206D300206070E9
:10DDB000A078002801D102F093FC10BD03200020C0
:10DDC000082000208825002010B50D4C002060712F
:10DDD0002179062902D0002901D008E02071A0682D
:10DDE000A061E169884202D001216171E06162793C
:10DDF0002179A06902F06CFA2079401C207110BDD5
:10DE00000820002010B50948FEF70AF9032000F0A9
:10DE1000C3FB0648FEF744FA032001F08EF80449DC
:10DE20000820C86003490020087010BD101E0200C1
:10DE30000005005005200020F7B592B0002069468B
:10DE4000109008710870029004460546087607464F
:10DE50000D9020460C2148437F490B90461872894B
:10DE600069469005800F0871600012990F90085A5A
:10DE700081058B0F69460B700B79D2B2C0B209785D
:10DE80008B422AD0204601F0ABF96A461279012074
:10DE900002A988546A46127888546A461178002983
:10DEA0000CD0012902D002292FD10DE06A4A0B992A
:10DEB00050546946087E401C087626E00F9A129955
:10DEC000895CF170707020E0002C1ED16249139AB9
:10DED0008A80149ACA80887017E0B1785E4B012955
:10DEE00005D0824211D0717801290BD00DE0002CB1
:10DEF0000BD1139898801499D980002905D0FEF78A
:10DF000021FE02E0F0700120109012990F98641C1D
:10DF1000085AE4B27081032C9BD36846407A0128EA
:10DF200009D100F023FA4D484168FF2212029143C3
:10DF30004160FFF72BF91098002818D06846007A46
:10DF4000002814D16846807A002814D1424E00245B
:10DF50000C20604380194178012904D1C278417AAC
:10DF6000007AFEF795FF641CE4B2032CF0D36846F8
:10DF7000007A012803D06846807A012846D101F052
:10DF800065FF354C00200C21414309198A78012A8C
:10DF900003D04A78012A03D014E07F1CFFB211E0BD
:10DFA0002F4A0D9B165C03AAD654CB780D9904AA70
:10DFB00053540D9A05A988540D99491CC9B26D1C7A
:10DFC000EDB20D91401CC0B20328DCD3FD421DD040
:10DFD0000226032D1CD0002F06D0E188A088FEF772
:10DFE000B1FD267200206072022D1ED0012D0DD1D0
:10DFF0006846017C007BFDF791FC6846007D0C22A1
:10E0000050430121001901720021417215B0F0BD89
:10E01000FDF788FC26720021617201202075617570
:10E020000D49203108704870F0E76846437C027C57
:10E03000417B007BFDF784FC6846007D0C22504349
:10E04000012100190172002242726846407D0C22B3
:10E05000504300190172D8E7DC2D00200075004004
:10E06000B8200200F8B5002401F0F0FE03201149A9
:10E0700000250860104908200127C860FFF786F8CE
:10E080000E4E204601F0ACF80C206043801947701A
:10E09000641CC570E4B24581032CF2D302203072B7
:10E0A0007572064837757575203007704770FDF733
:10E0B00039FCF8BD0C07005000050050DC2D002095
:10E0C000F8B50F46017814460546012902D1687853
:10E0D000002806D02088821C9A422DD8012902D01F
:10E0E00006E00720F8BD69784118891C994223D8B9
:10E0F000181A801E86B2684606802188B81C081847
:10E1000069467DDF0028EDD12878022805D16946CF
:10E110000988B14201D809210AE00821012805D166
:10E120006878B04202D86A46108001E068460680EE
:10E1300068460088FE2801D90C20F8BD2288401CC2
:10E14000B8542088401C80B2208039542088694609
:10E15000401C20800988401820800020F8BD000065
:10E1600010B501788A074178920F4907C90E4068B7
:10E1700011438207540E0C438103890F03D00321FE
:10E18000090408400443002000F020F803494868CF
:10E19000FF22120210402043486010BD007500406D
:10E1A00010B500F013F8064A01211160054800235C
:10E1B0000468002CFCD0036003488068516010BDE7
:10E1C00000700040007100400075004010B5064925
:10E1D00002024B68FF242402A3431A434A6000282A
:10E1E00000D00120086010BD00750040C208430740
:10E1F0005B0F0120895C9840084070470121890726
:10E2000040180068002800D0012070477D21C90017
:10E2100048430FD00849094A096800BF00BF00BF42
:10E2200000BF00BF00BF00BF00BF914200D000BFD1
:10E230000138F2D170470000342100200024F4009E
:10E240007D21C90048430FD00849094A096800BF29
:10E2500000BF00BF00BF00BF00BF00BF00BF9142B2
:10E2600000D000BF0138F2D17047000034210020F7
:10E270000024F4007D21C90048430FD00849094A11
:10E28000096800BF00BF00BF00BF00BF00BF00BFE4
:10E2900000BF914200D000BF0138F2D170470000AA
:10E2A000342100200024F4007D21C90048430FD010
:10E2B0000849094A096800BF00BF00BF00BF00BF8E
:10E2C00000BF00BF00BF914200D000BF0138F2D1B3
:10E2D00070470000342100200024F40000280FD0F3
:10E2E0000849094A096800BF00BF00BF00BF00BF5E
:10E2F00000BF00BF00BF914200D000BF0138F2D183
:10E3000070470000342100200024F40000280FD0C2
:10E310000849094A096800BF00BF00BF00BF00BF2D
:10E3200000BF00BF00BF914200D000BF0138F2D152
:10E3300070470000342100200024F40000280FD092
:10E340000849094A096800BF00BF00BF00BF00BFFD
:10E3500000BF00BF00BF914200D000BF0138F2D122
:10E3600070470000342100200024F40010B5002084
:10E3700005490122054C802348602360044B9A60C4
:10E38000044B1A60887410BD9830002080E100E0D2
:10E39000007300400470004070B50E4C00252078DA
:10E3A000002801D0852513E00021A1606160216172
:10E3B000E160094800680126304002D1032100F0E5
:10E3C0002FF802F0D7F8002801D1044886612670A2
:10E3D000284670BDFC2F002000E100E00005004051
:10E3E00038B50020694608706846FEF717F8084CF3
:10E3F0002078002801D1FFF7CFFFE068401CE060E3
:10E400000120A07068460078FEF726F838BD0000AD
:10E41000FC2F002010B5002801D1FEF74FFE10BDE3
:10E420008207D30EFF229A408907090E10B5994042
:10E4300000280BDA03071B0F083B9C080C4BA400B9
:10E44000E318DC6994430C43DC6107E08408094B62
:10E45000A400E418236893430B432360C106C90E4C
:10E4600001208840044908600449086010BD00008C
:10E4700000ED00E000E400E080E200E000E100E008
:10E4800070B5144D2879002801D0082070BD1149BD
:10E4900000204039421E0B182033401CC0B21A70B5
:10E4A0002028F8D300242046FEF702FD641CE4B2C5
:10E4B000082CF8D303210620FFF7B2FFFF207D30A0
:10E4C00000F094FD01200449C00748600120287134
:10E4D000002070BDEC30002000630040024800794D
:10E4E000002800D001207047EC300020FEB5044623
:10E4F00020480D460019002620308157491C01D0C4
:10E50000082633E0A97800291DD0012200212046E9
:10E51000FEF7DCFC411C14D0830017482A78181839
:10E5200069780369154F3B4003610369E706FF0CF7
:10E530009207920BC907C90A3B430A43134303617D
:10E5400004E0042612E00121C94301706A78012029
:10E55000A0400B49012A0BD0C860002100910B4656
:10E56000012201912046114600F0C0FC3046FEBD5C
:10E570008860F2E7AC30002000650040FFE0ECFF6F
:10E580000005005010B5FEF7C5FC80060149000EDD
:10E59000401810BD006000400549091820200856A9
:10E5A00081000448081801698908890001617047E1
:10E5B000AC300020006500400949091820200856A9
:10E5C0008100084809180869032210431F2212021B
:10E5D00002430A6100BF00BF00BF0861704700002E
:10E5E000AC30002000650040002900D00121074A1E
:10E5F00012182020105682000548121810690123B5
:10E600001B0598430905084310617047AC30002092
:10E610000065004010B5044600F0EEFD00280DD066
:10E620002046FEF777FCC0B2FEF742FC2046FEF71C
:10E6300071FC074A00218000801801610548002113
:10E640000019C94320300170204600F063FC10BD62
:10E6500000650040AC300020F1B50427164E82B0B2
:10E6600000240020694608706846FDF7D7FE0125A2
:10E67000A540354204D02046FFF7A8F900280CD069
:10E6800068460078FDF7E8FE002F04D0641CAE4316
:10E69000E4B2002EE5D13846FEBD084901204A68A3
:10E6A000A040104348600298002704706846007834
:10E6B000FDF7D2FEEFE70000FF3F0000E020002062
:10E6C000F8B514460D00074612D0002C10D00026D5
:10E6D000FFF7D4F900280DD03846FFF777F9002866
:10E6E0000AD00648F9000818056144613046F8BDB3
:10E6F0000E20F8BD0726F9E70826F7E700F50140E8
:10E7000070B505460024FFF779F900280FD0284698
:10E71000FFF7B4F9002804D02846FFF757F900287E
:10E7200007D001200449A8408860204670BD072416
:10E73000FBE70824F9E7000000F5014070B5054645
:10E740000024FFF75BF900280FD02846FFF796F961
:10E75000002804D02846FFF739F9002807D0012007
:10E760000449A8404860204670BD0724FBE7082400
:10E77000F9E7000000F50140F8B504460026FFF770
:10E780007DF9002812D001250948A54085600021A7
:10E7900068460170FDF742FE06484168A9434160A2
:10E7A00068460078FDF758FE3046F8BD0726FBE7BF
:10E7B00000F50140E0200020F8B506460D46002493
:10E7C0000846FFF722F900281CD02846FFF70AF96F
:10E7D000002815D03046FDF755FE002812D0002144
:10E7E00068460170FDF71AFE0748A900081801687D
:10E7F0003143016068460078FDF72EFE2046F8BDE3
:10E800000824FBE70724F9E700F80140F8B50646BD
:10E810000D4600240846FFF7F8F800281CD02846CB
:10E82000FFF7E0F8002815D03046FDF72BFE002852
:10E8300012D0002168460170FDF7F0FD0748A900DD
:10E8400008180168B143016068460078FDF704FECE
:10E850002046F8BD0824FBE70724F9E700F801404B
:10E86000F1B50427032682B0002400206946087011
:10E870006846FDF7D3FD0125A540354204D020466A
:10E88000FFF7B0F800280CD068460078FDF7E4FDEB
:10E89000002F04D0641CAE43E4B2002EE5D138460C
:10E8A000FEBD074901204A78A040104348700298F5
:10E8B0000027047068460078FDF7CEFDEFE7000002
:10E8C000E020002070B505460024FFF79EF80028E0
:10E8D0000BD02846FFF786F8002808D0054A01200B
:10E8E000E90089180860204670BD0724FBE708246A
:10E8F000F9E7000000F00140F8B504460025FFF7F5
:10E9000084F8002800D107252046FFF76BF800287F
:10E9100014D00B490126E0004018466000216846EB
:10E920000170FDF77BFD0748A6404178B143417077
:10E9300068460078FDF790FD2846F8BD0825FBE7FE
:10E9400000F00140E020002004480178002901D0B7
:10E95000852070470121017000207047E0200020D1
:10E96000FEB5074640790C4641013F480E18307EFF
:10E97000002801D00820FEBD3260207B012501283F
:10E9800005D82178284688403849C86002E02078B8
:10E9900000F008FB2178364A0120890089180860B8
:10E9A0006578FF2D06D03149A840C860284600F0A0
:10E9B000CEFA01E00025ED43A078FF2808D000231F
:10E9C00000931A4619460193029000F07BFA02E088
:10E9D0000020C0430290E078FF2804D000F0E2FA63
:10E9E000E07800F0B4FA7879E17842011E48101816
:10E9F000817639680520000223780818029A83601E
:10EA0000C5600261A2684262627B237B002A00D05B
:10EA10000122012B04D0022B04D0032B06D103E0EA
:10EA2000022302E0042300E006231A4342657A79B8
:10EA3000637955010C4AAA18D3763268002A04D0AB
:10EA4000032304221B02C9184A60012505603068AF
:10EA5000002804D0042021793856FFF7E1FC00207B
:10EA600070763576FEBD00002C3000200005005089
:10EA7000000700501FB50091069C029369460A7179
:10EA80000C73002200F002F804B010BDF8B50D467A
:10EA90004179184B4901C918002300934B7E002B84
:10EAA00001D01120F8BD0B68002B04D014231A42AA
:10EAB00001D101234B76D8CD0831D8C14B79FD2443
:10EAC0005B085B0023404B718C781839103DFF2C9C
:10EAD00003D00123A340084CE360002A04D00020A7
:10EAE000487606200090F8BD00682A4601F058FDDF
:10EAF0000098F8BD2C300020000500501522006859
:10EB00008900920189184058704702688800403097
:10EB1000C0B21018704700680121C160704770B51D
:10EB2000012424048C40032605683602AD19002B0D
:10EB300001D06C6000E0AC60006889000818052115
:10EB400009024018026470BD02688800FF3041303D
:10EB500080B2101870470268012000048840032129
:10EB600009025118886070478A0010B5FF3241329F
:10EB7000036892B200249C5002680120000488407F
:10EB8000032109025118486010BD000002680121EC
:10EB9000116100790C225043014A801801727047BC
:10EBA0004C300020016801220A6000790C22504399
:10EBB000024A022180180172704700004C30002088
:10EBC000F0B5FF25023504688D40FF34FF34023470
:10EBD000059E2768AF4327600468FF34FF34023482
:10EBE00025681D4325603346FFF799FFF0BD0000FF
:10EBF00070B504460D4600790C2148432249461859
:10EC0000307A002801D0082070BD002A05D032607B
:10EC1000686870600020034608E0072070BD81002E
:10EC2000FF31226841315350401CC0B261798142AA
:10EC3000F5D82068E978000B40B2FFF7F1FB05201A
:10EC40002168000209186A784B68D2075B085B00EC
:10EC5000D20F13434B602168AA7809188B6892077A
:10EC60009B089B00920F13438B6022682978101831
:10EC70000269090712091201090F0A430261012002
:10EC80003072002070BD00004C30002030B50346CB
:10EC90000068C103C90E0120884010490860196846
:10ECA0000020FF31C043FF3102310A6800240C60AC
:10ECB0000322196812028918886018790C21084DFE
:10ECC00048434019007A022802D11846FFF75EFF38
:10ECD00018790C2148434019047230BD80E100E0EE
:10ECE0004C3000200179282251430B4A03238A1813
:10ECF00001680020C0431B02CB189860C81DFF307C
:10ED0000FA3003680023036005200002081803603E
:10ED10000120203290707047703000200179282245
:10ED20005143054A0068891805221302C018026081
:10ED3000022020318870704770300020F8B50746F7
:10ED40000C460079282148431B4945182E46203699
:10ED5000B078002801D00820F8BD0CC5002028603C
:10ED600070713071A07BF071607B083D002802D08B
:10ED7000204601F013FE216810488A0010495218FD
:10ED800010606268920051180860052338681B0201
:10ED900006CCC0188160C260216841622868083CC6
:10EDA000002805D03868217B000B40B2FFF738FB04
:10EDB0000120B0700020F8BD703000200C0600006B
:10EDC000000700503EB5074D2C68AD6800940295D1
:10EDD0006C466170A37001920022694600F04AF807
:10EDE0003EBD0000EC2002003EB50025069C0095CB
:10EDF00002956D466970AB700192002C01D0202203
:10EE000000E00022294600F035F83EBD30B5054649
:10EE1000007928214843134944182068002806D067
:10EE20002868C103C90E012088400F4908602846A0
:10EE3000FFF758FF2034E07900280FD105202A6819
:10EE400000021218094992689300094A9B18196038
:10EE50002B681818C0688000801801600020A0701E
:10EE600030BD00007030002080E100E002030000AF
:10EE70000007005070B50D46017928235943064B11
:10EE8000CC18910701D0062070BD134601682A46B0
:10EE9000204601F03DFF70BD7030002070B552007B
:10EEA0000A439900049D0A432902059E0A4331043E
:10EEB00005240A432407800007210019090240188D
:10EEC000026070BD70B552000A439900049D0A4368
:10EED0002902059E0A43310405240A4324078000C1
:10EEE0000721001909024018026070BD70B5520078
:10EEF0000A439900049D0A432902059E0A433104EE
:10EF000005240A432407800007210019090240183C
:10EF1000026070BD1CB5002100910B4601220191D9
:10EF2000FFF7E4FF1CBD05221207800080180722AE
:10EF300089001202801801607047052212078000C4
:10EF400080180722032112028018016070471CB547
:10EF5000002100910B46012201911146FFF7B2FFFB
:10EF60001CBD05221207800082180720000210181D
:10EF7000026803231B049A430260026809040A43DF
:10EF800002607047012181400148C1607047000064
:10EF90000005005001218140014881607047000058
:10EFA0000005005001218140014881607047000048
:10EFB0000005005001218140014881607047000038
:10EFC0000005005038B5084B05241B680093240247
:10EFD0006B46411805E085005D592D192D69401CCF
:10EFE00020C28142F7D838BDF820020002494018FB
:10EFF0000021016070470000006000400349401894
:10F000000068012800D00020704700000060004028
:10F010004058002800D0012070474058002800D0F8
:10F02000012070470322120280184068084000D077
:10F0300001207047F0B50D4B5A811E780C4D00240D
:10F04000AA55F02E0ED2701CB61804E00F5D641C99
:10F050002F54E4B2401C8642F8D218788018401C25
:10F060001870F0BD002018705870F0BDE81F002027
:10F07000DC22002070470000F0B5304D04460188C6
:10F0800002270126288989B03A2930D00CDC0229D0
:10F0900031D0102912D0112916D0132912D10023F2
:10F0A0001A4685217FDF1FE0512928D0522917D029
:10F0B000552907D1A088132176DF15E0A088288183
:10F0C0002F71EE7009B0F0BD0020C0432881FDF71C
:10F0D00009FD03202871AE70F4E7FCF781FEF1E72B
:10F0E00000231A461946A9DF0028F6D1EAE7A088CE
:10F0F000132176DFF8E7A088002167DFF4E710220C
:10F10000A11D6846FCF748F8684601780029D9D067
:10F11000007A042803D0062801D00528D2D102297C
:10F12000684608D00674FF20833069468882A0882C
:10F1300004A9A8DFD8E70774F5E70000E81F00205E
:10F140000078002803D102483B21008976DF704710
:10F15000E81F002010B5134A00215170017A0129DF
:10F1600011D002290ED18189491C8181C189491C94
:10F1700089B2C181028A914204D1002100F0E6FFE8
:10F1800000F0C0FA10BD838AC28A991AFF2901DCF7
:10F1900089B201E0FF210131511889B2C18299423F
:10F1A000EBD010BD14210020074A904201D107483E
:10F1B00003E0074A904202D10648C1607047064A00
:10F1C0009042FBD10548F8E700800040008C0040E9
:10F1D00000900040009C004000A0004000AC0040B7
:10F1E0000C225043034A002183185970115499701E
:10F1F00070470000DC2D00200449081820214156EA
:10F20000042901D20120704700207047AC30002053
:10F2100070B50646094C0020207064204843FF2149
:10F22000FBF774FF05462A4631460548FCF71CFEED
:10F230001128F8D020780028FCD070BD06200020CE
:10F24000C81D0200014901200870704706200020F7
:10F2500073B506460A4C0020207068460079642188
:10F260004843FF21FBF752FF05462A463146054831
:10F27000FCF7FAFD1128F8D020780028FCD07CBDDE
:10F2800007200020101E020001490120087070476D
:10F290000720002010B500680C2251430C18207A7A
:10F2A000FFF72EFA607AFFF72BFA10BDF1B582B0A6
:10F2B000029800240568281920300078FF2801D022
:10F2C000FFF75AFA641CE4B2022CF4D32220405D0A
:10F2D000FF2801D0FFF710FB002420460C214843F3
:10F2E000002647190090B8190190007AFF2804D031
:10F2F000FFF742FA0199FF200872761CF6B2022E3F
:10F30000F1D300982858411C05D0FFF783F900215C
:10F310000098C94329500020641CE4B2F872022C02
:10F32000DBD302984068FFF7B1FCFEBD10B504685E
:10F3300020342078FFF7E4F96078FFF7E1F910BD99
:10F34000F8B50D4612480127002449000E18305D1B
:10F35000002806D0305D401E3055305D00280ED0AC
:10F360000027641CE4B2022CF1D3002F06D0094818
:10F37000A900405802214068FFF7EDFBF8BD0548A1
:10F38000A90040580068C16928468847E9E700009D
:10F390001921002068310020FEB50C4601680546A1
:10F3A000009120460C2148430099019047181646C9
:10F3B0002846FFF7BBFF21462846FFF76BFF019861
:10F3C0000A30002E09D000998969B1420FD88EB257
:10F3D0002968085C002804D005E02968085C00283A
:10F3E00001D0002100E001213868FFF7FDF800237B
:10F3F000324621466868FFF792FB7E606968024AE0
:10F400000979FF205054FEBD16210020F7B582B0C7
:10F410000446056803980C21484347192035AE7807
:10F42000039800902046FFF781FF20460399FFF7DD
:10F4300031FF00236068049A0099FFF770FB3146A2
:10F440003348FFF7E3F9397A012002468A40797A96
:10F45000884010433146FFF7AFF979682D480029FD
:10F4600033D0F1000E1802216068FFF76DFB0146F2
:10F4700028783246FFF724F900230122032160682F
:10F48000FFF74DFB6068002100798200224881501F
:10F4900003216068FFF739FB064602216068FFF729
:10F4A00053FB014668783246FFF70AF92878FFF7E0
:10F4B00045F96878FFF742F9049878606168174A5F
:10F4C00009790320505405B0F0BDF1000E186068B2
:10F4D0000399FFF739FB014628783246FFF7F0F829
:10F4E00000231A4603216068FFF719FB606803993F
:10F4F000FFF704FB616809798A00074988500321F6
:10F500006068FFF702FB064660680399C7E70000E2
:10F51000FF3F000000F001405C3100201621002078
:10F52000F7B5076882B0044603980C214843C21916
:10F530003D4620350092AE782046FFF7F7FE314673
:10F540003648FFF763F9009A0121127A0846904085
:10F55000009A527A914008433146FFF72DF90499F9
:10F560002F48002937D0398B89B20491F1000E1849
:10F5700002216068FFF7E8FA014628783246FFF773
:10F580009FF80023012203216068FFF7C8FA606832
:10F590000021007982002348815003216068FFF731
:10F5A000B4FA064602216068FFF7CEFA0146687891
:10F5B0003246FFF785F82878FFF7C0F86878FFF73C
:10F5C000BDF80099049848606168174A09790320DA
:10F5D000505405B0F0BDF1000E1860680399FFF7B4
:10F5E000B3FA014628783246FFF76AF800231A4634
:10F5F00003216068FFF793FA60680399FFF77EFACA
:10F60000616809798A000749885003216068FFF71B
:10F610007CFA064660680399C6E70000FF3F0000D9
:10F6200004F001405C31002016210020F7B582B0C3
:10F630000546046803980C21484307192034A6782E
:10F640002846FFF773FE31462B48FFF7DFF8227894
:10F650000121084690406278914008433146FFF707
:10F66000ABF868680399FFF750FA009003216868C7
:10F67000FFF76AFA01462078009AFFF721F86868D8
:10F68000052100680902401800690006000E13D029
:10F69000002104980818796888420FD23868FEF76C
:10F6A00071FF009003216868FFF74EFA0146607809
:10F6B000009AFFF705F807E00121EAE762780120E8
:10F6C00031469040FFF7A2F80498786000236868FC
:10F6D0000321049AFFF723FA3046FFF7F3F869682D
:10F6E000064A09790498890050506968044A0979E2
:10F6F0000398505405B0F0BDFF3F00005C3100207E
:10F70000162100200848416E491E416604D1074970
:10F71000FD230A781A400A70016E491C016604290B
:10F7200001D1002101667047F4300020142100202F
:10F7300070B50C490446486E042810D00A6E1218A1
:10F74000042A00D3121F401C486618204243551853
:10F7500001462846FBF739FD0120256070BD0020D9
:10F7600070BD0000F430002010B518481822016E5A
:10F7700051430C18406E00281FD0207A012802D077
:10F78000022816D10FE0A18AE08A091AFF2901DCBC
:10F790008AB201E0FF220132E16880002369091882
:10F7A000181829DF01E0A08928DF112806D00028D9
:10F7B00003D00921204600F0C9FC10BD0449FD22F8
:10F7C0000878104004221043087010BDF430002067
:10F7D0001421002010B5054801784A07920F04D182
:10F7E000022211430170FFF7BFFF10BD142100205A
:10F7F0000CB5002168460170017111490869800348
:10F80000C20F6846027000780201684602700869FB
:10F810004001C10F684601710079410168460171DC
:10F82000084ACF20D1780140074840780143684614
:10F8300000780143684600790143D1700CBD000097
:10F8400000050050EF2300202820002000B5074BC2
:10F8500001221046FDF7A8FE5100C9184039521C7C
:10F86000D2B2C887042AF4D3004800BD8820002003
:10F8700010B509488078012806D0022808D100F088
:10F880008BF900F013F903E000F03CF900F0C4F844
:10F8900001F0F2FD10BD00002820002010B532203C
:10F8A000FEF7CEFC0949042001F060F80A20FEF7BB
:10F8B000C7FC00F093F806480449C078C91E0870D8
:10F8C0003D38BD2801D20120087010BD5320002012
:10F8D000DB23002030B50F4B104A187801070E4883
:10F8E0000FD501215C5C4518491CC9B2EC70062992
:10F8F000F8D90421435C5354491CC9B20929F9D9E8
:10F9000030BD0421535C4354491CC9B20929F9D9BB
:10F9100030BD000047200020EF2300206D2600208E
:10F9200010B5FDF7CFFC054A05490120135C0C1802
:10F93000401CC0B2E3700628F8D910BD4720002053
:10F94000EF23002010B5144B00201978144A0C073F
:10F9500012491AD54400E41864780C54401CC0B213
:10F960000328F7D30C48AA2315380078184001283B
:10F9700001D9012300E00023CB7000200B5C13545D
:10F98000401CC0B20328F9D910BD135C0B54401CB5
:10F99000C0B20328F9D910BD40200020EF23002079
:10F9A0005A26002000B50022FDF784FC09490A48C8
:10F9B00053005B185B788354521CD2B2032AF7D3EE
:10F9C00004490A2215390978114000D00121C1707B
:10F9D00000BD000040200020EF230020044A05491C
:10F9E0000020135C0B54401C0428FADB7047000015
:10F9F000002E0020DB2300200549064A04200B18B6
:10FA0000203B1B7F1354401C0E28F8DB704700007E
:10FA1000EF230020DB2300207CB50024214D01943E
:10FA20002C700126334601AA0E211F480096FFF7CD
:10FA3000DBF9002801D0FCF7D3F928780028FCD0A6
:10FA40002C70184A07231F320E211748FFF7BAF906
:10FA5000002801D0FCF7C4F928780028FCD00F203A
:10FA6000694608712C70012301AA0E210E480096E8
:10FA7000FFF7BAF9002801D0FCF7B2F9287800287E
:10FA8000FCD02C70074A0123121D0E210648FFF7F7
:10FA900099F9002801D0FCF7A3F928780028FCD0B8
:10FAA0007CBD0000282000208C2002007CB512A024
:10FAB0000068124C0025019025700120034600903B
:10FAC00001AA1E210E48FFF78FF9002801D0FCF78C
:10FAD00087F920780028FCD02570084A07231F32B8
:10FAE0001E210748FFF76EF9002801D0FCF778F9CE
:10FAF00020780028FCD07CBD670000002820002072
:10FB00008C2002007CB50024214D01942C7001262C
:10FB1000334601AA1D211F480096FFF765F900280A
:10FB200001D0FCF75DF928780028FCD02C70184A29
:10FB3000072318321D211748FFF744F9002801D088
:10FB4000FCF74EF928780028FCD016206946087189
:10FB50002C70012301AA1D210E480096FFF744F9DD
:10FB6000002801D0FCF73CF928780028FCD02C7044
:10FB7000074A0123D21C1D210648FFF723F900285C
:10FB800001D0FCF72DF928780028FCD07CBD0000BE
:10FB9000282000208C2002007CB523A00068234C84
:10FBA0000025019025700126334601AA192120481D
:10FBB0000096FFF719F9002801D0FCF711F9207819
:10FBC0000028FCD02570194A07231832192118483B
:10FBD000FFF7F8F8002801D0FCF702F92078002898
:10FBE000FCD03120694608712570012301AA192132
:10FBF0000F480096FFF7F8F8002801D0FCF7F0F85E
:10FC000020780028FCD02570084A0123D21C192135
:10FC10000748FFF7D7F8002801D0FCF7E1F8207873
:10FC20000028FCD07CBD0000A80000002820002097
:10FC30008C200200F8B500206946087008700F4C4F
:10FC40000F4D104EFF270CE008780C214843285C2C
:10FC500001280AD068460078275469460878401C75
:10FC6000087008780328EFD3F8BD69460878305C3F
:10FC7000FEF796FA694609786054EEE7DB23002028
:10FC8000DC2D0020BB2002007CB514A00068144CC1
:10FC900000250190257001200346009001AA0E2145
:10FCA0001048FFF7A1F8002801D0FCF799F8207858
:10FCB0000028FCD025700A4A062312320E2109487A
:10FCC000FFF780F8002801D0FCF78AF82078002898
:10FCD000FCD00520FEF79AFA7CBD00000900000068
:10FCE000282000208C2002007CB514A00068144C51
:10FCF00000250190257001200346009001AA1E21D5
:10FD00001048FFF771F8002801D0FCF769F8207857
:10FD10000028FCD025700A4A062312321E21094809
:10FD2000FFF750F8002801D0FCF75AF82078002897
:10FD3000FCD00520FEF76AFA7CBD000045000000FB
:10FD4000282000208C200200F0B53CA085B000687F
:10FD500002903BA0002600683A49039035460127EF
:10FD60000E703B4602AA0E2137480097FFF73CF879
:10FD7000002801D0FCF734F8324C2078002802D05B
:10FD8000012F0ED01CE06D1CEDB2032D05D900F043
:10FD900069F8002501202F4620700520FEF736FA6D
:10FDA000EBE700202070012301AA0E212648FFF76F
:10FDB00009F8002801D0FCF713F820780028FCD0BF
:10FDC0006846007900250127C4280ED00020207045
:10FDD00001200346009003AA1E211B48FFF704F8E8
:10FDE00000280FD0FBF7FCFF0CE0012623E00520E4
:10FDF000FEF70CFA6D1CEDB2032D03D900F032F8BA
:10FE000000252F4620780028F1D0002F0ED00020AA
:10FE10002070012301AA1E210B48FEF7D3FF002802
:10FE200001D0FBF7DDFF20780028FCD06846007980
:10FE3000402800D10226304605B0F0BD0700000082
:10FE40004F000000282000208C20020010B504493B
:10FE500000200870FBF7D0FFFBF7D8FF10BD0000B3
:10FE6000052000201FB50E4B6C460FCB0FC40C486D
:10FE70001838FEF737FF0A481838FEF7C7FF08485A
:10FE80000023084A69461838FEF758FF002801D0B9
:10FE9000FBF7A6FF02481838FEF740FF1FBD000021
:10FEA000A4200200350A020070B501240B49600449
:10FEB00008600B4940108860094940398860094D45
:10FEC0006C602F20FEF73AFAAC60074D00242F201B
:10FED000AC60FEF733FAAC7070BD000080E100E06A
:10FEE0004013014000100140E8200020F0B50D4C07
:10FEF0000D4B2546197899355A7800202F469B7866
:10FF00009937265CB14207D12E5CB24204D13E5CE7
:10FF1000B34201D10120F0BD401C9928F1D300204B
:10FF2000F0BD0000F41B0200FC1F002030B5FF22D2
:10FF30000523CD7D002409321B02C318002D8450F7
:10FF4000986905D04B7ECA68D054487E401C4876DC
:10FF500030BD70B500240546601C90B00007000F4E
:10FF600008A9103008940870601C0007000F1030BA
:10FF700048708878F9263040801C88701C2101A8C0
:10FF8000FBF723F96946087910210843694608718F
:10FF9000029408A80494059407940690287808A968
:10FFA0008871032069468884112000940870487085
:10FFB0008878F7213040801C0840EF210840012656
:10FFC00030436946887014210AA8FBF7FEF809A897
:10FFD0000A9068460B9069460E8614204C868886E7
:10FFE0002B4668880C330AAA01A9A2DF10B070BDA5
:10FFF0001FB501246B461C701972019206C8684631
:020000040002F8
:1000000090471FBD10B50446FBF7A2FD00280CD099
:10001000A007C00E002C0ADA2107090F0839890849
:10002000144A89008918C96906E0134810BDA1085F
:10003000124A890089180968C1400806800F0428FF
:1000400011D200280FD002280DD00D494B68E206CE
:10005000D20E01209040002B08D0620992008B58EC
:1000600003438B5004E00448401C10BD0549086060
:10007000002010BD00ED00E00120000000E400E0E1
:100080000C21002000E100E038B5094C002222706C
:1000900000920B4602461D210648FEF7A5FE0028E9
:1000A00001D0FBF79DFE20780028FCD038BD000071
:1000B000282000208C20020038B500236A461370E7
:1000C000084C2370117000930B4602461921064814
:1000D000FEF78AFE002801D0FBF782FE2078002878
:1000E000FCD038BD282000208C20020038B5094CF7
:1000F0000022227000920B4602460E210648FEF7AF
:1001000073FE002801D0FBF76BFE20780028FCD09E
:1001100038BD0000282000208C20020038B5094C92
:100120000022227000920B4602461E210648FEF76E
:100130005BFE002801D0FBF753FE20780028FCD09E
:1001400038BD0000282000208C2002001FB50022AE
:100150000092019202920392037A012B02D0022BA9
:1001600011D106E06B461A7002690292828A9A8166
:1001700009E001236A4613708289C389D31A6A464B
:1001800013818389538142680192006882686846BE
:1001900090471FBDFFB50746806A81B0144600280E
:1001A0003DD0002538462030009033E00C20B96A5D
:1001B00068430E18B088801CFE2802D90C2005B0B8
:1001C000F0BD22880299401C885420881622401CC9
:1001D00080B2208002990A542088401C80B220807E
:1001E00002994118308801F057F82188401880B2F0
:1001F0002080B288002A0AD0B16800290FD0029B63
:10020000C018FAF7C9FF2088B188401820806D1CFB
:100210000098EDB2007BA842C8D80020CFE70720A5
:10022000CDE7000070B504461248134D018A2182C3
:10023000818A61820078002818D06879002815D159
:1002400001F030F9002811D028462030E06002206B
:100250000849207204202031C8700648002120304F
:10026000FCF716F9002804D1052000E00320A8704F
:10027000002070BD142E00209C20002070B5044684
:1002800011480426018B2182818B618200780F4DF9
:10029000002816D06879002813D101F003F900284E
:1002A0000FD028462030E06002202072064800214E
:1002B0002030C670FCF7ECF8002804D10620A870A6
:1002C00000E0AE70002070BD142E00209C200020A5
:1002D000F8B54E4C0023254628358E468446002A24
:1002E00047D000274A482246C7600761643A476101
:1002F0009E005B1C39469751192BF9DB43480023BC
:1003000050309E00A151A9515B1C81510A2BF8DB92
:1003100000216346CB40DB078E00DB0F491C935165
:100320001929F6DB3B4600211E4638488A0064380E
:100330008058012816D137484A00805C012804D033
:10034000022806D0032808D00CE0B80021507F1CFA
:1003500008E0B0002950761C04E02C489A00503088
:1003600081505B1C491C1929DFDB2948C7600661E5
:1003700043617046284E0300FBF7CEFB0604451987
:10038000452F45180D20FEF705FE0025214F204C76
:1003900009E01E48A90040584000C0194078805D1F
:1003A000FEF7F0FD6D1CE0688542F2DBF8BD0E2023
:1003B000FEF7F0FD0024174F154D0AE01348A10089
:1003C000283040584000C0194078805DFEF7DAFDC3
:1003D000641C28698442F1DBF8BD0F20FEF7DAFDCA
:1003E00000240C4F0A4D0AE00848A1005030405844
:1003F0004000C0194078805DFEF7C4FD641C686948
:100400008442F1DBF8BD00F09DF9F8BD1025002015
:1004100008200020282600204F1E02001CB5684638
:1004200071DF1848184902780A70407848706846A9
:10043000C0780007000FFCF735FF887068468078A9
:1004400000090001C8700009FCF72CFFC87068465D
:1004500080780007000FFCF725FF08716846407898
:100460000009000148710009FCF71CFF487168464B
:1004700040780007000FFCF715FF88710020C87155
:100480001CBD0000EE1F0020B422002010B5012189
:100490001B20FEF748FD10BD10B501211D20FEF701
:1004A00042FD10BD10B501211C20FEF73CFD0121CD
:1004B0001D20FEF738FD10BD10B501211C20FEF7F0
:1004C00032FD10BD002803D00249C86000207047EB
:1004D0000E207047202100201CB503490191009196
:1004E000694660DF1CBD0000E81F002070B50E46A5
:1004F0000546144614211046FAF767FE0120002134
:1005000020802161217326726572002D00D0A072B7
:10051000002070BD10B5FBF755FC10BDF8B50029E3
:1005200003D08C070025002C01D00720F8BD0E4E0B
:100530000E4FB1607280736039680124214003D08E
:100540000A49254680310C60094910DF002803D094
:10055000002DEBD03C60F8BD3470FDF741FF162054
:10056000FFF750FDF8BD00002021002000E100E071
:100570001505020001480078704700002021002086
:10058000002803D002490861002070470E20704700
:10059000202100200149012008707047012000201F
:1005A000F8B50446164600200D46087703220421BC
:1005B0001202A21800929160FF21093160500520BB
:1005C000FDF78CFE3079002802D03068007800E01A
:1005D000E87E052109026718F8613079012805D9FC
:1005E0006420FDF77BFE3068407803E0307B012813
:1005F00001D9E87EF8612868002803D0009904201A
:100600004860F8BDFF2609360027A0590028FCD015
:10061000A7512946204600F07DF90028F5D1A87E93
:10062000FF28EED0FEF7BEFCF8BD000010B50A486A
:100630000024C470042100F035FE08480178002928
:1006400002D0047000F070F800F034F80449012082
:1006500088700449087010BDFC1F00200420002091
:10066000082000200320002010B50024FCF7B4FE71
:10067000FCF760FC002810D0FFF7E8F8074A61009B
:10068000435A641C1B0A5354435C8918E4B24B70F0
:10069000032CF4D30148FCF7FDFC10BD8E20002094
:1006A00010B500F007F802490120087010BD0000E5
:1006B0000320002010B50848002206494068FBF7D7
:1006C00055FE002801D0FBF78BFB04490120087080
:1006D00010BD000066260000481E02000420002015
:1006E00070B50D480D4C00780D4D002804D02068E1
:1006F000FBF780FE606803E02878002802D02068BD
:10070000FBF778FE0020074928700870A870687011
:1007100000F018F870BD000004200020481E020000
:10072000082000200320002010B504490020087094
:1007300003484068FBF75EFE10BD00000420002067
:10074000481E020070B5094D0024285DFEF722FC0A
:10075000641CE4B2092CF8D30924285DFEF712FCCE
:10076000641CE4B20C2CF8D370BD0000501E0200D3
:1007700010B5FCF7D5FE10BDFEB51F4C0025A768CF
:10078000606802906846FCF7BBFD0190FDF77CF9BC
:1007900006460198002822D000230098616817E0DF
:1007A0000E680A46864202D9301A086012E0801BA1
:1007B000F31800261660D668D169B446002E07D01B
:1007C000FE183602360A566066469660D5611546B2
:1007D0000029E5D128466160FDF7ACF906E028461E
:1007E000FDF7A8F9002801D1002E02D00298FCF7ED
:1007F00079FC0020E070FEBDE820002001200249C5
:10080000000508607047000000E200E010B50E4BE4
:100810005968002906D002680C68A24204D8A21ABE
:100820000A60C161586010BD0B4604E00B46C969FF
:10083000121B002904D00C689442F7D3A41A0C6050
:100840000260C161D86110BDE82000207CB50D4672
:100850000646002469460C706846FBF7DFFD01A8D8
:1008600000F084FD00280DD00570466068460849F8
:100870000079487068460078FBF7EEFDFFF7BEFF91
:1008800020467CBD684604240078FBF7E5FDF7E7C9
:10089000F8200020F8B51D4D6C68002C34D01C48A1
:1008A00000274068A968401A0602360A2068B0424C
:1008B00018D8361AC7192246107CE46900280FD0D0
:1008C00000201074EB68002B07D09169506998479D
:1008D000002805D0FBF784FA02E051699069884747
:1008E000002CE3D129786878814206D1401CC0B23F
:1008F0006870022801D10020687004490006800D4C
:1009000018310F50FFF77AFFF8BD0000E8200020F3
:1009100000150140F8B50C46052109024618B069DA
:1009200069460870207F217D884203D26946097894
:1009300022691154207F401CC0B22077217B451CC6
:10094000A94205D96420FDF7C9FCA068405D03E019
:10095000227DAA4202D9E07EF06103E0884201D301
:10096000904201D20120F8BD0020F8BD38B50D46F7
:10097000044607490020087021460648FAF725FC7E
:10098000E2B2044B294604480092FEF773F838BDE2
:1009900001200020002E002094200020F8B50446FD
:1009A0002168224D89002048491908606168890042
:1009B000491908602068FEF7FDFA6068FEF7FAFA48
:1009C00019482168401C890049190860616889003C
:1009D000491908600420FDF799FC0026144F0125F1
:1009E00021793869C840C007C00F02D0002E19D045
:1009F0000FE0217828468840F8600420FDF786FC47
:100A00002068FEF7D7FA0420FDF780FC761C092E3B
:100A1000E6DB20798540FD600420FDF777FC606807
:100A2000FEF7C8FAF8BD00000C06000000070050F1
:100A3000000500500078002802D10249012008700A
:100A400070470000282000201FB50A4B6C460FCBD2
:100A50000FC408480023084A69460838FEF76EF9B3
:100A6000002801D0FBF7BCF902480838FEF756F918
:100A70001FBD000094200200350A02000146032039
:100A8000CA0701D0412040028A0700D50248490721
:100A900001D50148401C704701820000FFB50C469B
:100AA00085B000210491FF21053100261F466650C4
:100AB000FF2125316650FF211D316650FF2109318C
:100AC000665005462035E11DFF31AE71FA31EE70FA
