:020000040001F9
:10B0000040390020D5B00100EFB00100F1B00100DF
:10B010000000000000000000000000000000000030
:10B02000000000000000000000000000F3B001007C
:10B030000000000000000000F5B00100F7B00100C2
:10B040007DB60100F9B001008DB80100F1B6010034
:10B050002DB7010000000000ADB20100F9B0010001
:10B0600045B801005DB8010075B80100F9B00100F4
:10B07000F9B00100F9B00100F9B00100F9B0010028
:10B08000F9B00100D1B60100F9B00100F9B001003A
:10B090007DB70100F9B0010085B70100F9B00100EA
:10B0A000F9B00100F9B0010000000000000000004C
:10B0B0000000000000000000000000000000000090
:10B0C0000348854600F0B4F80048004769D70100FE
:10B0D000403900200321094802680A4302600848F9
:10B0E00002680A4302600748804707480047FEE7B6
:10B0F000FEE7FEE7FEE7FEE7FEE70000240500406E
:10B1000054050040A5B70100C1B0010030B50B46A1
:10B11000014600202022012409E00D46D5409D4231
:10B1200005D31D469540491B2546954040191546B7
:10B13000521E002DF1DC30BDF0B51FB406460020D4
:10B1400082B005464024019100901BE001992246FF
:10B150000F46304600F05BF8049A059B801A99412F
:10B1600010D310461946224600F041F8361A8F4196
:10B170000197224601200021009F00F038F838187E
:10B180004D4100902046641E0028DFDC019B0098A2
:10B190002946324607B0F0BD03460B439B0703D058
:10B1A00009E008C9121F08C0042AFAD203E00B788C
:10B1B0000370401C491C521EF9D27047D2B201E004
:10B1C0000270401C491EFBD270470022F6E710B502
:10B1D00013460A4604461946FFF7F0FF204610BD05
:10B1E000421C0178401C0029FBD1801A704710B521
:10B1F000202A04DB0146203A9140002010BD9140F6
:10B2000020239C1A0346E3401943904010BD10B51B
:10B21000202A04DB0846203AD040002110BD0B460E
:10B22000D340D0402024A21A91400843194610BDB3
:10B23000064C0125064E05E0E36807CC2B430C3C89
:10B2400098471034B442F7D3FFF73EFF6C12020068
:10B250008C12020070B58C180578401C6B075B0FD0
:10B2600001D10378401C2A1106D10278401C03E06A
:10B2700006780E70401C491C5B1EF9D12B0705D4C3
:10B280000023521E0DD40B70491CFAE70378401CB2
:10B29000CB1A921C03E01D780D70491C5B1C521EDA
:10B2A000F9D5A142D8D3002070BD0000F0B500242C
:10B2B000FF268BB00136012527460694304603F061
:10B2C00069FA002807D054484068284203D0304625
:10B2D00003F058FA2C43361D6D007F1CB6B2042FC4
:10B2E000ECD3FF257D35284603F054FA002809D019
:10B2F000284603F047FA6807044306AA0121002004
:10B3000003F02CFA454D200714D0012700262742D0
:10B310000CD04348B200111808690969C004C00E76
:10B320008903AA58890F002A00D090477F00761C15
:10B33000042EECD3002C6DDA00200890401E63E050
:10B34000281940300778B906890E0091002141562E
:10B35000491C49D009A9009802F079FB002843D084
:10B36000B8090190009801F027FC80002F5801983F
:10B37000002F02D0032802D00DE0032834D100981A
:10B3800008ABC20841079446985C490F01228A40E5
:10B390001043624698540098052109078000401820
:10B3A000072109024018006806A98003800F029057
:10B3B000009802F04CFB0028029802D0022802D02C
:10B3C00012E0032810D10198032808D1029802281E
:10B3D0001ED00221009803F090F9761CF6B2002FDF
:10B3E00002D001990098B847641C042CA8D3002E01
:10B3F00010D06A460121002003F0B0F906990098A8
:10B40000884207D00690089800263446099097E7AE
:10B410000321DFE70BB0F0BD006300407430002073
:10B420000065004010B586B0142219496846FFF740
:10B43000B3FE01206946087248721548154A08385B
:10B4400000F0E6FC0590002801D000F05DFB1048FC
:10B45000083800F0A1FC0020694608800E4C0C481A
:10B460000A220021083800F079FB1128F7D0207853
:10B470000028FCD006485A220121083800F06EFB53
:10B480001128F7D020780028FCD006B010BD0000AD
:10B49000940F020049EA01003320002070B50546F0
:10B4A00064204843FF21FFF731FE0E4CC6B2322D17
:10B4B0000CD0332D09D1324601210B4800F04EFB50
:10B4C0001128F8D020780028FCD070BD3246002129
:10B4D000054800F043FB1128F8D020780028FCD064
:10B4E00070BD0000332000208C0F020070B5114C9D
:10B4F000114D2146A060097800280DD000290AD1FD
:10B5000000226221286800F0A9FD002801D000F087
:10B51000FBFA0120207070BD0029FCD0074800789C
:10B520000028F8D104F07AFA286800F0DBFD00204A
:10B53000F0E7000038200020D00F02000420002097
:10B540000EB50BA0006800900AA0006801900AA048
:10B55000006802900221684603F05EFF022101A804
:10B5600003F05AFF022102A803F056FF0EBD0000AF
:10B5700010000000118000001061000000B524A040
:10B580008BB00068009023A00068019022A00068A2
:10B59000029022A00068039021A00068049021A0DE
:10B5A0000068059020A00068069020A00068079021
:10B5B0001FA0006808901FA000680990022168463B
:10B5C00003F012FF022101A803F00EFF022102A8DE
:10B5D00003F00AFF022103A803F006FF022104A8DA
:10B5E00003F002FF022105A803F0FEFE022106A8D7
:10B5F00003F0FAFE022107A803F0F6FE022108A8D4
:10B6000003F0F2FE022109A803F0EEFE0BB000BD2C
:10B610002A0000002B1000002C0000002D0000006C
:10B620002E0000000E00000015780000171F00001B
:10B63000180000002A2100008307FF22DB0E9A4039
:10B640008907090E994000280BDA0007000F083817
:10B65000830808489B001818C36993430B43C361D0
:10B660007047830804489B001B18186890430843E0
:10B670001860704700ED00E000E400E0F8B5FF203E
:10B68000013002F0ECF9002401250E4E0E4F002887
:10B6900007D00E4804600120B0607D70002001F0EA
:10B6A00023FBFF20053002F0DAF9002808D0074814
:10B6B000001D04600220B060BD70012001F014FB89
:10B6C000F8BD000000030040D82F0020000100401A
:10B6D00010B506490020086048608860C8600349CA
:10B6E00040390860486004F041FA10BD4011014043
:10B6F00070B5FF210C4809310A4C00254550214600
:10B7000004F074FA00280CD1042002F019FAA07E8B
:10B71000FF2801D003F012F8657625712168201DFD
:10B72000884770BD083000200030004010B5024945
:10B73000024801F0B1FE10BD4C3000200040004036
:10B740001FB50B486C460FC80FC410216846C17066
:10B75000162181701521417017210170054A694633
:10B76000054802F019FD002801D000F0CDF91FBDF9
:10B770002C12020079F801009420002010B504F08A
:10B7800067F910BD10B506484068002805D080470D
:10B79000002801D000F0B8F910BD01F01DFE10BD69
:10B7A0002021002010B501F001FF002805D01F491D
:10B7B0001D484860C8131E4988611E48018CC9B2E3
:10B7C00001290BD1828C120708D1028D1206120FAB
:10B7D000042A03D1828D1206120F0AD0012921D129
:10B7E000818C09071ED1018D0906090F0A2904D091
:10B7F00007E0114A01219160F5E7828D1206120FD0
:10B8000005D00D290ED1808D0006000F0AD10B48FE
:10B810000168012904D00A49016001680129FCD1AD
:10B82000C021416110BD0000DFFF07C000050040DE
:10B83000006C0040C00F00F00006004000EC064025
:10B840007593000010B504220249034801F004FE7C
:10B8500010BD0000283000200080004010B50422F8
:10B860000249034801F0F8FD10BD0000343000200B
:10B870000090004010B504220249034801F0ECFD9D
:10B8800010BD00004030002000A0004010B502496B
:10B89000024804F04AFC10BDEC2F002000200040BC
:10B8A00030B47446641E2578641CAB4200D21D4639
:10B8B000635D5B00E31830BC184702E008C8121F44
:10B8C00008C1002AFAD170477047002001E001C189
:10B8D000121F002AFBD17047202804DA0121814081
:10B8E0000348014201D0012070470020704700004A
:10B8F000FC06FFBCF7B584B0064600251788158006
:10B9000020300290407B1446002806D03A4621465B
:10B91000059800F039FE050009D1B078002823D041
:10B92000059886462088001DB84202D90C2007B031
:10B93000F0BD684679DF0028F9D1218803207246DE
:10B94000505420881921401C80B220801154208836
:10B950007146401C80B2208041186846008804F07F
:10B96000B5FD218840182080F078002817D0218864
:10B9700003230A46F356C91C0598B942D6D80221BA
:10B98000815421880122491C89B221804254218896
:10B99000491C89B2218043542088401C2080706853
:10B9A000002817D021880023C3560A46C91C0598D1
:10B9B000B942BBD80221815421880A22491C89B28C
:10B9C000218042542188491C89B221804354208817
:10B9D000401C2080308900280AD00094304601970E
:10B9E000062202210830059B04F0F0FD05009ED1DF
:10B9F000308A00280AD0009430460197072203219C
:10BA00001030059B04F0E2FD050090D1308B00283A
:10BA10000AD0009430460197152214211830059B56
:10BA200004F0D4FD050082D1306A002806D03B46E0
:10BA30002246059901F0C0F90500D8D1706A0028A6
:10BA400006D03B462246059901F024FF0500CED1E1
:10BA50000298007B002807D03B46224630460599D5
:10BA600003F016FD0500C2D13078002807D03B4610
:10BA700022463046059901F09BFF0500B7D12846C4
:10BA800055E70000174A0021535C002B01D001222A
:10BA900003E0491C0629F7D300221349012806D0E8
:10BAA00002280BD0032810D0042818D112E04878BF
:10BAB000002803D0002A01D0012070478878002890
:10BAC00003D0002A01D002207047C878002801D096
:10BAD000032070470879002801D004207047002017
:10BAE00070470000B5200020F02D0020BFF34F8FDD
:10BAF00004490348C860BFF34F8F00BFFDE7000053
:10BB00000400FA0500ED00E00EB50021029000915E
:10BB10006A4601910148FFF7E9FF0EBD01400000B0
:10BB200070B5054640680B4E0179715C0124FF2910
:10BB30000DD0FE290CD002F0FDFB01466868064BD3
:10BB4000007982009A58914202D1FF213154002499
:10BB5000204670BD162100202431002070B5044617
:10BB600000680D46008B642180B25043FFF7CEFA87
:10BB700082B22946204600F001F870BDF8B50D46A6
:10BB80000446174600680C212E4623224E43125CC1
:10BB90003118022A01D00820F8BD4968B94206D1FF
:10BBA000C16900293ED06068007988473AE02046A4
:10BBB000FFF7B6FF002801D01120F8BD61681A4ACE
:10BBC0000979FE20505423683A469E19776820462A
:10BBD0002946002F02D09E69B7420AD3002A02D01C
:10BBE0009B69934202D802F061FF0BE002F098FFDC
:10BBF00008E0002A01D0964202D803F01BF801E0C9
:10BC000003F09EF82068C06900280BD06168064ADE
:10BC1000097902204900D21C891848550221606820
:10BC200002F0BEFB0020F8BD16210020FFB581B058
:10BC300006460768029D0C2045432320C05DEC1991
:10BC4000002802D0082005B0F0BD002060600498F4
:10BC5000A0722C4800680090284631680A30085CC1
:10BC6000002808D0002069464870039802F05AF86E
:10BC7000002816D101E00120F5E70398785101274B
:10BC800003983D46854004991F48002901D0C560AE
:10BC900000E0856000256019083002F0F9F80028FE
:10BCA00001D00420CFE76D1CEDB2022DF3D3207A32
:10BCB00002F042F9607A02F03FF9206802F07EF863
:10BCC00005467068029902F05BFB237A01462A461A
:10BCD000184602F011F9206802F070F805460221BA
:10BCE000706802F04DFB0146607A2A4602F004F9C2
:10BCF000E7727168054A0979002049008A1802999B
:10BD00005054A0E7601202000005005019210020E5
:10BD1000F8B506460768406802F054FB02217068D7
:10BD200002F035FB002438192030007802F004F9C5
:10BD3000641CE4B2022CF6D3002420460C214843B4
:10BD4000C519E97A002912D031680A30085C002848
:10BD50001AD02978012088400E49C860286802F06E
:10BD600037F8287A02F0E8F8687A02F0E5F8641CFF
:10BD7000E4B2022CE1D370680021006802F0E0FD1B
:10BD800001202037F870F8BD287801218140014852
:10BD90008160E3E700050050F8B507680546002418
:10BDA0006A68204612790C2148435300174AC61985
:10BDB00000219A181155F17A00290DD029680A300E
:10BDC000085C002820D00021306802F029F8306893
:10BDD00002F00EF800207060641C022CE0D3696849
:10BDE0000A4AFF200979D21E505468680121006870
:10BDF00002F0A6FD686802F0AAFA686802F0EEFA9E
:10BE000002202037F870F8BD0121DDE7192100205C
:10BE1000F7B588B00E00054609D02C6820462030C2
:10BE20000690C078002804D008200BB0F0BD0B208D
:10BE3000FBE702F0A5F9002803D0852801D00420F3
:10BE4000F3E701F067FF002805D101F035FF002876
:10BE500001D00320E9E70698FF21017006984170A0
:10BE600006988170002007460C2141430B19DF72B0
:10BE7000FF221A725A720022D243401CC0B2625092
:10BE80000228F1D32046223002F006F9002806D11C
:10BE90000027E019203001F0FBFF002803D02846DE
:10BEA00002F082FDCBE77F1CFFB2022FF1D3002707
:10BEB000B8003258501C12D0F019037A394628467F
:10BEC000FFF7B4FE0490002804D0284602F06CFD71
:10BED0000498AAE7002239462846FFF74FFE7F1C48
:10BEE000FFB2022FE4D300200922244B316901E084
:10BEF0004908401C994201D99042F9D3204A51681F
:10BF00009268029201916946087168681D4A007939
:10BF1000029001A9686802F087FA070004D0284659
:10BF200002F042FD384680E7686805220068120288
:10BF30008018316900690E01C640A661686802F088
:10BF400006FA01270097042332460221686802F0AE
:10BF500053FA0221686802F01AFA0A98E0616868E8
:10BF600009490079094A80000D506968FF20097964
:10BF700050540698C770002057E70000FF0F0000DC
:10BF80006012020055EA0100303100201621002025
:10BF900070B5046805462034E078022802D00028F5
:10BFA00009D002E02846FFF7B3FE284602F0FCFC69
:10BFB0000020E07070BD082070BD0000094B5B6878
:10BFC000002B07D0002A07D0002805D00068037C8A
:10BFD000002B03D00820704707207047417442614E
:10BFE00000207047F8200020FFB507469007002585
:10BFF00081B01E461446002825D1002C23D003F022
:10C0000003F93046114EF06030461030057045702F
:10C010000299817044607560357001240C48757018
:10C020002405046003211420FFF706FB094804607F
:10C03000094CA76003211120FFF7FEFA6068B06089
:10C04000002005B0F0BD0720FBE70000E82000203D
:10C0500080E200E000E100E000150140FEB51F4B6A
:10C060005B68002B30D000282ED0052901D2072094
:10C07000FEBD4369002B27D0437C012B26D000272F
:10C08000029104460025694616460D70684600F088
:10C090003DF801A804F084FA002819D001210170AC
:10C0A0000F49446049688160029907614661C16037
:10C0B00068460A49007948706846007800F044F8FC
:10C0C00003F008FD2846FEBD0820FEBD0F46D7E759
:10C0D00068460425007800F037F8F3E7F8200020E0
:10C0E0000015014010B50849496800290AD0002808
:10C0F00008D04169002905D000210174022103F014
:10C1000011FD10BD082010BDF820002030B5EFF360
:10C11000108172B6094A54680123002C04D00370C0
:10C12000002900D162B630BD5360054B1D68054C37
:10C13000254015601C6000220270F1E70C210020F0
:10C1400080E100E0FC06FFBC08494A68002A0CD0E8
:10C1500000280AD1EFF3108072B60A68044B1A6007
:10C1600000224A60002800D162B670470C210020EE
:10C1700000E100E0800B01D00020704701207047F3
:10C18000F0B50C4693B01F216A46118007260027A0
:10C190009180002809D0C17849070DD502A9FFF781
:10C1A000A9FB002809D102AD01E000251780002C71
:10C1B0000ED0E078002802D0304613B0F0BD01AABE
:10C1C0000AA92046FFF796FB0028F6D10AAA02E04A
:10C1D00068460022878068468088C3B26846008827
:10C1E000C1B2284672DFE8E7FFB581B01E460A9F5C
:10C1F0001346040047D0002B45D0504D0120287035
:10C200000020E870202219464D48FEF7C5FF0020A7
:10C210006F61C0432E612881284607211830FEF740
:10C22000D4FF47483C212030FEF7CFFF4448217817
:10C2300020300170A1788170E178C170617841701F
:10C240003F4A656923695563114613632031E368EA
:10C25000A268CB608A603A49E369A269CB638A63CA
:10C26000616A00291AD001463C31024648324162D7
:10C270008A60636A1B880B80616A436A8988998037
:10C280000021436A07E00E2005B0F0BD656AAD6885
:10C290006D5C5554491C9D888D42F7D8A16A0029D0
:10C2A0001CD0274A943211460C398A608162A36AF5
:10C2B0009B888B80A16A836A098819800021836A20
:10C2C00004E0A56AAD686D5C5554491C9D888D429B
:10C2D000F7D82C210A5D1A4940310A73216A0029D6
:10C2E00009D016490A310162226A52884A80216ABD
:10C2F000026A098811806168002900D04160104AF3
:10C300000E490020B3322031C3001B1A85009B1850
:10C310000C68401C63510828F6DB094A0020EB3208
:10C32000030185009B188C68401C63510828F7DBCB
:10C33000034802992030FFF723FFA5E79C20002047
:10C34000F02D002010B50188134C102915D01129AB
:10C3500019D01B2910D1007A00280DD1E0780521D1
:10C36000401CFEF7D3FE084600F018F8002803D062
:10C370006169002900D0884710BD817D0129FBD16A
:10C380008088208110BD00216171808821898842C8
:10C39000F8D10120E8E700009C200020F1B53F4CD7
:10C3A00088B0207800280AD00898E07006A800F02D
:10C3B00043FE06980125002804D065706AE0082035
:10C3C00009B0F0BD3548002707211830FEF7FDFE03
:10C3D000334E7078002802D0E078012807D0B0787A
:10C3E00000280CD0E078012801D0022807D121696B
:10C3F000002903D025710820884700E0277108989C
:10C40000FFF740FBE0702169002909D0032801D023
:10C41000042805D13078002802D06079002811D096
:10C42000A77118216846FEF7D0FE684607700772AC
:10C43000E1781A480B001830FFF732FA052E080F82
:10C44000191D2000A57107208847EAE7A570019013
:10C45000684605704782078213E00221A1700190AF
:10C4600068460570B18941823189018209E06846D8
:10C4700003F056F802E0684603F07EF8E078002802
:10C4800003D0684673DF00289AD12169002901D0C2
:10C49000A0788847002093E7A770F6E79C2000204B
:10C4A000F02D002070B5054601461C220E48FEF70F
:10C4B00073FE0E4C002626702968002906D008223B
:10C4C000201DFEF769FE201D7ADF02E00748001DEF
:10C4D0007BDF002807D1401E60806670044A00217F
:10C4E0000448FFF76BFD70BDBC2F0020CC2000205E
:10C4F0003D0502003C120200F8B5214C01460288BD
:10C5000000261E48E589102A13D01E4F112A1FD07D
:10C51000122A2BD0502A1AD1881DC988A94216D1B7
:10C520004189022913D10C3000F0FCF800280CD10D
:10C5300012E08A8804464280104808220C301831E4
:10C54000FEF72AFE6670002D01D100F07DFCF8BDDB
:10C550000021C943418046703868FFF7C3FD0028B9
:10C56000F5D0A1690029F2D08847F8BD0348082218
:10C570000C300831FEF710FEE7E70000CC20002069
:10C58000BC2F00203C1202007CB5054608880C46F2
:10C590000930904201D90C207CBD684671DF00282B
:10C5A000FAD121880820685420881B21401C80B2C1
:10C5B00020802954208800A9401C80B22080401986
:10C5C00006220131FEF7E8FD20886946801D80B211
:10C5D00020800978002900D0012129542088401C9E
:10C5E000208000207CBD000010B50446FFF784FFCA
:10C5F0002146054800F03EF8204602F009F92046A1
:10C60000FFF7A0FE10BD00009822002030B5184BA7
:10C610000D4604000FCB85B003936B4607C324D0AF
:10C62000002D22D00020C043A0822868A0610020F5
:10C63000A0752146684663DF002814D1217868463A
:10C64000817401210182A21C04A90120A0DF00281D
:10C6500009D12946204602F02CFE002803D12946A4
:10C66000204603F016FD05B030BD0E20FBE70000AC
:10C670004012020010B500281BD0002919D00A88EA
:10C68000102A17D0112A17D0502A12D104468A1D19
:10C69000C888238A1231984202D15389022B0FD0C5
:10C6A000A388984205D1A369002B02D05289204665
:10C6B000984710BD898801E00021C943818210BDDF
:10C6C000084600F02FF8002800D00120A07510BD0A
:10C6D00007B584B000280DD0828A114B9A420BD046
:10C6E000827D002A08D06A46128B142A06D90720B8
:10C6F00007B000BD0E20FBE70820F9E700220092FA
:10C7000001920292039282896B461A80039106A9D4
:10C71000029101219970808A6946A6DFE8E700004E
:10C72000FFFF00004178027808021043C007C00FE5
:10C730007047000000B5174887B0006805900023D7
:10C740004822154905A803F05BF8002801D0FFF73F
:10C75000DBF96A460121002003F03AF8002801D0F5
:10C76000FFF7D2F9684603F029F8002801D0FFF757
:10C77000CBF90A4803F018F8002801D0FFF7C4F9F4
:10C78000074803F06FF8002801D0FFF7BDF907B0A4
:10C7900000BD0000B007020048210020E9C50100EB
:10C7A00049FA010008B500200246009007480649F2
:10C7B0000068FFF753FC0090002801D0FFF7A4F9B0
:10C7C00003490120087008BDD7030000800F020054
:10C7D0000020002038B50024064800940068FFF7C8
:10C7E00081FC0090002801D0FFF78EF90248047008
:10C7F00038BD0000800F02000020002010B5094C59
:10C80000607800280CD008480078002801D0052264
:10C8100000E00E2205490648FFF75AFF002060702D
:10C8200010BD00000820002002200020DB23002093
:10C8300098220020F0B5054687B000202A4E0090CF
:10C8400030782A4F0C46002812D03868FFF74AFC8F
:10C85000381DFFF75DFA032001F0BAFA381DFFF723
:10C8600097FB0590032001F034FF21490820C860A0
:10C87000002C10D0FF23610CE003F5330022C01818
:10C8800051415A000023FEF757FC01460022386848
:10C89000FFF7E4FB0590284616493238884220D835
:10C8A000124914220C316846FEF776FC01246846D2
:10C8B000049504720D48104A6946001DFFF7A8FA56
:10C8C00005900A48001DFFF767FA08483222002148
:10C8D000001DFFF743F91128F7D070780028FCD02D
:10C8E000347007B0F0BD000034200020A80F020013
:10C8F000000500501EC300003DEA010010B5642190
:10C900000E48FFF797FF642001F0E6F8EF2064215E
:10C91000C000FFF78FFF642001F0DEF864210848B3
:10C92000FFF788FF642001F0D7F864210548FFF77E
:10C9300081FF642001F0D0F810BD0000DF0B000083
:10C94000A70600004705000010B564210E48FFF758
:10C9500071FF642001F0C0F8FD206421C000FFF7E2
:10C9600069FF642001F0B8F864210848FFF762FF0E
:10C97000642001F0B1F864210548FFF75BFF6420F3
:10C9800001F0AAF810BD0000A6060000F70900009B
:10C99000E80E0000F0B591B055200690FF202D3034
:10C9A00000210490664D19206C42029405910C9070
:10C9B0000A95039409950846624A1154401C80B2B6
:10C9C0000628F9D3104603F0B3FE642001F06AF89C
:10C9D00002F0EAFB322001F065F8002602F050FB7D
:10C9E000314606225143584A00208F180F914300C8
:10C9F0005449401C13315A18517892780902114356
:10CA000080B2F9520328F2D3322001F04BF80C998E
:10CA10000498FEF77BFB01463046FEF777FB0029C2
:10CA200009D105980121084305900699FEF75EFD9E
:10CA300005984000059044480F99405EA84200DAEE
:10CA40000546A04200DD04460220385E0A9988426D
:10CA500000DA0A900399884200DD03900420385ED2
:10CA60000999884200DA09900299884200DD029013
:10CA7000AF21601B890040184900884247D90498BB
:10CA80004008B04243D22F4804210A38417061194E
:10CA9000CA0F51184910C1800A9A03998918CA0F00
:10CAA000511849100181099A02998918CA0F511821
:10CAB00049108180C1884900C180018949000181F4
:10CAC000818849008180C1880A0A1E490A70C3888A
:10CAD000FE2213404B7003891B0A8B70038913409D
:10CAE000CB7083881B0A0B7180881040487102F05C
:10CAF0005BFB144803F01CFE642000F0D3FF1148D8
:10CB000003F0E8FD02F050FB104806990BE0761C9C
:10CB10000498B6B2864200D260E70A4808210A3873
:10CB200041700B480699FEF7E1FC7D20C00000F043
:10CB3000B9FF00200699FEF7D9FC11B0F0BD000046
:10CB4000FD7F000062200020C826002000A22200F5
:10CB5000511115010022D243830004490428CA5010
:10CB600002D308182030027770470000743000208C
:10CB7000F0B50025ED43002A02D00023042601E091
:10CB8000042308260B4C04E09F00E7597F1C04D0C7
:10CB90005B1CB342F8D32846F0BD26185DB22036A0
:10CBA00035709E00A151002AF5D1E1182031087797
:10CBB000F1E70000743000200249091820200856CF
:10CBC000704700007430002000B50022104600F0CD
:10CBD000C5FA0349884200D10122104600BD000079
:10CBE00055555555002807D00449814204D80449B9
:10CBF000814201D901207047002070473821002070
:10CC00004821002070B5084C0025A078002803D0EA
:10CC100002F07EFEA57070BDE0780028FBD002F027
:10CC2000CBFEE57070BD0000E81F002010B5094C78
:10CC3000207900280DD0022802D0032805D102E077
:10CC4000FFF75CFE01E0FFF77FFE0020207103F09C
:10CC500065FC10BDE81F002010B57D20000100F02C
:10CC600007FF0D490D2002F0EDFF642000F000FFEA
:10CC700002F074F90948C178074821391138DE29D2
:10CC800005D2074942220A704A70002100E00121C2
:10CC9000817002F083F910BD19200020DB230020F1
:10CCA000ED1F002010B50D490D2002F0CBFF6420D0
:10CCB00000F0DEFE02F052F90948C1780748213938
:10CCC0001E38DE2905D2074942220A704A70002127
:10CCD00000E00121817002F061F910BD26200020E2
:10CCE000DB230020ED1F002070B5084C050009D0A3
:10CCF00010342168002907D0086820604968284658
:10CD00008847F6E70834F4E770BD0000D82F00200C
:10CD1000F8B52348416800293ED00E6821494C6887
:10CD200087688078E11B0D022D0AED1C002814D1C4
:10CD300001201D4A000450601B4A403A50601B49C4
:10CD4000400008601A4908601A49012008602F2035
:10CD500000F026FF124901208870B54200D2354606
:10CD6000E81900020F4B000A403318600D4A516861
:10CD7000001B091B0902090A0002000AC91C8142A2
:10CD800009D9506818602F2000F00AFF01200749D8
:10CD9000400480390860F8BD02F036FAF8BD0000A2
:10CDA000E8200020001501404013014080E200E02F
:10CDB00000E100E000100140F8B506461088144676
:10CDC0008446801D0D46984201D90C20F8BD32885A
:10CDD0000720062AFAD31927FF01184BBA4201D9B6
:10CDE0009A42F3D171880629F0D3B94201D9994208
:10CDF000ECD19A4203D0994201D08A42E6D805216B
:10CE00006046295420881221401C80B22080295479
:10CE10002088401C80B220804119308803F056FBE6
:10CE20002188401880B220804119708803F04EFBA1
:10CE30002188401820800020F8BD0000FFFF00007E
:10CE400010B5FEF761FE10BDF8B5164800F0A0FB66
:10CE5000144D00260C3D144C002807D061690029B0
:10CE60001CD001206A461070684616E02878002819
:10CE700005D06169002911D0684606700DE0687818
:10CE800000280DD0A168094800220068FFF7E6F8E5
:10CE9000002803D0A169002900D088472E70F8BD72
:10CEA0006168F0E7D8200020BC2F00203C1202006F
:10CEB000092801D8303000E03730C0B27047000098
:10CEC00010B50E4900230A784C78A24212D0521CA9
:10CED000D2B20A70022A00D10B700A78074B920076
:10CEE00018339A580260886810180002000A886097
:10CEF000012010BD0360002010BD0000E8200020CC
:10CF0000F8B506461C481F46007815460C46C00773
:10CF10000AD03046FFF766FE002807D0002C07D065
:10CF2000A00507D00620F8BD0120F8BD0220F8BDFD
:10CF30000320F8BD3068A04204D8A8027168001927
:10CF4000884201D90520F8BD002D10D0684601F0B7
:10CF500079FF00280DD000980221C0C00170A10106
:10CF6000090C8180058101F0BFFF0020F8BD04207D
:10CF7000F8BD0720F8BD000014210020002902D1CF
:10CF800001490020087070477C200020F0B5264839
:10CF9000264C001B0309264819464069421C03D150
:10CFA0000120000740698002224A12789646D20783
:10CFB0000CD00020F0BD1D4C15012C192568002D4A
:10CFC00003D06468002C00D0491E521C9A42F2D350
:10CFD000002420E0E2B2002594462A460FE0134EDA
:10CFE0001701BE193768002F02D07768002F05D1CE
:10CFF000767BAE4202D93546D6B2B446521C9A422E
:10D00000EDD362461501094AAA185060157BAD029E
:10D01000401B641C10608C42DCD306487146012220
:10D0200011430170C5E7000048210020382100208D
:10D030000010001014210020002804D00349496E7C
:10D04000016000207047032070470000BC300020C2
:10D05000F8B507461E481E46007815460C46C00720
:10D060000ED03846FFF7BEFD00280BD0002D0BD0A8
:10D07000002C09D028462043800707D00620F8BDA1
:10D080000120F8BD0220F8BD0320F8BD3868A04299
:10D0900004D8B10078680919884201D20520F8BD8A
:10D0A000002E11D0684601F0CDFE00280ED0009869
:10D0B00006990760416001210172C56004618682A2
:10D0C00001F012FF0020F8BD0420F8BD0720F8BDD4
:10D0D0001421002070B5174B0446186E18214843E0
:10D0E0001549C0180A78950715D5022C02D0032CD3
:10D0F0001CD102E001F0FAFB18E04A78521CD2B2CF
:10D100004A70032A12D900224A70082102F09CF9C1
:10D1100001F082FE0AE0500708D5FB2002400A70A9
:10D12000586E002802D0022002430A7001F0A6FEC9
:10D1300070BD0000BC3000201421002010B505494E
:10D14000012008700448002301220168FFF7D8FE7F
:10D1500010BD00007C200020382100200349800001
:10D16000096809580248416040687047382100202A
:10D170007C20002038B500236A461370074C01223A
:10D180002270074A00931268890051180246012351
:10D190000348FFF75DFF6A46107038BD7C20002011
:10D1A000382100200EB502F0B7FA69461120087246
:10D1B0000E48FEF715F882B20C4902A87CDF002861
:10D1C00001D0FEF7A1FC00200090102269460190DA
:10D1D0000A803C224A808880FF209130C8806846BF
:10D1E0007ADF002801D0FEF78FFC0EBDB4220020AC
:10D1F000FEB501A871DF6846C0790007000B0090FA
:10D20000684680790099000208430090684640799A
:10D210000099084300900107090FC0B24718114850
:10D22000009B009AC45D10489204920E047054183A
:10D230000E4A9B02155D45701B0E0D4D5E18A95DD3
:10D240008170641C02F002F8002809D00548C15D15
:10D25000054801700549095D4170A95D8170F1E7DC
:10D26000FEBD0000B4070200FC1F0020B40902004C
:10D27000B40B0200014980000858704718100200E2
:10D28000FEB500242646114D032701E0092C0BDAD8
:10D29000285D0122002311460097019601F0CAF98A
:10D2A000285D01F043FA0AE0285D01220096002380
:10D2B0001146019601F0BEF9285D01F02FFA641CB9
:10D2C0000C2CE3DB00F038F8FEBD0000D80F0200A4
:10D2D00008B500200090054A01210548FEF76EFEC2
:10D2E0000090002801D0FEF70FFC08BDFDC701002B
:10D2F000800F020010B50021112001F0E0F900219B
:10D300001A2001F0DCF910BD08B5032001F0E1F9A5
:10D3100006490820C860064A00210648FEF74EFE6E
:10D320000090002801D0FEF7EFFB08BD000500507B
:10D330007DD90100A80F020030B5074B0020074936
:10D340001C4619341D5C42008D54255C5218401C4B
:10D3500055701928F6DB30BDE40F0200702600205E
:10D3600010B5FFF78DFF0A4A01210A48FEF726FE95
:10D37000002801D0FEF7C8FB0648074A0121001D1E
:10D38000FEF71CFE002801D0FEF7BEFB10BD00001A
:10D3900041D90100D00F0200FDD8010010B5FFF700
:10D3A000A9FF00F005F8FEF7CBF8FEF7E7F810BD8F
:10D3B00010B502F0EFF902F0E7F902F0B1FC10BD90
:10D3C000044A00200146CA311154401CC0B2122840
:10D3D000F8D37047C8220020F8B51E4C20780028EA
:10D3E00036D0E068002600280CD0002560780028A0
:10D3F0002ED1684652DF052806D0002806D0FEF759
:10D4000083FB0BE00125F1E7012607E0009800F01F
:10D410001DFC2169002901D000988847002D13D1F7
:10D420006078002814D1608869460880A06861DFB0
:10D43000052804D0002804D0FEF766FB04E001258F
:10D4400002E0E168A0688847002ECFD0002DE5D02B
:10D45000F8BD000020210020F7B50025164604463F
:10D460002F4616E0A80001210904A940FF304130F1
:10D470002258002A0BD003221202A21852680A4234
:10D4800005D02750019A01991268496890476D1C90
:10D49000EDB2B542E6D3FEBD7FB50C460D46203554
:10D4A0000646697828780191009022462632D11EDE
:10D4B0003046E36902F0C5FC002819D1E87800285D
:10D4C0001DD1207B022801D0032818D12269E169EF
:10D4D000914214D16269E261E37B2B70217E89065F
:10D4E000C90F6970032804D03146204602F042FC7F
:10D4F0007FBD00913146204602F028FD7FBD2046C9
:10D500000C3007C801AB07C3E878002100280ED013
:10D510000920C0013218506C5064820701D50120E7
:10D5200002E0400705D502206A46107001E0684617
:10D5300001702971207E4007E0D422686846616846
:10D5400090477FBD0121814003484068014201D0DE
:10D550000120704700207047E02000200121814019
:10D5600003484078014201D00120704700207047F5
:10D57000E0200020014610B501208840FEF7FAFDAA
:10D5800010BD01218140880700D0012070470000B4
:10D59000418805480288914204D34088814201D8DD
:10D5A0000120704700207047D02000201048018CD7
:10D5B000C9B2012917D1818C090714D1018D09063F
:10D5C0000A0F03D1828D1206120F0ED0090F012906
:10D5D00003D1828D1206120F07D0032903D1808D4B
:10D5E0000006000F01D000207047012070470000A6
:10D5F000C00F00F001218140880400D00120704755
:10D60000F0B5284C2146103948688B682278864648
:10D610009C46CF78667836E0182353436168521CE5
:10D62000C918A378D2B2934200D100220B78022B02
:10D6300002D0032B27D123E003464D68194603E0AF
:10D64000A94204D00B46C96900291CD0F8E700297B
:10D6500019D08B4208D1C069002805D1124F01258D
:10D66000BD600025AC4601270D68C969D961002954
:10D6700009D00B685B190B6005E00174C06900E01C
:10D6800000210028F9D19642C6D1064962461039D8
:10D690008A604860CF70704501D00120F0BD002045
:10D6A000F0BD0000F820002000100140F8B52C4E1D
:10D6B000044670680025009041E0002C02D020460E
:10D6C000E46920E0264818231030017842684B4373
:10D6D000491CC9B2D21801708378994200D10570F3
:10D6E0001178506801292CD1017C002929D1916839
:10D6F0004160D16881601169C16051698161F178CF
:10D70000002900D045604368B268164F991A090293
:10D71000090AB94202D28268891806E0D11A0902C0
:10D720008268090A8A4202D9511A016000E0056044
:10D730004560012185600174C56102F0D3F9002CB8
:10D74000BBD107481030017840788142BAD1716866
:10D750000098814201D00120F8BD0020F8BD0000F2
:10D76000E8200020FFFF7F004349A8B0414808613E
:10D770000023424A0B211846FEF736FC002801D050
:10D78000FEF7C2F9FFF7C0FDFDF74CFEFFF718FEEC
:10D79000FFF7E6FDFFF79CFDFFF700FEFDF7D0FF6A
:10D7A000FFF75AFAFEF7C6FFFFF7FCFC344800907B
:10D7B000002469463348FEF729FF002801D0FEF710
:10D7C000A3F93C2101A8FDF700FD02216846017183
:10D7D00084710621C1713C2110A8FDF7F6FC0125DA
:10D7E00010A80582244820210C3015901FA8FDF7B1
:10D7F000ECFC18A8C5774020009423902494224B79
:10D800001FAA10A901A8FEF7EFFC002801D0FEF71F
:10D810007BF91C216846FDF7D8FC0520C003019068
:10D820000F20000402900094032168460173C48114
:10D83000047416480590164806906846FEF732FEB6
:10D84000002801D0FEF760F9FFF7D2FC02F076F86D
:10D8500002F05EF80320FEF7A1FD0090002801D041
:10D86000FEF752F902F0F6FCFFF7CCF9FFF7DEF90C
:10D87000F8E7000055555555E81F0020902100207D
:10D88000CDE70100982200200DE80100D9E8010051
:10D8900041CE010070B5144682880E4605462088A8
:10D8A000111D4118921C994201D8FE2A01D90C2061
:10D8B00070BD521C32542088FF21401C80B2208051
:10D8C00031542088401C80B220808119288802F0C1
:10D8D000FDFD2188401880B22080AA88002A09D046
:10D8E000A968002908D08019FDF756FC2088A9886E
:10D8F00040182080002070BD072070BD10B50D4875
:10D900000D4C0078002806D060780C49800008583B
:10D910005521FDF7EBFD6078401CC0B26070E178E6
:10D92000884206D300206070A078002801D102F060
:10D9300043F810BD0320002038200020D02500200F
:10D9400010B50D4C002060712179062902D0002904
:10D9500001D008E02071A068A061E169884202D08E
:10D9600001216171E06162792179A06901F02EFEE7
:10D970002079401C207110BD3820002010B50948C6
:10D98000FEF7C6F9032000F023FA0648FEF700FB75
:10D99000032000F09EFE04490820C86003490020CF
:10D9A000087010BDAC0F02000005005034200020AC
:10D9B000F8B50F46017814460546012902D168786A
:10D9C000002806D02088821C9A422DD8012902D036
:10D9D00006E00720F8BD69784118891C994223D8D0
:10D9E000181A801E86B2684606802188B81C08185E
:10D9F00069467DDF0028EDD12878022805D16946E7
:10DA00000988B14201D809210AE00821012805D17D
:10DA10006878B04202D86A46108001E06846068005
:10DA200068460088FE2801D90C20F8BD2288401CD9
:10DA3000B8542088401C80B2208039542088694620
:10DA4000401C20800988401820800020F8BDC208B2
:10DA500043075B0F0120895C984008407047012113
:10DA6000890740180068002800D001207047000096
:10DA70007D21C90048430FD00849094A096800BF01
:10DA800000BF00BF00BF00BF00BF00BF00BF91428A
:10DA900000D000BF0138F2D17047000034210020CF
:10DAA0000024F4007D21C90048430FD00849094AE9
:10DAB000096800BF00BF00BF00BF00BF00BF00BFBC
:10DAC00000BF914200D000BF0138F2D17047000082
:10DAD000342100200024F4007D21C90048430FD0E8
:10DAE0000849094A096800BF00BF00BF00BF00BF66
:10DAF00000BF00BF00BF914200D000BF0138F2D18B
:10DB000070470000342100200024F4007D21C9006A
:10DB100048430FD00849094A096800BF00BF00BF49
:10DB200000BF00BF00BF00BF00BF914200D000BFD8
:10DB30000138F2D170470000342100200024F400A5
:10DB400000280FD00849094A096800BF00BF00BF7C
:10DB500000BF00BF00BF00BF00BF914200D000BFA8
:10DB60000138F2D170470000342100200024F40075
:10DB700000280FD00849094A096800BF00BF00BF4C
:10DB800000BF00BF00BF00BF00BF914200D000BF78
:10DB90000138F2D170470000342100200024F40045
:10DBA00000280FD00849094A096800BF00BF00BF1C
:10DBB00000BF00BF00BF00BF00BF914200D000BF48
:10DBC0000138F2D170470000342100200024F40015
:10DBD00070B50E4C00252078002801D0852513E073
:10DBE0000021A16061602161E160094800680126AF
:10DBF000304002D1032100F02FF801F02DFE002863
:10DC000001D1044886612670284670BDD82F0020B7
:10DC100000E100E00005004038B5002069460870CA
:10DC20006846FEF773FA084C2078002801D1FFF708
:10DC3000CFFFE068401CE0600120A07068460078DB
:10DC4000FEF782FA38BD0000D82F002010B500285A
:10DC500001D1FFF749F810BD8207D30EFF229A4089
:10DC60008907090E10B5994000280BDA03071B0F2E
:10DC7000083B9C080C4BA400E318DC6994430C435C
:10DC8000DC6107E08408094BA400E418236893438F
:10DC90000B432360C106C90E012088400449086077
:10DCA0000449086010BD000000ED00E000E400E061
:10DCB00080E200E000E100E070B5144D2879002812
:10DCC00001D0082070BD114900204039421E0B18B8
:10DCD0002033401CC0B21A702028F8D300242046FC
:10DCE000FEF738FF641CE4B2082CF8D303210620A9
:10DCF000FFF7B2FFFF207D3000F044FD0120044912
:10DD0000C007486001202871002070BDB430002099
:10DD10000063004002480079002800D001207047CD
:10DD2000B4300020FEB5044620480D4600190026F8
:10DD300020308157491C01D0082633E0A9780029FA
:10DD40001DD0012200212046FEF712FF411C14D0F5
:10DD5000830017482A78181869780369154F3B40E3
:10DD600003610369E706FF0C9207920BC907C90A12
:10DD70003B430A431343036104E0042612E00121FC
:10DD8000C94301706A780120A0400B49012A0BD0D9
:10DD9000C860002100910B460122019120461146E6
:10DDA00000F070FC3046FEBD8860F2E77430002061
:10DDB00000650040FFE0ECFF0005005010B5FEF7E5
:10DDC000FBFE80060149000E401810BD00600040B7
:10DDD00005490918202008568100044808180169DF
:10DDE0008908890001617047743000200065004097
:10DDF00009490918202008568100084809180869AF
:10DE0000032210431F22120202430A6100BF00BF17
:10DE100000BF0861704700007430002000650040BA
:10DE2000002900D00121074A121820201056820034
:10DE300005481218106901231B059843090508437A
:10DE400010617047743000200065004010B5044632
:10DE500000F092FD00280DD02046FEF7ADFEC0B2C6
:10DE6000FEF778FE2046FEF7A7FE074A0021800055
:10DE700080180161054800210019C9432030017054
:10DE8000204600F013FC10BD0065004074300020F7
:10DE9000F1B50427164E82B00024002069460870B0
:10DEA0006846FEF733F90125A540354204D02046E7
:10DEB000FFF748FB00280CD068460078FEF744F9CD
:10DEC000002F04D0641CAE43E4B2002EE5D13846E6
:10DED000FEBD084901204A68A040104348600298EE
:10DEE0000027047068460078FEF72EF9EFE700007F
:10DEF000FF3F0000E0200020F8B514460D00074663
:10DF000012D0002C10D00026FFF774FB00280DD093
:10DF10003846FFF717FB00280AD00648F900081812
:10DF2000056144613046F8BD0E20F8BD0726F9E7CB
:10DF30000826F7E700F5014070B505460024FFF715
:10DF400019FB00280FD02846FFF754FB002804D007
:10DF50002846FFF7F7FA002807D001200449A84017
:10DF60008860204670BD0724FBE70824F9E700001D
:10DF700000F5014070B505460024FFF7FBFA0028C4
:10DF80000FD02846FFF736FB002804D02846FFF7BD
:10DF9000D9FA002807D001200449A840486020464B
:10DFA00070BD0724FBE70824F9E7000000F50140F5
:10DFB000F8B504460026FFF71DFB002812D0012506
:10DFC0000948A5408560002168460170FEF79EF86B
:10DFD00006484168A943416068460078FEF7B4F8F6
:10DFE0003046F8BD0726FBE700F50140E0200020A1
:10DFF000F8B506460D4600240846FFF7C2FA002889
:10E000001CD02846FFF7AAFA002815D03046FEF7A4
:10E01000B1F8002812D0002168460170FEF776F8AA
:10E020000748A90008180168314301606846007874
:10E03000FEF78AF82046F8BD0824FBE70724F9E735
:10E0400000F80140F8B506460D4600240846FFF7E3
:10E0500098FA00281CD02846FFF780FA002815D02F
:10E060003046FEF787F8002812D00021684601707C
:10E07000FEF74CF80748A90008180168B143016091
:10E0800068460078FEF760F82046F8BD0824FBE7F4
:10E090000724F9E700F80140F1B50427032682B010
:10E0A00000240020694608706846FEF72FF8012515
:10E0B000A540354204D02046FFF750FA00280CD086
:10E0C00068460078FEF740F8002F04D0641CAE4389
:10E0D000E4B2002EE5D13846FEBD074901204A785A
:10E0E000A0401043487002980027047068460078EA
:10E0F000FEF72AF8EFE70000E020002070B50546A3
:10E100000024FFF73EFA00280BD02846FFF726FA36
:10E11000002808D0054A0120E90089180860204637
:10E1200070BD0724FBE70824F9E7000000F0014078
:10E13000F8B504460025FFF724FA002800D107258A
:10E140002046FFF70BFA002814D00B490126E00007
:10E1500040184660002168460170FDF7D7FF074868
:10E16000A6404178B143417068460078FDF7ECFF66
:10E170002846F8BD0825FBE700F00140E02000201C
:10E1800004480178002901D08520704701210170E1
:10E1900000207047E0200020FEB5074640790C467D
:10E1A00041013F480E18307E002801D00820FEBDF6
:10E1B0003260207B0125012805D821782846884037
:10E1C0003849C86002E0207800F0B8FA2178364A71
:10E1D00001208900891808606578FF2D06D0314933
:10E1E000A840C860284600F07EFA01E00025ED4313
:10E1F000A078FF2808D0002300931A4619460193FF
:10E20000029000F02BFA02E00020C0430290E07878
:10E21000FF2804D000F092FAE07800F064FA7879F0
:10E22000E17842011E481018817639680520000205
:10E2300023780818029A8360C5600261A26842626E
:10E24000627B237B002A00D00122012B04D0022B09
:10E2500004D0032B06D103E0022302E0042300E0F4
:10E2600006231A4342657A79637955010C4AAA1844
:10E27000D3763268002A04D0032304221B02C91873
:10E280004A60012505603068002804D00420217907
:10E290003856FFF7E1FC002070763576FEBD0000B1
:10E2A0000830002000050050000700501FB5009105
:10E2B000069C029369460A710C73002200F002F872
:10E2C00004B010BDF8B50D464179184B4901C91885
:10E2D000002300934B7E002B01D01120F8BD0B686A
:10E2E000002B04D014231A4201D101234B76D8CD40
:10E2F0000831D8C14B79FD245B085B0023404B718A
:10E300008C781839103DFF2C03D00123A340084C12
:10E31000E360002A04D00020487606200090F8BD73
:10E3200000682A4601F0AEFA0098F8BD08300020D7
:10E330000005005015220068890092018918405894
:10E340007047026888004030C0B2101870470068FB
:10E350000121C160704770B5012424048C4003265C
:10E3600005683602AD19002B01D06C6000E0AC608E
:10E37000006889000818052109024018026470BD70
:10E3800002688800FF30413080B210187047026880
:10E390000120000488400321090251188860704759
:10E3A0008A0010B5FF324132036892B200249C50BB
:10E3B00002680120000488400321090251184860C6
:10E3C00010BD000002680121116100790C22504348
:10E3D000014A80180172704728300020016801222C
:10E3E0000A6000790C225043024A0221801801720F
:10E3F0007047000028300020F0B5FF250235046882
:10E400008D40FF34FF340234059E2768AF432760F8
:10E410000468FF34FF34023425681D432560334609
:10E42000FFF799FFF0BD000070B504460D46007976
:10E430000C21484322494618307A002801D0082090
:10E4400070BD002A05D03260686870600020034605
:10E4500008E0072070BD8100FF3122684131535030
:10E46000401CC0B261798142F5D82068E978000B80
:10E4700040B2FFF7F1FB05202168000209186A7815
:10E480004B68D2075B085B00D20F13434B602168D7
:10E49000AA7809188B6892079B089B00920F134378
:10E4A0008B60226829781018026909071209120185
:10E4B000090F0A43026101203072002070BD000084
:10E4C0002830002030B503460068C103C90E012082
:10E4D00088401049086019680020FF31C043FF31AF
:10E4E00002310A6800240C6003221968120289189C
:10E4F000886018790C21084D48434019007A022899
:10E5000002D11846FFF75EFF18790C2148434019E5
:10E51000047230BD80E100E028300020017928221B
:10E520005143054A0068891805221302C018026089
:10E5300002202031887070474C300020F8B5074623
:10E540000C460079282148431B4945182E462036A1
:10E55000B078002801D00820F8BD0CC50020286044
:10E5600070713071A07BF071607B083D002802D093
:10E57000204601F07FFB216810488A00104952189C
:10E5800010606268920051180860052338681B0209
:10E5900006CCC0188160C260216841622868083CCE
:10E5A000002805D03868217B000B40B2FFF754FBF0
:10E5B0000120B0700020F8BD4C3000200C06000097
:10E5C000000700503EB5074D2C68AD6800940295D9
:10E5D0006C466170A37001920022694600F016F843
:10E5E0003EBD0000501202003EB50025069C00957D
:10E5F00002956D466970AB700192002C01D020220B
:10E6000000E00022294600F001F83EBD70B50D463D
:10E61000017928235943064BCC18910701D00620D5
:10E6200070BD134601682A46204601F0DDFC70BD2E
:10E630004C30002070B552000A439900049D0A43F3
:10E640002902059E0A43310405240A432407800059
:10E650000721001909024018026070BD70B5520010
:10E660000A439900049D0A432902059E0A43310486
:10E6700005240A43240780000721001909024018D5
:10E68000026070BD70B552000A439900049D0A43B0
:10E690002902059E0A43310405240A432407800009
:10E6A0000721001909024018026070BD1CB5002145
:10E6B00000910B4601220191FFF7E4FF1CBD0522EA
:10E6C000120780008018072289001202801801605A
:10E6D00070470522120780008018072203211202CA
:10E6E0008018016070471CB5002100910B46012283
:10E6F00001911146FFF7B2FF1CBD052212078000F1
:10E700008218072000021018026803231B049A4392
:10E710000260026809040A430260704701218140D7
:10E720000148C16070470000000500500121814090
:10E7300001488160704700000005005001218140C0
:10E7400001488160704700000005005001218140B0
:10E7500001488160704700000005005038B5084B43
:10E7600005241B68009324026B46411805E08500D0
:10E770005D592D192D69401C20C28142F7D838BD42
:10E780005C1202000249401800210160704700003D
:10E7900000600040034940180068012800D00020B4
:10E7A00070470000006000404058002800D0012061
:10E7B00070474058002800D0012070470322120201
:10E7C00080184068084000D001207047F0B50D4B1C
:10E7D0005A811E780C4D0024AA55F02E0ED2701CC2
:10E7E000B61804E00F5D641C2F54E4B2401C86424E
:10E7F000F8D218788018401C1870F0BD00201870EE
:10E800005870F0BDE81F0020DC2200207047000097
:10E81000F0B5304D0446018802270126288989B0C9
:10E820003A2930D00CDC022931D0102912D011291C
:10E8300016D0132912D100231A4685217FDF1FE04D
:10E84000512928D0522917D0552907D1A088132142
:10E8500076DF15E0A08828812F71EE7009B0F0BD39
:10E860000020C0432881FDF7B5FF03202871AE705A
:10E87000F4E7FDF749F9F1E700231A461946A9DF45
:10E880000028F6D1EAE7A088132176DFF8E7A08810
:10E89000002167DFF4E71022A11D6846FCF77CFC2D
:10E8A000684601780029D9D0007A042803D00628C8
:10E8B00001D00528D2D10229684608D00674FF206D
:10E8C000833069468882A08804A9A8DFD8E7077446
:10E8D000F5E70000E81F00200078002803D1024877
:10E8E0003B21008976DF7047E81F002010B5134AEE
:10E8F00000215170017A012911D002290ED181899C
:10E90000491C8181C189491C89B2C181028A914215
:10E9100004D1002100F098FD00F07EFA10BD838A3A
:10E92000C28A991AFF2901DC89B201E0FF21013175
:10E93000511889B2C1829942EBD010BD1421002038
:10E94000074A904201D1074803E0074A904202D1AA
:10E950000648C1607047064A9042FBD10548F8E777
:10E9600000800040008C004000900040009C00406F
:10E9700000A0004000AC0040044908182021415686
:10E98000042901D201207047002070477430002014
:10E9900010B500680C2251430C18207AFFF7CCFA0E
:10E9A000607AFFF7C9FA10BDF1B582B00298002471
:10E9B0000568281920300078FF2801D0FFF7F8FA01
:10E9C000641CE4B2022CF4D32220405DFF2801D065
:10E9D000FFF7AEFB002420460C21484300264719D0
:10E9E0000090B8190190007AFF2804D0FFF7E0FAF0
:10E9F0000199FF200872761CF6B2022EF1D300981E
:10EA00002858411C05D0FFF721FA00210098C9437E
:10EA100029500020641CE4B2F872022CDBD3029867
:10EA20004068FFF74FFDFEBD10B504682034207824
:10EA3000FFF782FA6078FFF77FFA10BD01490120E5
:10EA40004870704734200020014901200870704749
:10EA500033200020F8B50D46124801270024490054
:10EA60000E18305D002806D0305D401E3055305DF8
:10EA700000280ED00027641CE4B2022CF1D3002F32
:10EA800006D00948A900405802214068FFF77FFCE2
:10EA9000F8BD0548A90040580068C1692846884764
:10EAA000E9E700001921002030310020FEB50C46B6
:10EAB00001680546009120460C21484300990190C9
:10EAC000471816462846FFF7AFFF21462846FFF7AE
:10EAD0005FFF01980A30002E09D000998969B14280
:10EAE0000FD88EB22968085C002804D005E0296898
:10EAF000085C002801D0002100E001213868FFF700
:10EB00008FF90023324621466868FFF724FC7E60B7
:10EB10006968024A0979FF205054FEBD1621002081
:10EB2000F7B582B00446056803980C21484347199D
:10EB30002035AE78039800902046FFF775FF2046F9
:10EB40000399FFF725FF00236068049A0099FFF7F7
:10EB500002FC31463348FFF775FA397A0120024644
:10EB60008A40797A884010433146FFF741FA796844
:10EB70002D48002933D0F1000E1802216068FFF7FC
:10EB8000FFFB014628783246FFF7B6F90023012241
:10EB900003216068FFF7DFFB6068002100798200D5
:10EBA0002248815003216068FFF7CBFB0646022113
:10EBB0006068FFF7E5FB014668783246FFF79CF98D
:10EBC0002878FFF7D7F96878FFF7D4F904987860C8
:10EBD0006168174A09790320505405B0F0BDF1006F
:10EBE0000E1860680399FFF7CBFB01462878324680
:10EBF000FFF782F900231A4603216068FFF7ABFB99
:10EC000060680399FFF796FB616809798A000749F4
:10EC1000885003216068FFF794FB064660680399FB
:10EC2000C7E70000FF3F000000F001402431002052
:10EC300016210020F7B5076882B0044603980C211E
:10EC40004843C2193D4620350092AE782046FFF772
:10EC5000EBFE31463648FFF7F5F9009A0121127AAA
:10EC600008469040009A527A914008433146FFF797
:10EC7000BFF904992F48002937D0398B89B2049104
:10EC8000F1000E1802216068FFF77AFB0146287830
:10EC90003246FFF731F90023012203216068FFF7B4
:10ECA0005AFB6068002100798200234881500321CB
:10ECB0006068FFF746FB064602216068FFF760FBCD
:10ECC000014668783246FFF717F92878FFF752F9BE
:10ECD0006878FFF74FF90099049848606168174A0F
:10ECE00009790320505405B0F0BDF1000E1860689A
:10ECF0000399FFF745FB014628783246FFF7FCF8F9
:10ED000000231A4603216068FFF725FB606803991A
:10ED1000FFF710FB616809798A00074988500321D1
:10ED20006068FFF70EFB064660680399C6E70000BF
:10ED3000FF3F000004F00140243100201621002094
:10ED4000F7B582B00546046803980C2148430719BB
:10ED50002034A6782846FFF767FE31462B48FFF798
:10ED600071F9227801210846904062789140084369
:10ED70003146FFF73DF968680399FFF7E2FA009022
:10ED800003216868FFF7FCFA01462078009AFFF734
:10ED9000B3F8686805210068090240180069000698
:10EDA000000E13D0002104980818796888420FD209
:10EDB0003868FFF703F8009003216868FFF7E0FA6E
:10EDC00001466078009AFFF797F807E00121EAE72B
:10EDD0006278012031469040FFF734F9049878605A
:10EDE000002368680321049AFFF7B5FA3046FFF75D
:10EDF00085F96968064A097904988900505069685C
:10EE0000044A09790398505405B0F0BDFF3F000053
:10EE100024310020162100200848416E491E416619
:10EE200004D10749FD230A781A400A70016E491C73
:10EE30000166042901D1002101667047BC30002021
:10EE40001421002070B50C490446486E042810D0E7
:10EE50000A6E1218042A00D3121F401C486618209C
:10EE60004243551801462846FCF7AFF901202560BA
:10EE700070BD002070BD0000BC30002010B51848E7
:10EE80001822016E51430C18406E00281FD0207AC2
:10EE9000012802D0022816D10FE0A18AE08A091ABF
:10EEA000FF2901DC8AB201E0FF220132E168800023
:10EEB00023690918181829DF01E0A08928DF112823
:10EEC00006D0002803D00921204600F0BDFA10BD6D
:10EED0000449FD220878104004221043087010BD38
:10EEE000BC3000201421002010B5054801784A07E5
:10EEF000920F04D1022211430170FFF7BFFF10BD32
:10EF00001421002010B50949086909698003C00F60
:10EF10000001074A074C4901C90FD37864784901B9
:10EF2000234308430343D37010BD00000005005085
:10EF3000EF2300205820002000B5074B0122104687
:10EF4000FEF70CF95100C9184039521CD2B2C887DB
:10EF5000042AF4D3004800BD88200020084A09494B
:10EF60000020135C0B54401C0428FADB064A0420E2
:10EF70001318203B1B7F0B54401C0E28F8DB7047F6
:10EF8000DC2D0020DB230020EF23002010B500F053
:10EF9000C1F800F075F801F088FB10BD10B5322003
:10EFA000FEF766FD0949042000F04CFE0A20FEF73A
:10EFB0005FFDFFF7D3FF06480449C078091F0870BA
:10EFC0003D38BD2801D20120087010BD0C20002062
:10EFD000DB23002030B50F4B104A187801070E488C
:10EFE0000FD501215C5C4518491CC9B2EC7006299B
:10EFF000F8D90421435C5354491CC9B20929F9D9F1
:10F0000030BD0421535C4354491CC9B20929F9D9C4
:10F0100030BD000075200020EF230020B526002021
:10F0200010B5144B00201978144A0C0712491AD550
:10F030004400E41864780C54401CC0B20328F7D391
:10F040000C48AA23143800781840012801D901235C
:10F0500000E00023CB7000200B5C1354401CC0B2B6
:10F060000328F9D910BD135C0B54401CC0B203280F
:10F07000F9D910BD6E200020EF230020A226002029
:10F080007CB50024214D01942C700126334601AA41
:10F090000E211F480096FFF7A7FA002801D0FCF7C1
:10F0A00033FD28780028FCD02C70184A07231D3225
:10F0B0000E211748FFF786FA002801D0FCF724FD3F
:10F0C00028780028FCD00F20694608712C70012395
:10F0D00001AA0E210E480096FFF786FA002801D0FB
:10F0E000FCF712FD28780028FCD02C70074A012379
:10F0F000D21C0E210648FFF765FA002801D0FCF764
:10F1000003FD28780028FCD07CBD0000582000209A
:10F11000141202007CB50024214D01942C700126AC
:10F12000334601AA1D211F480096FFF75DFA00280B
:10F1300001D0FCF7E9FC28780028FCD02C70184A94
:10F14000072316321D211748FFF73CFA002801D08B
:10F15000FCF7DAFC28780028FCD0162069460871F4
:10F160002C70012301AA1D210E480096FFF73CFADE
:10F17000002801D0FCF7C8FC28780028FCD02C70AF
:10F18000074A0123921C1D210648FFF71BFA00289D
:10F1900001D0FCF7B9FC28780028FCD07CBD000029
:10F1A00058200020141202007CB514A00068144CF2
:10F1B00000250190257001200346009001AA0E2130
:10F1C0001048FFF711FA002801D0FCF79DFC2078C9
:10F1D0000028FCD025700A4A062310320E21094867
:10F1E000FFF7F0F9002801D0FCF78EFC207800280A
:10F1F000FCD00520FEF756FC7CBD00000900000095
:10F20000582000201412020070B501240B4960043C
:10F2100008600B4940108860094940398860094DF1
:10F220006C602F20FEF7BCFCAC60074D00242F2043
:10F23000AC60FEF7B5FCAC7070BD000080E100E092
:10F240004013014000100140E8200020F0B50D4CB3
:10F250000D4B2546197899355A7800202F469B7812
:10F260009937265CB14207D12E5CB24204D13E5C94
:10F27000B34201D10120F0BD401C9928F1D30020F8
:10F28000F0BD0000B40D0200FC1F002030B5FF22CD
:10F290000523CD7D002409321B02C318002D8450A4
:10F2A000986905D04B7ECA68D054487E401C487689
:10F2B00030BD70B500240546601C90B00007000FFB
:10F2C00008A9103008940870601C0007000F103067
:10F2D00048708878F9263040801C88701C2101A86D
:10F2E000FBF773FF694608791021084369460871E6
:10F2F000029408A80494059407940690287808A915
:10F300008871032069468884112000940870487031
:10F310008878F7213040801C0840EF210840012602
:10F3200030436946887014210AA8FBF74EFF09A8EC
:10F330000A9068460B9069460E8614204C86888693
:10F340002B4668880C330AAA01A9A2DF10B070BD51
:10F350001FB501246B461C701972019206C86846DD
:10F3600090471FBD10B50446FCF7B6FA00280CD034
:10F37000A007C00E002C0ADA2107090F08398908F6
:10F38000144A89008918C96906E0134810BDA1080C
:10F39000124A890089180968C1400806800F0428AC
:10F3A00011D200280FD002280DD00D494B68E2067B
:10F3B000D20E01209040002B08D0620992008B5899
:10F3C00003438B5004E00448401C10BD054908600D
:10F3D000002010BD00ED00E00120000000E400E08E
:10F3E0000C21002000E100E038B5094C002121701B
:10F3F0000246009104231D210648FFF7F5F8002876
:10F4000001D0FCF781FB20780028FCD038BD00003B
:10F41000582000201412020038B5094C0022227036
:10F4200000920B4602460E210648FFF7DDF8002841
:10F4300001D0FCF769FB20780028FCD038BD000023
:10F4400058200020141202001FB5002200920192E1
:10F4500002920392037A012B02D0022B11D106E013
:10F460006B461A7002690292828A9A8109E001232E
:10F470006A4613708289C389D31A6A4613818389C5
:10F4800053814268019200688268684690471FBDB8
:10F49000FFB50746806A81B0144600283DD000259C
:10F4A00038462030009033E00C20B96A68430E18CB
:10F4B000B088801CFE2802D90C2005B0F0BD22883F
:10F4C0000299401C885420881622401C80B220805B
:10F4D00002990A542088401C80B220800299411869
:10F4E000308800F0F3FF2188401880B22080B28875
:10F4F000002A0AD0B16800290FD0029BC018FBF780
:10F500004BFE2088B188401820806D1C0098EDB219
:10F51000007BA842C8D80020CFE70720CDE7000035
:10F5200070B504461248134D018A2182818A618296
:10F530000078002818D06879002815D101F0BEF8AD
:10F54000002811D028462030E060022008492072AF
:10F5500004202031C870064800212030FCF710FE3E
:10F56000002804D1052000E00320A870002070BD11
:10F57000F02D00209C20002070B504461148042680
:10F58000018B2182818B618200780F4D002816D07B
:10F590006879002813D101F091F800280FD028468F
:10F5A0002030E06002202072064800212030C67022
:10F5B000FCF7E6FD002804D10620A87000E0AE703C
:10F5C000002070BDF02D00209C200020F8B54E4C8E
:10F5D0000023254628358E468446002A47D000273A
:10F5E0004A482246C7600761643A47619E005B1C37
:10F5F00039469751192BF9DB4348002350309E00C0
:10F60000A151A9515B1C81510A2BF8DB00216346F3
:10F61000CB40DB078E00DB0F491C93511929F6DB29
:10F620003B4600211E4638488A006438805801282D
:10F6300016D137484A00805C012804D0022806D041
:10F64000032808D00CE0B80021507F1C08E0B0006F
:10F650002950761C04E02C489A00503081505B1CE5
:10F66000491C1929DFDB2948C760066143617046E0
:10F67000284E0300FCF714F906044519452F4518D8
:10F680000D20FFF753F80025214F204C09E01E48BC
:10F69000A90040584000C0194078805DFFF73EF84F
:10F6A0006D1CE0688542F2DBF8BD0E20FFF73EF8E6
:10F6B0000024174F154D0AE01348A1002830405888
:10F6C0004000C0194078805DFFF728F8641C286965
:10F6D0008442F1DBF8BD0F20FFF728F800240C4F1F
:10F6E0000A4D0AE00848A100503040584000C019B7
:10F6F0004078805DFFF712F8641C68698442F1DB92
:10F70000F8BD00F08BF9F8BD582500203820002006
:10F7100070260020D70F02001CB5684671DF18481C
:10F72000184902780A70407848706846C078000727
:10F73000000FFDF7BDFB8870684680780009000166
:10F74000C8700009FDF7B4FBC870684680780007F0
:10F75000000FFDF7ADFB0871684640780009000115
:10F7600048710009FDF7A4FB48716846407800071E
:10F77000000FFDF79DFB88710020C8711CBD0000C3
:10F78000ED1F0020B422002010B501211B20FEF740
:10F7900096FF10BD10B501211C20FEF790FF01213E
:10F7A0001D20FEF78CFF10BD002803D00249C86061
:10F7B000002070470E207047202100201CB503490F
:10F7C00001910091694660DF1CBD0000E81F002028
:10F7D00070B50E460546144614211046FBF7F5FC9D
:10F7E0000120002120802161217326726572002D85
:10F7F00000D0A072002070BD10B5FCF777F910BDE5
:10F80000F8B5002903D08C070025002C01D0072073
:10F81000F8BD0E4E0E4FB1607280736039680124DE
:10F82000214003D00A49254680310C60094910DF88
:10F83000002803D0002DEBD03C60F8BD3470FEF7FB
:10F84000EBF91620FFF78EFDF8BD00002021002007
:10F8500000E100E0F9F7010001480078704700007E
:10F8600020210020002803D00249086100207047B1
:10F870000E207047202100200149012008707047A8
:10F8800001200020F8B50446164600200D460877F2
:10F89000032204211202A21800929160FF21093173
:10F8A00060500520FEF74CF93079002802D030680E
:10F8B000007800E0E87E052109026718F8613079D8
:10F8C000012805D96420FEF73BF93068407803E051
:10F8D000307B012801D9E87EF8612868002803D030
:10F8E000009904204860F8BDFF2609360027A0597A
:10F8F0000028FCD0A7512946204600F077F90028BF
:10F90000F5D1A87EFF28EED0FEF718FFF8BD000065
:10F9100010B507490020C8700421054800F0DCFD3F
:10F9200000F034F80349012088700349087010BDC5
:10F93000FC1F0020382000200320002010B50024E8
:10F94000FDF724FBFDF740F9002812D0FFF7F4FA89
:10F95000084A6100435A641C1B0A5354435C8918CB
:10F96000E4B24B70032CF4D3024800F0E1FEFFF741
:10F970001BFC10BD8E20002010B500F007F80249D6
:10F980000120087010BD00000320002010B50848B9
:10F99000002206494068FCF761FB002801D0FCF713
:10F9A000B3F804490120087010BD0000662600006D
:10F9B000D00F02000420002070B50D480D4C0078D7
:10F9C0000D4D002804D02068FCF78CFB606803E034
:10F9D0002878002802D02068FCF784FB0020074923
:10F9E00028700870A870687000F018F870BD0000EA
:10F9F00004200020D00F0200382000200320002027
:10FA000010B504490020087003484068FCF76AFB01
:10FA100010BD000004200020D00F020070B5094D79
:10FA20000024285DFEF782FE641CE4B2092CF8D3A2
:10FA30000924285DFEF772FE641CE4B20C2CF8D396
:10FA400070BD0000D80F020010B5FDF743FB10BDDC
:10FA5000FEB51F4C0025A768606802906846FDF758
:10FA60002FFA0190FDF7CCFD06460198002822D020
:10FA700000230098616817E00E680A46864202D9A2
:10FA8000301A086012E0801BF31800261660D66852
:10FA9000D169B446002E07D0FE183602360A5660E9
:10FAA00066469660D56115460029E5D12846616015
:10FAB000FDF7FCFD06E02846FDF7F8FD002801D122
:10FAC000002E02D00298FDF723F90020E070FEBD61
:10FAD000E82000200120024900050860704700006E
:10FAE00000E200E010B50E4B5968002906D002680C
:10FAF0000C68A24204D8A21A0A60C161586010BD05
:10FB00000B4604E00B46C969121B002904D00C689F
:10FB10009442F7D3A41A0C600260C161D86110BD91
:10FB2000E82000207CB50D460646002469460C708E
:10FB30006846FCF7EBFA01A800F032FD00280DD072
:10FB40000570466068460849007948706846007844
:10FB5000FCF7FAFAFFF7BEFF20467CBD6846042496
:10FB60000078FCF7F1FAF7E7F8200020F8B51D4D12
:10FB70006C68002C34D01C4800274068A968401AE3
:10FB80000602360A2068B04218D8361AC71922462B
:10FB9000107CE46900280FD000201074EB68002B63
:10FBA00007D0916950699847002805D0FBF7ACFF52
:10FBB00002E0516990698847002CE3D12978687880
:10FBC000814206D1401CC0B26870022801D10020D9
:10FBD000687004490006800D18310F50FFF77AFF56
:10FBE000F8BD0000E820002000150140F8B50C46E3
:10FBF000052109024618B06969460870207F217DF9
:10FC0000884203D26946097822691154207F401C3A
:10FC1000C0B22077217B451CA94205D96420FDF79D
:10FC20008FFFA068405D03E0227DAA4202D9E07EFA
:10FC3000F06103E0884201D3904201D20120F8BD77
:10FC40000020F8BD38B50D4604460749002008706D
:10FC500021460648FBF7B9FAE2B2044B29460448AC
:10FC60000092FEF723FB38BD01200020DC2D002090
:10FC700094200020F8B504462168224D89002048D0
:10FC80004919086061688900491908602068FEF711
:10FC90005DFD6068FEF75AFD19482168401C890027
:10FCA0004919086061688900491908600420FDF756
:10FCB0005FFF0026144F012521793869C840C0072D
:10FCC000C00F02D0002E19D00FE0217828468840BE
:10FCD000F8600420FDF74CFF2068FEF737FD042094
:10FCE000FDF746FF761C092EE6DB20798540FD6096
:10FCF0000420FDF73DFF6068FEF728FDF8BD000019
:10FD00000C06000000070050000500500078002895
:10FD100002D10249012008707047000058200020DD
:10FD20001FB50A4B6C460FCB0FC408480023084A86
:10FD300069460838FEF702FC002801D0FBF7E4FE14
:10FD400002480838FEF7EAFB1FBD00001C12020043
:10FD50000DFD010001460320CA0701D041204002E9
:10FD60008A0700D50248490701D50148401C704761
:10FD700001820000FFB50C4685B000210491FF21EF
:10FD8000053100261F466650FF2125316650FF21B0
:10FD90001D316650FF210931665005462035E11DB1
:10FDA000FF31AE71FA31EE70012F0FD001220A60DF
:10FDB0000121216221600168002909D01449816074
:10FDC000806803210902611848601DE00222EEE705
:10FDD0000146263123300391029000970196204678
:10FDE000079B039A029900F02CF80028F5D1E878D7
:10FDF000002809D00920C0012118486C4864002857
:10FE000002D0FFF7A7FF0490049809B0F0BD0000EE
:10FE10008602000030B51C78039D944208D205226A
:10FE20001202095D8018C1611878401C187006E044
:10FE30000121002D02D0C161002030BD41610120AF
:10FE400030BDFFB50F46097883B00446002904D1C0
:10FE5000059802780C98824201D1012000E0002030
:10FE60000190FF2025300025002907D02550FF20D4
:10FE70001D302550FF200930255055E0FF21253148
:10FE80002046FEF791FC012600282CD1FF211D31D0
:10FE90002046FEF789FC002814D0FF201D30255095
:10FEA000FF2125312046FEF77FFC00281BD10D984D
:10FEB00000902046059B0C9A0699FFF7ABFF00289F
:10FEC0003FD031E0FF2109312046FEF76DFC0028CC
:10FED0002AD0FF2009302550FF2125312046FEF78A
:10FEE00063FC002805D0FF202530255066613E7058
:10FEF0001AE005990C980F78069ABC46874213D2EF
:10FF000005231B02E3189B696746D3550A78521CE8
:10FF1000D2B20A70411E8A4203D102200102085166
:10FF200001E0824200D02662019800280BD0FF2613
:10FF3000053631462046FEF737FC002803D0A55190
:10FF4000002007B0F0BD0120FBE70000FFB505462B
:10FF500087B00C460020FF21109F053105906050AE
:10FF6000FF2125316050FF211D316050FF210931F3
:10FF70006050012149022E4608512036B071F070C0
:10FF800001202062A060B31D0097029320460A9AC8
:10FF90000999FFF73FFF2868002807D01148A8609B
:10FFA000A868032109026118486018E023350A98FF
:10FFB0000090019729462046099B029AFFF741FFCE
:10FFC0000028F4D1F078002809D00920C0012118B8
:10FFD000486C4864002802D0FFF7BCFE05900598E5
:10FFE0000BB0F0BD86020000F8B5044600250320E2
:10FFF000ED43000208188560254620352E79002E35
:020000040002F8
:1000000003D0A16841601120F8BD5807C017401CFB
:100010002871180701D50620F8BDA361C1CA0C34A8
:10002000C1C40C3A9078287050680B266060F601C5
:1000300050788E19B06010780026183C01280ED038
:10004000002801D1980601D5012000E00020687049
:100050000090937852682046FFF778FF05E06E70B5
:10006000937852682046FFF785FE21680029D3D196
:100070002E71F8BDFF221D32002383508B8A8A68BF
:10008000D25C8B8A5B1C8B82052109024018C261FD
:10009000704770B58EB005461C216846FBF795F891
:1000A000694608780C2108436946087000240194C9
:1000B0000394049405940694287808A98870022073
:1000C00069460884601C0007000F10300794087709
:1000D00011204877887FF9210840F721801C0840CB
:1000E000EF2108400126304369468877142109A88A
:1000F000FBF76BF808A8099007A80A9069468E8557
:100100001420CC85088668882B1D09AAA2DF0EB0B2
:1001100070BD1FB500226B461A701972816801917B
:10012000827506C8684690471FBDF0B50C46012190
:1001300085B005464902FEF741FB032109026F180D
:100140000026002826D0FF2125312846FEF731FB66
:1001500000281FD0FF2025302E5081208000B8605D
:10016000A07E002801D1012068600221684601704C
:100170000920C0012918086808600390E17D6846DD
:100180000172E0680190E675267606CC6846083C68
:1001900090472DE004212846FEF710FB002827D0C9
:1001A000FF2109312846FEF704FB002820D0214614
:1001B0002846FFF76BF8E07D617E884218D1207EEB
:1001C000002807D0617EE268E0752069E06026764D
:1001D00066760AE0A07E002801D1012068608120B7
:1001E0008000B860E675617EE2682046FFF7B0F8EF
:1001F000FF271D3739462846FEF7DBFA00280FD0C7
:10020000A08AA17D884204D221462846FFF732FF0A
:1002100006E0EE51A17D002902D02046FFF779FFCC
:10022000FF27453739462846FEF7C3FA00280ED087
:10023000EE51A07E002801D001202860E07D00283A
:1002400005D0E675617EE2682046FFF781F805B0CB
:10025000F0BD0000F8B590480026007832468F497E
:100260000B7801278E4C3546984278D08D4F087810
:100270003B5C087805E08B490F5C8B498F54521C1E
:10028000D2B28649401C0978C0B2C9188142F2D264
:1002900082480178C918491C0170834A1078CA281D
:1002A00010D062282DD0CC2837D0C12869D0C228E0
:1002B0006AD0CB286DD0CD287ED0CF287DD0CE2857
:1002C0007CD06EE0507B0090D07B147C0002044315
:1002D000507C977C00020743967B0120FDF7C8FB0A
:1002E00071490D20FFF7AEFC32200099FBF7D6F8DC
:1002F00031463320FBF7D2F8002F59D0204639463B
:100300006BE05078672802D0732803D050E0FCF7E8
:1003100049FA4DE0FCF75EFA4AE05078C10913D083
:1003200002202823115CC4001C1BA140401C0E436A
:10033000C0B20628F6D35D480570FFF761FB552172
:100340003046FBF7D3F833E0002809D0C106C90EC8
:100350002ED040062CD5544B0020143308E053E037
:10036000FFF72AFB24E01418A4781C54401CC0B2E8
:100370008842F8D34C48143000F0AEF8FFF7FCFA8E
:1003800016E05178322001E051783320FBF786F8EF
:100390000EE04748057000210846FCF74BFAFFF7CE
:1003A0000BFB0120FDF764FB3F490420FFF74AFCEB
:1003B0003A480278384902E007E011E021E00B7882
:1003C0009A4201D105700D70F8BD50780102907805
:1003D0000843D1780B0211791943FCF72BFAE7E7B0
:1003E00034A0006800902078694688700322324863
:1003F000FCF76EF90828DBD00028D9D0FBF784FB86
:10040000D6E7FCF7C7FAD3E72948007800280DD0D3
:100410000A20FDF72DFB224904200C31FFF712FCC6
:10042000FEF7B4FDFEF79AFD6770F8BD234F002676
:100430003220FDF71DFB1A4904200C31FFF702FCA6
:10044000FEF7A4FDFEF78AFD1D48A168C07840189C
:10045000A060E178491CC9B2E1706429E5D1FAF7DE
:1004600055FEA060E570FA2800D90126A0788642E2
:100470000FD055213846FBF739F8FA20FDF7F8FA86
:10048000BFF34F8F10490F48C860BFF34F8F00BFB5
:10049000FDE7A560F8BD0000E81F0020E91F00206F
:1004A00008200020DC22002024240020042000203A
:1004B0000020002001010000982200205555550120
:1004C000DB2300200400FA0500ED00E00870000ABC
:1004D000487002207047000070B500220C460646A6
:1004E00015460C4B09E0B05CFCF7C4FE0146D00099
:1004F0001950C018521CD2B24560A242F3D3E0009A
:100500001D50C018456060000349801CC8704D70C4
:1005100070BD0000D02500203820002008B5FCF771
:10052000C1FBFFF7F9F80448FAF75AFE82B2024914
:1005300068467CDF08BD0000B422002038B51549AC
:10054000154A488890420FD04A78144C521CD2B2B7
:100550004A70237B934208D3091D75DF002803D01E
:10056000A169002900D0884738BD00254D70217C45
:10057000002907D03B2176DF002803D0A16900299C
:1005800000D0884761690029EED068460570884729
:1005900038BD0000CC200020FFFF0000BC2F002051
:1005A00010B509494B788C785A1CD2B2944200D1CC
:1005B00000220C78944201D1002010BD02704868DE
:1005C00018214B43C01810BDF8200020FFB583B0A0
:1005D00016460C9D0D9C1F4602220095019403981F
:1005E00000F00CF8002807D13B4610223146009558
:1005F0000194039800F002F807B0F0BDFFB583B096
:10060000074600200C9C8646268805463AE0786816
:10061000A90042181188684681805188C180002253
:10062000694601A865DF002839D168460178059838
:10063000814226D17046002801D0002200E002222B
:100640002088891842180D998A4227D871460029B6
:100650000AD1401C80B22080069A04991154208847
:10066000401C208001208646218806980A18694689
:1006700001A865DF002812D1694620880978401852
:1006800020806D1C3888A842C1DC704600280AD042
:100690002088801B401E80B2FF2802D90C2007B0A2
:1006A000F0BD069988550020F9E700B5FEF7B8FCC3
:1006B000FEF790FCFEF726FC00BD0000044801791F
:1006C000002902D1007B002800D0012070470000E3
:1006D000BC20002070B50546FCF730FD0A20FDF770
:1006E00015FA00211048FCF745FD0A20FDF70EFA27
:1006F0000E4E012460004219203A907F0102A000B2
:1007000080190346803BD967D27F001F1143D96708
:100710002146FCF72FFD0A20FDF7F8F9641CE4B22E
:10072000042CE7D370BD000084200020D02D0020D1
:100730007FB51AA109681AA2039106CA0191029213
:10074000027869464A7142788A718278CA71C278A1
:100750000A7202794A724079134C8872002525701A
:10076000072301AA0E2111480095FDF73DFF00283F
:1007700001D0FBF7C9F920780028FCD025700223AE
:1007800003AA0E2109480095FDF72EFF002801D08D
:10079000FBF7BAF920780028FCD07FBD118000005B
:1007A0000900000000000000582000201412020080
:1007B0000010020741414141414141414142424211
:1007C0004242424242424242424242434343434304
:1007D00043434343434343434343434343434344E8
:1007E00044444444444444444444444545454545C4
:1007F000454545454646464646464646464646469D
:10080000464646464747474747474747474747477C
:100810004747474747474747474747484848484863
:100820004848484848484848494949494949494940
:100830004949494949494A4A4A4A4A4A4C4C4C4C16
:100840004C4C4C4C4C4C4C4C4C4C4D4D4D4D4D4DE2
:100850004D4D4D4D4D4D4D4D4D4D4D4E4E4E4F4FC1
:10086000505050505050505050515151525252527D
:10087000525252525253535353535353535353534D
:100880005353535353535353535353535353535338
:100890005353535353535353535454545454545421
:1008A00054545454545555565656565657575757F0
:1008B0005757595A414141414141414141424242C8
:1008C0004242424242424242424242434343434303
:1008D00043434343434343434343434343434344E7
:1008E00044444444444444444444444545454545C3
:1008F000454545454646464646464646464646469C
:10090000464646464747474747474747474747477B
:100910004747474747474747474747484848484862
:10092000484848484848484849494949494949493F
:100930004949494949494A4A4A4A4A4A4C4C4C4C15
:100940004C4C4C4C4C4C4C4C4C4C4D4D4D4D4D4DE1
:100950004D4D4D4D4D4D4D4D4D4D4D4E4E4E4F4FC0
:10096000505050505050505050515151525252527C
:10097000525252525253535353535353535353534C
:100980005353535353535353535353535353535337
:100990005353535353535353535454545454545420
:1009A00054545454545555565656565657575757EF
:1009B0005757595A414141414142424243434343BF
:1009C000434343444445464646474747494A4A4CC1
:1009D0004C4C4C4D4D4D4D4E4F4F4F4F4F50505036
:1009E00050505152525252535353535353535454E1
:1009F0005454565941414141414242424343434389
:100A0000434343444445464646474747494A4A4C80
:100A10004C4C4C4D4D4D4D4E4F4F4F4F4F505050F5
:100A200050505152525252535353535353535454A0
:100A30005454565941414141414242424343434348
:100A4000434343444445464646474747494A4A4C40
:100A50004C4C4C4D4D4D4D4E4F4F4F4F4F505050B5
:100A60005050515252525253535353535353545460
:100A70005454565941414141414242424343434308
:100A8000434343444445464646474747494A4A4C00
:100A90004C4C4C4D4D4D4D4E4F4F4F4F4F50505075
:100AA0005050515252525253535353535353545420
:100AB00054545659414141414142424243434343C8
:100AC000434343444445464646474747494A4A4CC0
