:020000040001F9
:10B00000703D0020D5B00100EFB00100F1B00100AB
:10B010000000000000000000000000000000000030
:10B02000000000000000000000000000F3B001007C
:10B030000000000000000000F5B00100F7B00100C2
:10B0400085B70100F9B0010021BB010081B9010001
:10B05000BDB901000000000025B30100ADB2010040
:10B06000D9BA0100F1BA010009BB0100F9B0010031
:10B07000F9B00100F9B00100F9B00100F9B0010028
:10B08000F9B0010061B90100F9B00100F9B00100A7
:10B0900011BA0100F9B0010019BA0100F9B00100BC
:10B0A000F9B00100F9B0010000000000000000004C
:10B0B0000000000000000000000000000000000090
:10B0C0000348854600F0B4F80048004721E301003A
:10B0D000703D00200321094802680A4302600848C5
:10B0E00002680A4302600748804707480047FEE7B6
:10B0F000FEE7FEE7FEE7FEE7FEE70000240500406E
:10B100005405004039BA0100C1B0010030B50B460A
:10B11000014600202022012409E00D46D5409D4231
:10B1200005D31D469540491B2546954040191546B7
:10B13000521E002DF1DC30BDF0B51FB406460020D4
:10B1400082B005464024019100901BE001992246FF
:10B150000F46304600F05BF8049A059B801A99412F
:10B1600010D310461946224600F041F8361A8F4196
:10B170000197224601200021009F00F038F838187E
:10B180004D4100902046641E0028DFDC019B0098A2
:10B190002946324607B0F0BD03460B439B0703D058
:10B1A00009E008C9121F08C0042AFAD203E00B788C
:10B1B0000370401C491C521EF9D27047D2B201E004
:10B1C0000270401C491EFBD270470022F6E710B502
:10B1D00013460A4604461946FFF7F0FF204610BD05
:10B1E000421C0178401C0029FBD1801A704710B521
:10B1F000202A04DB0146203A9140002010BD9140F6
:10B2000020239C1A0346E3401943904010BD10B51B
:10B21000202A04DB0846203AD040002110BD0B460E
:10B22000D340D0402024A21A91400843194610BDB3
:10B23000064C0125064E05E0E36807CC2B430C3C89
:10B2400098471034B442F7D3FFF73EFF382E020080
:10B25000582E020070B58C180578401C6B075B0FE8
:10B2600001D10378401C2A1106D10278401C03E06A
:10B2700006780E70401C491C5B1EF9D12B0705D4C3
:10B280000023521E0DD40B70491CFAE70378401CB2
:10B29000CB1A921C03E01D780D70491C5B1C521EDA
:10B2A000F9D5A142D8D3002070BD0000FEB5134CE3
:10B2B0000026E0680125124F002810D000F0B0FCF5
:10B2C00000280BD00120B86068460670E068019045
:10B2D000217C68460181A57421688847FEBD094824
:10B2E00006600120B8600848066069460D708068F5
:10B2F0008880A57468462168EFE700007434002058
:10B3000000730040007100400075004010B501F06E
:10B3100035FD02F0F3FC05F003FD00F0ADFD02F099
:10B32000D3FA10BDF0B50024FF268BB001360125FD
:10B3300027460694304604F05FFB002807D05448A7
:10B340004068284203D0304604F04EFB2C43361DA3
:10B350006D007F1CB6B2042FECD3FF257D35284647
:10B3600004F04AFB002809D0284604F03DFB68079A
:10B37000044306AA0121002004F022FB454D2007CA
:10B3800014D00127002627420CD04348B2001118E0
:10B3900008690969C004C00E8903AA58890F002AE8
:10B3A00000D090477F00761C042EECD3002C6DDA81
:10B3B00000200890401E63E0281940300778B90645
:10B3C000890E009100214156491C49D009A90098D5
:10B3D00003F046FA002843D0B8090190009801F024
:10B3E00081FF80002F580198002F02D0032802D03F
:10B3F0000DE0032834D1009808ABC20841079446F9
:10B40000985C490F01228A40104362469854009884
:10B41000052109078000401807210902401800682B
:10B4200006A98003800F0290009803F019FA002803
:10B43000029802D0022802D012E0032810D101980D
:10B44000032808D1029802281ED00221009804F097
:10B4500085FA761CF6B2002F02D001990098B84701
:10B46000641C042CA8D3002E10D06A4601210020B1
:10B4700004F0A6FA06990098884207D0069008982A
:10B4800000263446099097E70321DFE70BB0F0BDB3
:10B4900000630040883400200065004030B587B06C
:10B4A00014221A496846FFF777FE012069460872A0
:10B4B00048721648164A303800F0EAFE0590002817
:10B4C00001D000F017FD1148303800F0A5FE00242F
:10B4D000684604800F4D2C700C480022114630380D
:10B4E00000F07AFD1128F7D028780028FCD02C70C5
:10B4F000064800220121303800F06EFD1128F7D0F7
:10B5000028780028FCD007B030BD0000B425020028
:10B510006DFC01007C20002070B50546114C002018
:10B52000207064204843FF21FFF7F0FDC6B2322DA2
:10B530000CD0332D09D1324601210B4800F04CFDCF
:10B540001128F8D020780028FCD070BD32460021A8
:10B55000054800F041FD1128F8D020780028FCD0E3
:10B5600070BD00007C2000208425020070B5114CC5
:10B57000114D2146A060097800280DD000290AD17C
:10B5800000226221286800F0A9FF002801D000F005
:10B59000B1FC0120207070BD0029FCD00748007864
:10B5A0000028F8D105F0CAFE286800F0DBFF002073
:10B5B000F0E700005C20002038230200ED1F00208F
:10B5C0000EB50BA0006800900AA0006801900AA0C8
:10B5D000006802900221684605F006FB022101A8DE
:10B5E00005F002FB022102A805F0FEFA0EBD0000E4
:10B5F0001000000011800000106100000EB50BA0CB
:10B60000006800900AA0006801900AA000680290FB
:10B610000221684605F000FB022101A805F0FCFAB2
:10B62000022102A805F0F8FA0EBD0000600000003B
:10B63000610200006208000000B524A08BB0006821
:10B64000009023A00068019022A00068029022A030
:10B650000068039021A00068049021A00068059074
:10B6600020A00068069020A0006807901FA0006836
:10B6700008901FA0006809900221684605F082FA30
:10B68000022101A805F07EFA022102A805F07AFA4B
:10B69000022103A805F076FA022104A805F072FA47
:10B6A000022105A805F06EFA022106A805F06AFA43
:10B6B000022107A805F066FA022108A805F062FA3F
:10B6C000022109A805F05EFA0BB000BD2A000000B7
:10B6D0002B1000002C0000002D0000002E000000A8
:10B6E0000E00000015780000171F00001800000071
:10B6F0002A2100001FB50EA0006800900DA0006870
:10B7000001900DA0006802900CA000680390022137
:10B7100002A805F04FFA0221684605F04BFA022113
:10B7200001A805F047FA022103A805F043FA1FBD5E
:10B73000238000003250000020270000302A000043
:10B740008307FF22DB0E9A408907090E99400028E3
:10B750000BDA0007000F0838830808489B00181808
:10B76000C36993430B43C3617047830804489B003C
:10B770001B181868904308431860704700ED00E0FC
:10B7800000E400E0F8B5FF20013003F071F8002478
:10B7900001250E4E0E4F002807D00E4804600120F0
:10B7A000B0607D70002001F0CFFFFF20053003F076
:10B7B0005FF8002808D00748001D04600220B06030
:10B7C000BD70012001F0C0FFF8BD00000003004083
:10B7D000D83300200001004030B585B00D46044646
:10B7E000142214496846FFF7D7FC012069460094EB
:10B7F00008721048104A1C3800F04AFD0D481C38E9
:10B8000000F00AFD0D4C00202070284664214843BA
:10B81000FF21FFF77BFC054606482A4600211C381D
:10B8200000F0DAFB1128F7D020780028FCD005B012
:10B8300030BD0000A02502006DFC01007C2000202E
:10B84000F0B585B016460F4604461D4614221E4923
:10B850006846FFF7A1FC0120694601970094087231
:10B8600048721948194A083800F012FD164808387D
:10B8700000F0D2FC164C0027277030466421484364
:10B88000FF21FFF743FC06460F48324600210838E7
:10B8900000F0A2FB1128F7D020780028FCD02770F8
:10B8A000284664214843FF21FFF730FC054606483F
:10B8B0002A460121083800F08FFB1128F7D02078A4
:10B8C0000028FCD005B0F0BD8C2502006DFC010005
:10B8D0007C20002030B56421484385B0FF21FFF76C
:10B8E00015FC0546142210496846FFF755FC012057
:10B8F000694608720C480D4A083800F0C9FC0A482D
:10B90000083800F089FC0A4C0020207006482A46BE
:10B910000021083800F060FB1128F7D020780028BB
:10B92000FCD005B030BD0000F8220200B1FC0100DF
:10B930004320002010B5FFF74FFF10BD10B5054C98
:10B940000121E37EE27B0220FFF77AFFE078FFF738
:10B95000C1FF10BD9425002010B5FFF771FF10BD89
:10B9600010B506490020086048608860C860034937
:10B9700040390860486005F089FD10BD4011014064
:10B9800070B5FF210C4809310A4C0025455021466D
:10B9900005F0BCFD00280CD1042003F027F8A07EA0
:10B9A000FF2801D003F0FCFF657625712168201D7A
:10B9B000884770BD083400200030004010B50249AF
:10B9C000024802F045FB10BD4C340020004000400E
:10B9D0001FB50C486C460FC80FC410216846C170D3
:10B9E000162181701521417017210170064A6946A0
:10B9F000064803F03DFB002801D000F07BFA02F07E
:10BA0000F1F91FBDE825020071110200802000201D
:10BA100010B505F0ADFC10BD10B506484068002813
:10BA200005D08047002801D000F064FA10BD02F074
:10BA3000AFFA10BD4821002010B502F093FB00289A
:10BA400005D01F491D484860C8131E4988611E481B
:10BA5000018CC9B201290BD1828C120708D1028D49
:10BA60001206120F042A03D1828D1206120F0AD079
:10BA7000012921D1818C09071ED1018D0906090FE9
:10BA80000A2904D007E0114A01219160F5E7828D6F
:10BA90001206120F05D00D290ED1808D0006000F61
:10BAA0000AD10B480168012904D00A4901600168E4
:10BAB0000129FCD1C021416110BD0000DFFF07C09A
:10BAC00000050040006C0040C00F00F00006004080
:10BAD00000EC06407593000010B5042202490348AB
:10BAE00002F096FA10BD00002834002000800040CB
:10BAF00010B504220249034802F08AFA10BD000082
:10BB0000343400200090004010B50422024903485C
:10BB100002F07EFA10BD00004034002000A000407A
:10BB200010B50249024806F027F810BDEC3300209A
:10BB30000020004010B501F0B3F905F0BFFB084943
:10BB40000120087007490320087007490020087089
:10BB5000032000F047FF002801D000F0CBF910BD12
:10BB6000EA1F0020F61F0020F01F002000B58BB058
:10BB700018220C496846FFF70FFBFF2101310A48E4
:10BB8000069040180791099108900323074A06A9D7
:10BB9000684600F025FD002801D000F0ABF90BB09D
:10BBA00000BD0000FC250200192800204D1A0200EB
:10BBB00010B50321192003F0A0FEFFF7D7FF0321E2
:10BBC000192003F09AFE01F005FF10BD30B4744651
:10BBD000641E2578641CAB4200D21D46635D5B0089
:10BBE000E31830BC184702E008C8121F08C1002A39
:10BBF000FAD170477047002001E001C1121F002AEE
:10BC0000FBD17047202804DA01218140034801421A
:10BC100001D001207047002070470000FC06FFBCE7
:10BC200070B514490020124B0860134908608C68F5
:10BC30001248427CC5685600521CAC53D2B24274C2
:10BC4000047CA24212D2846800226468002C0AD0CC
:10BC5000012284602068486001200860002A00D02A
:10BC60001860002070BD44688460F3E7012070BD57
:10BC700000700040007100400075004074340020E6
:10BC8000F7B584B00646002517881580203002904D
:10BC9000407B1446002806D03A462146059800F01D
:10BCA00097FF050009D1B078002823D00598864673
:10BCB0002088001DB84202D90C2007B0F0BD6846AC
:10BCC00079DF0028F9D1218803207246505420885A
:10BCD0001921401C80B22080115420887146401CDC
:10BCE00080B2208041186846008806F065F92188F6
:10BCF00040182080F078002817D0218803230A46B6
:10BD0000F356C91C0598B942D6D80221815421881E
:10BD10000122491C89B2218042542188491C89B2E0
:10BD2000218043542088401C20807068002817D050
:10BD300021880023C3560A46C91C0598B942BBD8BE
:10BD40000221815421880A22491C89B2218042544F
:10BD50002188491C89B2218043542088401C2080BE
:10BD6000308900280AD0009430460197062202212B
:10BD70000830059B06F0A0F905009ED1308A002806
:10BD80000AD0009430460197072203211030059B0A
:10BD900006F092F9050090D1308B00280AD000946B
:10BDA00030460197152214211830059B06F084F9BE
:10BDB000050082D1306A002806D03B46224605990C
:10BDC00001F03AFD0500D8D1706A002806D03B4644
:10BDD0002246059902F0DAFA0500CED10298007BDE
:10BDE000002807D03B4622463046059904F050FF14
:10BDF0000500C2D13078002807D03B4622463046A5
:10BE0000059902F097FC0500B7D1284655E70000D8
:10BE1000174A0021535C002B01D0012203E0491C8A
:10BE20000629F7D300221349012806D002280BD097
:10BE3000032810D0042818D112E04878002803D035
:10BE4000002A01D0012070478878002803D0002AFA
:10BE500001D002207047C878002801D00320704725
:10BE60000879002801D004207047002070470000A6
:10BE7000CD200020F031002030B5A7B03C2101A832
:10BE8000FFF7A3F90221684601710024847106219D
:10BE9000C1713C2110A8FFF798F9012510A805826F
:10BEA0000B48159020211FA8FFF78FF918A8C57718
:10BEB0004020009423902494064B1FAA10A901A8A7
:10BEC00000F0B6FC002801D000F014F827B030BD17
:10BED000922000207DFA0100BFF34F8F04490348F0
:10BEE000C860BFF34F8F00BFFDE700000400FA05F4
:10BEF00000ED00E00EB50021029000916A4601912C
:10BF00000148FFF7E9FF0EBD01400000C1688160F4
:10BF10000020704710B58268C368934203D001F0D7
:10BF200085FD002010BD052010BD002906D0002A87
:10BF300002D0531E134203D0092070470E207047D1
:10BF40000160838000218160C1600846704710B5A0
:10BF50008268C3689A1A83889A4203D801F070FDF8
:10BF6000002010BD042010BD10B5034800F010F9EA
:10BF7000014800F04DFA10BD8425020010B50648B6
:10BF8000006800F0EFFA0448001D00F001F90248D3
:10BF9000001D00F03DFA10BDEC22020070B5054610
:10BFA00040680B4E0179715C0124FF290DD0FE29F8
:10BFB0000CD003F02BF901466868064B007982002B
:10BFC0009A58914202D1FF2131540024204670BD7D
:10BFD0003E2100205835002070B5044600680D460B
:10BFE000008B642180B25043FFF790F882B229465B
:10BFF000204600F001F870BDF8B50D46044617461E
:10C0000000680C212E4623224E43125C3118022A6E
:10C0100001D00820F8BD4968B94206D1C16900299C
:10C020003FD06068007988473BE02046FFF7B6FFC5
:10C03000002802D0606803F0F6F861681A4A0979AE
:10C04000FE20505423683A469E19776820462946B8
:10C05000002F02D09E69B7420AD3002A02D09B6902
:10C06000934202D803F0ACFE0BE003F0E3FE08E0DD
:10C07000002A01D0964202D803F066FF01E003F0E7
:10C08000E9FF2068C06900280BD06168064A097979
:10C0900002204900D21C891848550221606803F02B
:10C0A000EBF80020F8BD00003E210020FFB581B074
:10C0B00006460768029D0C2045432320C05DEC190D
:10C0C000002802D0082005B0F0BD00206060049870
:10C0D000A0722C4800680090284631680A30085C3D
:10C0E000002808D0002069464870039802F086FDB9
:10C0F000002816D101E00120F5E7039878510127C7
:10C1000003983D46854004991F48002901D0C56029
:10C1100000E0856000256019083002F025FE002847
:10C1200001D00420CFE76D1CEDB2022DF3D3207AAD
:10C1300002F06EFE607A02F06BFE206802F0AAFD4B
:10C1400005467068029903F087F8237A01462A466B
:10C15000184602F03DFE206802F09CFD05460221D3
:10C16000706803F079F80146607A2A4602F030FEE2
:10C17000E7727168054A0979002049008A18029916
:10C180005054A0E72C2E0200000500504121002051
:10C19000F8B506460768406803F080F80221706829
:10C1A00003F061F8002438192030007802F030FEE6
:10C1B000641CE4B2022CF6D3002420460C21484330
:10C1C000C519E97A002912D031680A30085C0028C4
:10C1D0001AD02978012088400E49C860286802F0EA
:10C1E00063FD287A02F014FE687A02F011FE641CE6
:10C1F000E4B2022CE1D370680021006803F0E8FC8F
:10C2000001202037F870F8BD2878012181400148CD
:10C210008160E3E700050050F8B507680546002493
:10C220006A68204612790C2148435300174AC61900
:10C2300000219A181155F17A00290DD029680A3089
:10C24000085C002820D00021306802F055FD3068DD
:10C2500002F03AFD00207060641C022CE0D3696893
:10C260000A4AFF200979D21E5054686801210068EB
:10C2700003F0AEFC686802F0D6FF686803F01AF8B5
:10C2800002202037F870F8BD0121DDE741210020B0
:10C29000F7B588B00E00054609D02C68204620303E
:10C2A0000690C078002804D008200BB0F0BD0B2009
:10C2B000FBE702F0D1FE002803D0852801D004203E
:10C2C000F3E702F093FC002805D102F061FC00289E
:10C2D00001D00320E9E70698FF210170069841701C
:10C2E00006988170002007460C2141430B19DF722C
:10C2F000FF221A725A720022D243401CC0B262500E
:10C300000228F1D32046223002F032FE002806D166
:10C310000027E019203002F027FD002803D028462E
:10C3200003F0D8FCCBE77F1CFFB2022FF1D300272C
:10C33000B8003258501C12D0F019037A39462846FA
:10C34000FFF7B4FE0490002804D0284603F0C2FC96
:10C350000498AAE7002239462846FFF74DFE7F1CC5
:10C36000FFB2022FE4D300200922244B316901E0FF
:10C370004908401C994201D99042F9D3204A51689A
:10C380009268029201916946087168681D4A0079B5
:10C39000029001A9686802F0B3FF070004D02846A4
:10C3A00003F098FC384680E76868052200681202AE
:10C3B0008018316900690E01C640A661686802F004
:10C3C00032FF01270097042332460221686802F0F9
:10C3D0007FFF0221686802F046FF0A98E061686802
:10C3E00009490079094A80000D506968FF200979E0
:10C3F00050540698C770002057E70000FF0F000058
:10C400002C2E020069FD0100643500203E21002031
:10C4100070B5046805462034E078022802D0002870
:10C4200009D002E02846FFF7B3FE284603F052FC8D
:10C430000020E07070BD082070BD0000094B5B68F3
:10C44000002B07D0002A07D0002805D00068037C05
:10C45000002B03D0082070470720704741744261C9
:10C460000020704710210020FFB5074690070025E7
:10C4700081B01E461446002825D1002C23D004F09C
:10C4800055FA3046114EF060304610300570457058
:10C490000299817044607560357001240C48757094
:10C4A0002405046003211420FFF74AF909480460B9
:10C4B000094CA76003211120FFF742F96068B060C2
:10C4C000002005B0F0BD0720FBE7000000210020A0
:10C4D00080E200E000E100E000150140FEB51F4BE6
:10C4E0005B68002B30D000282ED0052901D2072010
:10C4F000FEBD4369002B27D0437C012B26D00027AB
:10C50000029104460025694616460D70684600F003
:10C51000DFF801A805F0BAFD002819D0012101704B
:10C520000F49446049688160029907614661C160B2
:10C5300068460A49007948706846007800F0E6F8D5
:10C5400004F058FF2846FEBD0820FEBD0F46D7E781
:10C5500068460425007800F0D9F8F3E710210020A0
:10C560000015014010B50849496800290AD0002883
:10C5700008D04169002905D000210174022104F08E
:10C5800061FF10BD082010BD1021002010B5054826
:10C59000FFF7BCFC002803D102481030FFF7B6FCBF
:10C5A00010BD0000D034002070B50B4D0146AE78B0
:10C5B0000A48FFF7AFFC0446002E0AD00020A870FE
:10C5C000691C0122C81D03F031F8002801D0FFF7D3
:10C5D00091FC204670BD000020210020D0340020B6
:10C5E000F0B5274E89B01F460D00044672601CD07E
:10C5F000A888296882B22348FFF797FC002815D144
:10C60000A889A96882B21F481030FFF78EFC002865
:10C610000CD120221C496846FEF7BEFD60690690D9
:10C62000207C002804D0012103E0072009B0F0BDE0
:10C630000021684601750777607C002800D00E2035
:10C6400069464875E0680290A068039020680190F0
:10C65000606800900A480D4A083002F0A7FF0028E1
:10C66000E4D1B0702068401CE0D00548083003F0E9
:10C670000BF803490122491CC81D02F0D7FFD5E77A
:10C6800020210020D03400200C2E0200D11A0200FC
:10C6900010B501460C48FFF75AFC040012D10B48B4
:10C6A00003F0BCF800280DD1084907480839FFF706
:10C6B00031FC002806D1054901220839034803F05E
:10C6C0004DF80446204610BDE0340020282100200B
:10C6D00030B5EFF3108172B6094A54680123002C7B
:10C6E00004D00370002900D162B630BD5360054B01
:10C6F0001D68054C254015601C6000220270F1E7A2
:10C700003421002080E100E0FC06FFBC08494A68B3
:10C71000002A0CD000280AD1EFF3108072B60A6804
:10C72000044B1A6000224A60002800D162B67047AC
:10C730003421002000E100E0F8B5074608680C4607
:10C740000526411C01253602002906D029468140D4
:10C7500019488160206803F0EDF86068411C02D040
:10C76000002103F0D4F83968A06989194862607D16
:10C77000217D3A6808439119C866386806CC80194B
:10C780004261C160207B083C012814D1A068411C93
:10C7900002D0002103F0BBF8E068411C05D08540C1
:10C7A00005488560E06803F0C5F83A68E1689219C9
:10C7B000A06891601061F8BD00050050800B01D0A9
:10C7C0000020704701207047F0B50C4693B01F2140
:10C7D0006A461180072600279180002809D0C17879
:10C7E00049070DD502A9FFF74BFA002809D102AD80
:10C7F00001E000251780002C0ED0E078002802D040
:10C80000304613B0F0BD01AA0AA92046FFF738FA56
:10C810000028F6D10AAA02E068460022878068460E
:10C820008088C3B268460088C1B2284672DFE8E754
:10C83000FFB581B01E460A9F1346040047D0002B67
:10C8400045D0504D012028700020E8702022194664
:10C850004D48FEF7A1FC00206F61C0432E61288186
:10C86000284607211830FEF7B0FC47483C2120300D
:10C87000FEF7ABFC4448217820300170A17881702C
:10C88000E178C170617841703F4A656923695563F9
:10C89000114613632031E368A268CB608A603A498D
:10C8A000E369A269CB638A63616A00291AD00146F1
:10C8B0003C310246483241628A60636A1B880B80C1
:10C8C000616A436A898899800021436A07E00E20E3
:10C8D00005B0F0BD656AAD686D5C5554491C9D8816
:10C8E0008D42F7D8A16A00291CD0274A94321146FC
:10C8F0000C398A608162A36A9B888B80A16A836AF3
:10C90000098819800021836A04E0A56AAD686D5C1E
:10C910005554491C9D888D42F7D82C210A5D1A492F
:10C9200040310A73216A002909D016490A3101628F
:10C93000226A52884A80216A026A098811806168E5
:10C94000002900D04160104A0E490020B332203146
:10C95000C3001B1A85009B180C68401C63510828F3
:10C96000F6DB094A0020EB32030185009B188C6836
:10C97000401C63510828F7DB034802992030FFF779
:10C9800023FFA5E7B4200020F031002010B5018876
:10C99000134C102915D0112919D01B2910D1007A58
:10C9A00000280DD1E0780521401CFEF7AFFB0846BA
:10C9B00000F018F8002803D06169002900D08847EA
:10C9C00010BD817D0129FBD18088208110BD00210F
:10C9D0006171808821898842F8D10120E8E7000050
:10C9E000B4200020F1B53F4C88B0207800280AD050
:10C9F0000898E07006A801F0CFF8069801250028F5
:10CA000004D065706AE0082009B0F0BD3548002701
:10CA100007211830FEF7D9FB334E7078002802D07A
:10CA2000E078012807D0B07800280CD0E078012801
:10CA300001D0022807D12169002903D025710820DF
:10CA4000884700E027710898FFF7E2F9E070216954
:10CA5000002909D0032801D0042805D13078002806
:10CA600002D06079002811D0A77118216846FEF71E
:10CA7000ACFB684607700772E1781A480B00183063
:10CA8000FFF7A4F8052E080F191D2000A571072037
:10CA90008847EAE7A57001906846057047820782DB
:10CAA00013E00221A170019068460570B1894182AE
:10CAB0003189018209E0684604F0A2F902E0684683
:10CAC00004F0CAF9E078002803D0684673DF002834
:10CAD0009AD12169002901D0A0788847002093E7E6
:10CAE000A770F6E7B4200020F031002070B50546AD
:10CAF00001461C220E48FEF74FFB0E4C0026267006
:10CB00002968002906D00822201DFEF745FB201DBC
:10CB10007ADF02E00748001D7BDF002807D1401EB6
:10CB200060806670044A00210448FFF787FC70BDEE
:10CB3000BC330020E420002029200200E82D020060
:10CB4000F8B5214C0146028800261E48E589102AC6
:10CB500013D01E4F112A1FD0122A2BD0502A1AD1BF
:10CB6000881DC988A94216D14189022913D10C30E8
:10CB700000F0FCF800280CD112E08A8804464280BC
:10CB8000104808220C301831FEF706FB6670002DA5
:10CB900001D100F0BDFEF8BD0021C94341804670BF
:10CBA0003868FFF7DFFC0028F5D0A1690029F2D032
:10CBB0008847F8BD034808220C300831FEF7ECFA2C
:10CBC000E7E70000E4200020BC330020E82D02004D
:10CBD0007CB5054608880C460930904201D90C20E6
:10CBE0007CBD684671DF0028FAD12188082068548E
:10CBF00020881B21401C80B220802954208800A955
:10CC0000401C80B22080401906220131FEF7C4FA90
:10CC100020886946801D80B220800978002900D0D4
:10CC2000012129542088401C208000207CBD000068
:10CC300010B50446FFF784FF2146054800F03EF892
:10CC4000204602F01DFF2046FFF7A0FE10BD0000A9
:10CC5000A422002030B5184B0D4604000FCB85B040
:10CC600003936B4607C324D0002D22D00020C0437D
:10CC7000A0822868A0610020A0752146684663DF75
:10CC8000002814D121786846817401210182A21CF8
:10CC900004A90120A0DF002809D12946204603F07D
:10CCA0009AFE002803D12946204604F082FE05B0F2
:10CCB00030BD0E20FBE70000EC2D020010B500286F
:10CCC0001BD0002919D00A88102A17D0112A17D092
:10CCD000502A12D104468A1DC888238A12319842EC
:10CCE00002D15389022B0FD0A388984205D1A369A2
:10CCF000002B02D052892046984710BD898801E058
:10CD00000021C943818210BD084600F02FF8002899
:10CD100000D00120A07510BD07B584B000280DD04B
:10CD2000828A114B9A420BD0827D002A08D06A4633
:10CD3000128B142A06D9072007B000BD0E20FBE78E
:10CD40000820F9E700220092019202920392828960
:10CD50006B461A80039106A9029101219970808A7D
:10CD60006946A6DFE8E70000FFFF0000417802788F
:10CD700008021043C007C00F7047000000B51748F5
:10CD800087B00068059000234822154905A804F0E3
:10CD9000B3F9002801D0FFF7ADF86A460121002061
:10CDA00004F092F9002801D0FFF7A4F8684604F0D7
:10CDB00081F9002801D0FFF79DF80A4804F070F9C6
:10CDC000002801D0FFF796F8074804F0C7F90028BB
:10CDD00001D0FFF78FF807B000BD00001826020051
:10CDE000782A002031CC01006913020008B5002028
:10CDF00002460090074806490068FFF76FFB009065
:10CE0000002801D0FFF776F803490120087008BD1B
:10CE1000D7030000E8220200EE1F002038B50024EE
:10CE2000064800940068FFF79DFB0090002801D0A1
:10CE3000FFF760F80248047038BD0000E8220200E5
:10CE4000EE1F002010B5064C6078002806D00E2298
:10CE500004490548FFF760FF0020607010BD000026
:10CE600014200020D4220020A42200200149012007
:10CE7000087070478820002008B500200246009006
:10CE8000064805490068FFF729FB0090002801D0FB
:10CE9000FFF730F808BD0000D70300001426020099
:10CEA00008B50020009005480068FFF75BFB009084
:10CEB000002801D0FFF71EF808BD0000142602006C
:10CEC000F0B587B000262D4F0546009638780C4601
:10CED000002815D02A480068FFF744FB2848001DA9
:10CEE000FFF756F9032001F0DFFE2548001DFFF78C
:10CEF0008FFA0590032002F013FD22490820C86034
:10CF0000002C11D0FF23610CE003F5330022C01880
:10CF100051415A000023FEF70FF90146184800223C
:10CF20000068FFF7DBFA0590284617493238884237
:10CF300022D8164C26701249142220316846FEF77A
:10CF40002BF904950125684605720D48104A69467B
:10CF5000001DFFF79DF905900948001DFFF75CF9DA
:10CF6000074832220021001DFFF736F81128F7D0BC
:10CF700020780028FCD03D7007B0F0BDF81F0020DD
:10CF8000EC220200000500501EC3000043200020D8
:10CF9000B1FC010010B564210E48FFF791FF642039
:10CFA00001F0BCFCEF206421C000FFF789FF642082
:10CFB00001F0B4FC64210848FFF782FF642001F00F
:10CFC000ADFC64210548FFF77BFF642001F0A6FC5F
:10CFD00010BD0000DF0B0000A706000047050000A1
:10CFE00010B564210E48FFF76BFF642001F096FC3A
:10CFF000FD206421C000FFF763FF642001F08EFC78
:10D0000064210848FFF75CFF642001F087FC64217D
:10D010000548FFF755FF642001F080FC10BD0000BB
:10D02000A6060000F7090000E80E0000F0B593B076
:10D03000824D55206C4209900021FF2001940795F4
:10D0400003940F912D3004AA23C219200C90084696
:10D050007B4900220A54401C80B20628F8D30846B7
:10D0600000F056FB322001F0A7FC76490120087041
:10D07000002600F0D3FA314606225143724A0020BE
:10D080008F18109143007149401C59184A788978CB
:10D0900012020A4380B2FA520328F3D3322001F07D
:10D0A0008BFC0C990498FEF731F801463046FEF7E8
:10D0B0002DF8002909D10598012108430590099907
:10D0C000FEF754FA0598400005905F481099405EBD
:10D0D000A84200DA0546A04200DD04460220385E80
:10D0E0000799884200DA07900199884200DD019093
:10D0F0000420385E0699884200DA06900399884237
:10D1000000DD03904F48007800281DD0504800787B
:10D11000012821D0601B6430C8280FD907990198D5
:10D12000401A6430C82809D906990398401A643017
:10D13000C82803D904984008B04221D3761C04982B
:10D14000B6B2864295D301E002200F9041480821F3
:10D1500001704148099960E0AF20611B80000A1806
:10D1600041008A42EAD9079B019AD21A12188A42D0
:10D17000E4D9069B039AD21A10188842DAD8DDE760
:10D1800001200F903348042101706019C10F081865
:10D19000401003B22A48801F0380079A019989181A
:10D1A000CA0F5118491009B24180069C039A1219FE
:10D1B000D40FA218521012B2254C82802478012C70
:10D1C0000CD0022C1ED11C0A801D447003700B0A67
:10D1D000C3708170110A4171027113E05B0003801A
:10D1E000490041805200828015481C0A0470FE24C8
:10D1F000234043700B0A83702140C170110A0171F2
:10D20000224042710E4800F083FA322001F0D4FB34
:10D210000B4804F0E3FF11480999FEF7A7F97D20B8
:10D22000C00001F0C9FB00200999FEF79FF90549EC
:10D23000002008700F9813B0F0BD0000FD7F0000C3
:10D24000AE20002007200020E62A00200C2000202D
:10D2500005200020042000205111150100A2220009
:10D2600010B50B46012806D0022803D111461846F6
:10D2700002F002FD10BD1146184602F0DDFC10BDA3
:10D280000022D243830004490428CA5002D308185C
:10D29000203002777047000088340020F0B5002568
:10D2A000ED43002A02D00023042601E004230826CF
:10D2B0000B4C04E09F00E7597F1C04D05B1CB34279
:10D2C000F8D32846F0BD26185DB2203635709E0092
:10D2D000A151002AF5D1E11820310877F1E70000CB
:10D2E00088340020024909182020085670470000A1
:10D2F00088340020FEB5002468462546047004707A
:10D300009DA0006801909D4801789D480278914257
:10D310006FD09C490078095C9B486C2900785AD0F2
:10D3200008DC422929D0994F994E522975D063299A
:10D3300072D104E0CA292CD0CB29F9D15AE00228B5
:10D340001AD193480121143803F080FA0128F7D14B
:10D35000FFF76CFE009003F05FF803F06BF8385DA8
:10D360003055641CE4B20E2CF9D30098022803D087
:10D370000E21874803F0F8FBD6E00228FCD1844850
:10D380000521143803F062FA0128F5D180481338DA
:10D390001EE00228F0D17E481421143803F056FA1A
:10D3A0000128E9D101F0D4FA79490D20143904F0AB
:10D3B000D9F8012001F0CCFA754C3220143C617B85
:10D3C000FEF7AAF8A17B3320FEF7A6F820460F301F
:10D3D00003F0B6FCA8E002280AD16D4814211438E5
:10D3E00003F034FA012803D16948143803F0CCFC67
:10D3F0009AE0A2E002280DD103F060FF6448042106
:10D40000143803F023FA012804D1614904201439A7
:10D4100004F0A8F888E000E035E05D480221143807
:10D4200003F014FA01287BD15948143840786D284C
:10D4300048D008DC432853D04E2866D0612835D028
:10D4400066286DD149E06F2804D0732823D078284E
:10D4500066D119E04F484C4C4570207802260128CF
:10D460000AD04D480670FFF791F803F05DFB03F01A
:10D4700025FF2078022853D0FFF7FEFC474926708D
:10D480000120087074DF4BE03F480078002847D047
:10D49000FEF750FB44E002F0BFFF385D3055641CDE
:10D4A000E4B2042CF9D33571757114E002F0C2FFB7
:10D4B000042031183A5C2039401CC0B20A77082891
:10D4C000F7D3F0E702F0B6FF0820395C3154401C76
:10D4D000C0B20E28F9D3062113E003F025FB1FE0AC
:10D4E0002C48457028480078022819D102F094FF92
:10D4F00002F0A0FF385D3055641CE4B20E2CF9D365
:10D500000E21234803F030FB0AE01F480078022870
:10D5100006D10721224803F027FB022001F018FA68
:10D52000164805701648057014490A78144803789F
:10D530009A4201D10D700570FEBD164C207800286E
:10D54000FAD02570022001F003FA01A9042004F0AA
:10D5500009F802F0AFFE02F05FFF02F06BFF6078A7
:10D56000401CC0B260709628E6D9074800780028B1
:10D57000E2D0FEF7DFFAFEBD55667788F51F002082
:10D58000F41F0020FB230020F01F0020D4220020E5
:10D59000642A002088200020F61F0020EB1F0020B6
:10D5A000C022002010B503F0CFF8012801D00228D6
:10D5B000F9D110BD00B50022104600F07FFB0349F1
:10D5C000884200D10122104600BD00005555555536
:10D5D000002807D00449814204D80449814201D976
:10D5E000012070470020704760210020702100203A
:10D5F00070B5084D00242878002802D003F004FEFE
:10D6000005E0054D2878002802D003F065FE2C7057
:10D6100070BD0000EA1F0020EB1F002010B5064877
:10D620000078012804D0022801D102F03DFF10BD8E
:10D6300002F010FF10BD00000520002010B5094CBD
:10D64000207800280DD0022802D0032805D102E05E
:10D65000FFF7A0FC01E0FFF7C3FC04F0D5FC0020BD
:10D66000207010BDF61F002010B57D20000101F0D4
:10D6700007F90F490D2003F075FF642001F000F950
:10D6800002F0CAFE0B48C1780B482139DE2908D2C6
:10D690000A4942220A704A700021017000F09CFB86
:10D6A00003E00121017001F017F802F019FE10BD2E
:10D6B00029200020D4220020F71F0020E81F00208E
:10D6C00010B50F490D2003F04DFF642001F0D8F88C
:10D6D00002F0A2FE0B48C1780B482139DE2908D29E
:10D6E0000A4942220A704A700021017000F074FB5E
:10D6F00003E00121017000F0EFFF02F0F1FD10BD29
:10D7000036200020D4220020F71F0020E81F002030
:10D7100010B50C490978012909D0022911D104F06A
:10D72000B7FD642001F02EF902F0DEFF06E004F000
:10D7300083FD642001F026F902F0A6FF322001F0FB
:10D7400021F910BD0520002070B5084C050009D056
:10D7500010342168002907D00868206049682846ED
:10D760008847F6E70834F4E770BD0000D83300209E
:10D77000F8B52348416800293ED00E6821494C681D
:10D7800087688078E11B0D022D0AED1C002814D15A
:10D7900001201D4A000450601B4A403A50601B495A
:10D7A000400008601A4908601A49012008602F20CB
:10D7B00001F04CF9124901208870B54200D235467B
:10D7C000E81900020F4B000A403318600D4A5168F7
:10D7D000001B091B0902090A0002000AC91C814238
:10D7E00009D9506818602F2001F030F9012007494D
:10D7F000400480390860F8BD03F098F8F8BD0000D7
:10D8000000210020001501404013014080E200E0AB
:10D8100000E100E0001001401CB506498868C968B5
:10D8200001910090002069460870684600F0D2FF20
:10D830001CBD000028230200F8B5064610881446D7
:10D840008446801D0D46984201D90C20F8BD3288CF
:10D850000720062AFAD31927FF01184BBA4201D92B
:10D860009A42F3D171880629F0D3B94201D999427D
:10D87000ECD19A4203D0994201D08A42E6D80521E0
:10D880006046295420881221401C80B220802954EF
:10D890002088401C80B220804119308804F08CFB25
:10D8A0002188401880B220804119708804F084FBE0
:10D8B0002188401820800020F8BD0000FFFF0000F4
:10D8C00010B5FEF717FB10BD00B587B01C216846E8
:10D8D000FDF77BFC0521C90301910F2109040020FC
:10D8E00002910090032269460A73C88108740648B1
:10D8F0000590064806906846FFF7F8F8002801D022
:10D90000FEF7F8FA07B000BD69FB0100C1D80100BD
:10D91000F8B5164800F018FC144D00260C3D144CC8
:10D92000002807D0616900291CD001206A461070C8
:10D93000684616E02878002805D06169002911D0D2
:10D94000684606700DE0687800280DD0A168094887
:10D9500000220068FEF7C2FD002803D0A16900295B
:10D9600000D088472E70F8BD6168F0E7F0200020F5
:10D97000BC330020E82D0200092801D8303000E037
:10D980003730C0B2704700000249487840424870C2
:10D9900070470000A120002010B50D4B0020410071
:10D9A000CA18517809020CB2917821434C00091928
:10D9B000CC0F6118491009B2012801D0494209B2BF
:10D9C0000C0A401C5470C0B291700328E7D310BDFC
:10D9D0000C20002010B5034A00210348FEF72EFD5D
:10D9E00010BD0000C1080200F825020010B50E4964
:10D9F00000230A784C78A24212D0521CD2B20A708C
:10DA0000022A00D10B700A78074B920018339A58FB
:10DA10000260886810180002000A8860012010BDAA
:10DA20000360002010BD0000002100208268838870
:10DA30001A4003689A5C0A708168491C81607047CB
:10DA4000C26883881A4003689954C168491CC16040
:10DA50007047000001480078704700000520002052
:10DA6000F8B506461C481F46007815460C46C00708
:10DA70000AD03046FFF7ACFD002807D0002C07D0B5
:10DA8000A00507D00620F8BD0120F8BD0220F8BD92
:10DA90000320F8BD3068A04204D8A80271680019BC
:10DAA000884201D90520F8BD002D10D0684602F04B
:10DAB00053FB00280DD000980221C0C00170A101C5
:10DAC000090C8180058102F099FB0020F8BD04203B
:10DAD000F8BD0720F8BD00003C210020002902D13C
:10DAE000014900200870704744200020F0B5264806
:10DAF000264C001B0309264819464069421C03D1E5
:10DB00000120000740698002224A12789646D20717
:10DB10000CD00020F0BD1D4C15012C192568002DDE
:10DB200003D06468002C00D0491E521C9A42F2D3E4
:10DB3000002420E0E2B2002594462A460FE0134E6E
:10DB40001701BE193768002F02D07768002F05D162
:10DB5000767BAE4202D93546D6B2B446521C9A42C2
:10DB6000EDD362461501094AAA185060157BAD0233
:10DB7000401B641C10608C42DCD3064871460122B5
:10DB800011430170C5E700007021002060210020D2
:10DB9000001000103C210020002804D00349496EE9
:10DBA000016000207047032070470000F03400201F
:10DBB000F8B507461E481E46007815460C46C007B5
:10DBC0000ED03846FFF704FD00280BD0002D0BD0F7
:10DBD000002C09D028462043800707D00620F8BD36
:10DBE0000120F8BD0220F8BD0320F8BD3868A0422E
:10DBF00004D8B10078680919884201D20520F8BD1F
:10DC0000002E11D0684602F0A7FA00280ED0009826
:10DC100006990760416001210172C5600461868236
:10DC200002F0ECFA0020F8BD0420F8BD0720F8BD92
:10DC30003C21002070B5174B0446186E182148434C
:10DC40001549C0180A78950715D5022C02D0032C67
:10DC50001CD102E001F092FF18E04A78521CD2B2C7
:10DC60004A70032A12D900224A70082102F0ECFF00
:10DC700002F05CFA0AE0500708D5FB2002400A7067
:10DC8000586E002802D0022002430A7002F080FA87
:10DC900070BD0000F03400203C21002010B5054983
:10DCA000012008700448002301220168FFF7D8FE14
:10DCB00010BD0000442000206021002003498000A6
:10DCC0000968095802484160406870476021002097
:10DCD0004420002008B5074B01221A700022009250
:10DCE000054A890012680123511802460248FFF7CD
:10DCF0005FFF08BD44200020602100200EB503F026
:10DD00007BF96946112008720E48FDF769FA82B264
:10DD10000C4902A87CDF002801D0FEF7EBF80020B8
:10DD200000901022694601900A803C224A80888037
:10DD3000FF209130C88068467ADF002801D0FEF7C6
:10DD4000D9F80EBDC0220020FEB501A871DF6846DB
:10DD5000C0790007000B00906846807900990002A6
:10DD600008430090684640790099084300900107F5
:10DD7000090FC0B247181148009B009AC45D1048B3
:10DD80009204920E047054180E4A9B02155D457061
:10DD90001B0E0D4D5E18A95D8170641C02F0E8FD3C
:10DDA000002809D00548C15D054801700549095D95
:10DDB0004170A95D8170F1E7FEBD00001C260200E4
:10DDC000082000201C2802001C2A020001498000B3
:10DDD000085870478023020010B502F07BFDFDF764
:10DDE0005DFB10BD044A00200146CA311154401C9D
:10DDF000C0B21228F8D37047E8220020FEB50024F4
:10DE00002646114D032701E0092C0BDA285D01227B
:10DE1000002311460097019601F00CFD285D01F0EA
:10DE2000B7FD0AE0285D0122009600231146019605
:10DE300001F000FD285D01F0A3FD641C0C2CE3DB68
:10DE400000F032F8FEBD00004023020008B50020BB
:10DE50000090054A01210548FEF7F0FA00900028DD
:10DE600001D0FEF747F808BD45CE0100E8220200C8
:10DE700008B500200090054A01210548FEF7DEFAAA
:10DE80000090002801D0FEF735F808BD6DCE0100E6
:10DE90001426020010B50021112001F024FD0021FC
:10DEA0001A2001F020FD10BD30B5074B00200749B6
:10DEB0001C4619341D5C42008D54255C5218401CD0
:10DEC00055701928F6DB30BD4C2302007427002062
:10DED00010B5FFF793FF0A4A01210A48FEF7AEFA90
:10DEE000002801D0FEF706F80648074A0121001D68
:10DEF000FEF7A4FA002801D0FDF7FCFF10BD0000DA
:10DF000039E4010038230200F5E3010010B5FFF702
:10DF1000C1FF03F095FBFFF745FB0A490128087094
:10DF200008D0022805D100F015F8FDF7E3FBFDF756
:10DF300065FB10BD00F008F8FDF742FBFDF77CFB28
:10DF400010BD00000520002010B503F099F803F083
:10DF50008BF810BD10B503F09DF803F08BF810BDE1
:10DF600008B5032001F0DCFC06490820C860064A19
:10DF700000210648FEF762FA0090002801D0FDF764
:10DF8000B9FF08BD0005005075E40100EC22020055
:10DF9000F8B51E4C2078002836D0E068002600280E
:10DFA0000CD00025607800282ED1684652DF052865
:10DFB00006D0002806D0FDF79DFF0BE00125F1E714
:10DFC000012607E0009800F0ADFD2169002901D08D
:10DFD00000988847002D13D16078002814D16088FC
:10DFE00069460880A06861DF052804D0002804D0B5
:10DFF000FDF780FF04E0012502E0E168A0688847A2
:10E00000002ECFD0002DE5D0F8BD00004821002023
:10E01000F7B50025164604462F4616E0A800012154
:10E020000904A940FF3041302258002A0BD00322B6
:10E030001202A21852680A4205D02750019A01998B
:10E040001268496890476D1CEDB2B542E6D3FEBD3B
:10E050007FB50C460D462035064669782878019133
:10E06000009022462632D11E3046E36903F079FB48
:10E07000002819D1E87800281DD1207B022801D082
:10E08000032818D12269E169914214D16269E261E1
:10E09000E37B2B70217E8906C90F6970032804D0A9
:10E0A0003146204603F0F6FA7FBD00913146204606
:10E0B00003F0DCFB7FBD20460C3007C801AB07C373
:10E0C000E878002100280ED00920C0013218506CD9
:10E0D0005064820701D5012002E0400705D50220E7
:10E0E0006A46107001E0684601702971207E400781
:10E0F000E0D422686846616890477FBD0121814075
:10E1000003484068014201D0012070470020704759
:10E11000F82000200121814003484078014201D0CD
:10E120000120704700207047F8200020014610B5FC
:10E1300001208840FEF742FB10BD01218140880785
:10E1400000D00120704700004188054802889142B4
:10E1500004D34088814201D80120704700207047D5
:10E16000E82000201048018CC9B2012917D1818C08
:10E17000090714D1018D09060A0F03D1828D1206F9
:10E18000120F0ED0090F012903D1828D1206120F32
:10E1900007D0032903D1808D0006000F01D0002095
:10E1A0007047012070470000C00F00F0012181403E
:10E1B000880400D001207047F0B5284C2146103962
:10E1C00048688B68227886469C46CF78667836E029
:10E1D000182353436168521CC918A378D2B29342E2
:10E1E00000D100220B78022B02D0032B27D123E091
:10E1F00003464D68194603E0A94204D00B46C9699D
:10E2000000291CD0F8E7002919D08B4208D1C06939
:10E21000002805D1124F0125BD600025AC4601271D
:10E220000D68C969D961002909D00B685B190B60B9
:10E2300005E00174C06900E000210028F9D1964290
:10E24000C6D10649624610398A604860CF70704571
:10E2500001D00120F0BD0020F0BD00001021002001
:10E2600000100140F8B52C4E04467068002500905F
:10E2700041E0002C02D02046E46920E02648182323
:10E280001030017842684B43491CC9B2D218017062
:10E290008378994200D105701178506801292CD1FA
:10E2A000017C002929D191684160D16881601169A0
:10E2B000C16051698161F178002900D045604368EF
:10E2C000B268164F991A0902090AB94202D2826845
:10E2D000891806E0D11A09028268090A8A4202D91D
:10E2E000511A016000E005604560012185600174FC
:10E2F000C56103F087F8002CBBD1074810300178C6
:10E3000040788142BAD171680098814201D00120E1
:10E31000F8BD0020F8BD000000210020FFFF7F00B5
:10E320000023194A0C211846FEF79EF8002801D058
:10E33000FDF7E0FDFFF714FEFFF7CAFDFFF786FDCE
:10E34000FFF796FDFDF734FCFFF7E0FDFDF740FB1E
:10E35000FDF7A4F8FFF788F9FCF7D8FFFFF7F4FC06
:10E3600002F070FF02F050FF0320FEF73BFB002895
:10E3700001D0FDF7BFFD03F093FCFFF739F9FFF77C
:10E380005DF9FEF7B7FFF6E77021002070B514467F
:10E3900082880E4605462088111D4118921C99421C
:10E3A00001D8FE2A01D90C2070BD521C325420889D
:10E3B000FF21401C80B2208031542088401C80B254
:10E3C00020808119288803F0F7FD2188401880B249
:10E3D0002080AA88002A09D0A968002908D08019BD
:10E3E000FCF7DAFE2088A98840182080002070BD44
:10E3F000072070BD10B50D480D4C0078002806D0E0
:10E4000060780C49800008585521FDF7AFF8607816
:10E41000401CC0B26070E178884206D30020607072
:10E42000A078002801D102F057FF10BDEC1F00209A
:10E430005C200020D426002010B50D4C0020607117
:10E440002179062902D0002901D008E02071A068B6
:10E45000A061E169884202D001216171E0616279C5
:10E460002179A06902F022FD2079401C207110BDA5
:10E470005C20002010B50948FDF78AFE032000F05B
:10E4800013FC0648FDF7C4FF032001F049FA0449D4
:10E490000820C86003490020087010BDF022020067
:10E4A00000050050F81F0020F7B592B00020694623
:10E4B00008710870087604461090054607460290D9
:10E4C0000D9020460C21484380490B9046187289D4
:10E4D0009005810F68460171600012990F90095AEA
:10E4E0008805830F684603700379D2B2C9B20078F9
:10E4F00083422AD0204601F087FB6A461279012028
:10E5000002A988546A46127888546A46117800290C
:10E510000CD0012902D0022930D10DE06B4A0B99B1
:10E5200050546946087E401C087627E00F9A1299DD
:10E53000895CF170707021E0002C1FD16349139A3F
:10E540008A80149ACA80887018E0B3785F48012BDB
:10E5500005D08A4212D0707801280CD00EE0002C31
:10E560000CD1139A82801499C180002906D01046DC
:10E57000FEF7A6FC02E0F1700120109012990F98AE
:10E58000641C085AE4B27081032C9AD36846407A1E
:10E59000012809D100F072FA4D484168FF221202A9
:10E5A00091434160FFF738F91098002818D0684669
:10E5B000007A002814D16846807A002814D1434E8E
:10E5C00000240C20604380194178012904D1C278CD
:10E5D000417A007AFEF744FE641CE4B2032CF0D3C7
:10E5E0006846007A012803D06846807A012846D11F
:10E5F00002F070F9354C00200C21414309198A784A
:10E60000012A03D04A78012A03D014E07F1CFFB20C
:10E6100011E0304A0D9B165C03AAD654CB780D9AB4
:10E6200004A98B540D9A05A988540D99491CC9B2A7
:10E630006D1CEDB20D91401CC0B20328DCD3FD422D
:10E640001DD00226032D1CD0002F06D0E188A08803
:10E65000FEF736FC267200206072022D1ED0012DBE
:10E660000DD16846017C007BFDF764F96846007DAA
:10E670000C2250430121001901720021417215B092
:10E68000F0BDFDF75BF92672002161720120207553
:10E6900061750E49203108704870F0E76846437C88
:10E6A000027C417B007BFDF757F96846007D0C2218
:10E6B0005043012100190172002242726846407DD8
:10E6C0000C22504300190172D8E700009425002065
:10E6D0000075004028230200F8B5002402F0FAF883
:10E6E0000320114900250860104908200127C8604F
:10E6F000FFF792F80E4E204601F086FA0C20604398
:10E7000080194770641CC570E4B24581032CF2D3B4
:10E7100002203072757206483775757520300770A3
:10E720004770FDF70BF9F8BD0C07005000050050CD
:10E7300094250020F8B50F460178144605460129B6
:10E7400002D16878002806D02088821C9A422DD8F1
:10E75000012902D006E00720F8BD69784118891C1C
:10E76000994223D8181A801E86B2684606802188EE
:10E77000B81C081869467DDF0028EDD128780228EA
:10E7800005D169460988B14201D809210AE008216A
:10E79000012805D16878B04202D86A46108001E0AD
:10E7A0006846068068460088FE2801D90C20F8BD1E
:10E7B0002288401CB8542088401C80B220803954E4
:10E7C00020886946401C208009884018208000204D
:10E7D000F8BD000010B501788A074178920F49070B
:10E7E000C90E406811438207540E0C438103890F00
:10E7F00003D00321090408400443002000F020F85E
:10E8000003494868FF22120210402043486010BDAF
:10E810000075004010B500F013F8064A01211160A0
:10E82000054800230468002CFCD00360034880687E
:10E83000516010BD00700040007100400075004044
:10E8400010B5064902024B68FF242402A3431A4371
:10E850004A60002800D00120086010BD007500400B
:10E86000C20843075B0F0120895C9840084070474D
:10E870000121890740180068002800D00120704756
:10E880007D21C90048430FD00849094A096800BFE3
:10E8900000BF00BF00BF00BF00BF00BF00BF91426C
:10E8A00000D000BF0138F2D1704700005C21002089
:10E8B0000024F4007D21C90048430FD00849094ACB
:10E8C000096800BF00BF00BF00BF00BF00BF00BF9E
:10E8D00000BF914200D000BF0138F2D17047000064
:10E8E0005C2100200024F4007D21C90048430FD0A2
:10E8F0000849094A096800BF00BF00BF00BF00BF48
:10E9000000BF00BF00BF914200D000BF0138F2D16C
:10E91000704700005C2100200024F4007D21C90024
:10E9200048430FD00849094A096800BF00BF00BF2B
:10E9300000BF00BF00BF00BF00BF914200D000BFBA
:10E940000138F2D1704700005C2100200024F4005F
:10E950007D21C90048430FD00849094A096800BF12
:10E9600000BF00BF00BF00BF00BF00BF00BF91429B
:10E9700000D000BF0138F2D1704700005C210020B8
:10E980000024F4007D21C90048430FD00849094AFA
:10E99000096800BF00BF00BF00BF00BF00BF00BFCD
:10E9A00000BF914200D000BF0138F2D17047000093
:10E9B0005C2100200024F4007D21C90048430FD0D1
:10E9C0000849094A096800BF00BF00BF00BF00BF77
:10E9D00000BF00BF00BF914200D000BF0138F2D19C
:10E9E000704700005C2100200024F40000280FD0B4
:10E9F0000849094A096800BF00BF00BF00BF00BF47
:10EA000000BF00BF00BF914200D000BF0138F2D16B
:10EA1000704700005C2100200024F40000280FD083
:10EA20000849094A096800BF00BF00BF00BF00BF16
:10EA300000BF00BF00BF914200D000BF0138F2D13B
:10EA4000704700005C2100200024F40000280FD053
:10EA50000849094A096800BF00BF00BF00BF00BFE6
:10EA600000BF00BF00BF914200D000BF0138F2D10B
:10EA7000704700005C2100200024F40010B5002045
:10EA800005490122054C802348602360044B9A60AD
:10EA9000044B1A60887410BD7434002080E100E0DB
:10EAA000007300400470004070B50E4C00252078C3
:10EAB000002801D0852513E00021A160616021615B
:10EAC000E160094800680126304002D1032100F0CE
:10EAD0002FF802F03DFB002801D104488661267022
:10EAE000284670BDD833002000E100E0000500405A
:10EAF00038B50020694608706846FDF7E9FD084C06
:10EB00002078002801D1FFF7CFFFE068401CE060CB
:10EB10000120A07068460078FDF7F8FD38BD0000C0
:10EB2000D833002010B5002801D1FEF70DFE10BD2E
:10EB30008207D30EFF229A408907090E10B599402B
:10EB400000280BDA03071B0F083B9C080C4BA400A2
:10EB5000E318DC6994430C43DC6107E08408094B4B
:10EB6000A400E418236893430B432360C106C90E35
:10EB700001208840044908600449086010BD000075
:10EB800000ED00E000E400E080E200E000E100E0F1
:10EB900070B5144D2879002801D0082070BD1149A6
:10EBA00000204039421E0B182033401CC0B21A709E
:10EBB0002028F8D300242046FEF762FB641CE4B250
:10EBC000082CF8D303210620FFF7B2FFFF207D3089
:10EBD00000F00AFF01200449C007486001202871A5
:10EBE000002070BDC8340020006300400248007956
:10EBF000002800D001207047C8340020FEB504462C
:10EC000020480D460019002620308157491C01D0AC
:10EC1000082633E0A97800291DD0012200212046D2
:10EC2000FEF73CFB411C14D0830017482A781818C3
:10EC300069780369154F3B4003610369E706FF0CE0
:10EC40009207920BC907C90A3B430A431343036166
:10EC500004E0042612E00121C94301706A78012012
:10EC6000A0400B49012A0BD0C860002100910B463F
:10EC7000012201912046114600F018FE3046FEBDEB
:10EC80008860F2E78834002000650040FFE0ECFF78
:10EC90000005005010B5FEF725FB80060149000E67
:10ECA000401810BD00600040054909182020085692
:10ECB00081000448081801698908890001617047CA
:10ECC00088340020006500400949091820200856B2
:10ECD0008100084809180869032210431F22120204
:10ECE00002430A6100BF00BF00BF08617047000017
:10ECF0008834002000650040002900D00121074A27
:10ED0000121820201056820005481218106901239D
:10ED10001B0598430905084310617047883400209B
:10ED20000065004010B5044600F07AFF00280DD0C1
:10ED30002046FEF7D7FAC0B2FEF7A2FA2046FEF749
:10ED4000D1FA074A0021800080180161054800219E
:10ED50000019C94320300170204600F0BBFD10BDF2
:10ED60000065004088340020F1B50427164E82B0BB
:10ED700000240020694608706846FDF7A9FC0125BB
:10ED8000A540354204D02046FFF7B8F900280CD042
:10ED900068460078FDF7BAFC002F04D0641CAE432F
:10EDA000E4B2002EE5D13846FEBD084901204A688C
:10EDB000A04010434860029800270470684600781D
:10EDC000FDF7A4FCEFE70000FF3F0000F820002063
:10EDD000F8B514460D00074612D0002C10D00026BE
:10EDE000FFF7E4F900280DD03846FFF787F900282F
:10EDF0000AD00648F9000818056144613046F8BD9C
:10EE00000E20F8BD0726F9E70826F7E700F50140D0
:10EE100070B505460024FFF789F900280FD0284671
:10EE2000FFF7C4F9002804D02846FFF767F9002847
:10EE300007D001200449A8408860204670BD0724FF
:10EE4000FBE70824F9E7000000F5014070B505462E
:10EE50000024FFF76BF900280FD02846FFF7A6F92A
:10EE6000002804D02846FFF749F9002807D00120E0
:10EE70000449A8404860204670BD0724FBE70824E9
:10EE8000F9E7000000F50140F8B504460026FFF759
:10EE90008DF9002812D001250948A5408560002180
:10EEA00068460170FDF714FC06484168A9434160BB
:10EEB00068460078FDF72AFC3046F8BD0726FBE7D8
:10EEC00000F50140F8200020F8B506460D46002464
:10EED0000846FFF732F900281CD02846FFF71AF938
:10EEE000002815D03046FDF769FC002812D000211B
:10EEF00068460170FDF7ECFB0748A9000818016897
:10EF00003143016068460078FDF700FC2046F8BDFB
:10EF10000824FBE70724F9E700F80140F8B50646A6
:10EF20000D4600240846FFF708F900281CD02846A3
:10EF3000FFF7F0F8002815D03046FDF73FFC002819
:10EF400012D0002168460170FDF7C2FB0748A900F6
:10EF500008180168B143016068460078FDF7D6FBE8
:10EF60002046F8BD0824FBE70724F9E700F8014034
:10EF7000F1B50427032682B00024002069460870FA
:10EF80006846FDF7A5FB0125A540354204D0204683
:10EF9000FFF7C0F800280CD068460078FDF7B6FBF4
:10EFA000002F04D0641CAE43E4B2002EE5D13846F5
:10EFB000FEBD074901204A78A040104348700298DE
:10EFC0000027047068460078FDF7A0FBEFE700001B
:10EFD000F820002070B505460024FFF7AEF80028A1
:10EFE0000BD02846FFF796F8002808D0054A0120E4
:10EFF000E90089180860204670BD0724FBE7082453
:10F00000F9E7000000F00140F8B504460025FFF7DD
:10F0100094F8002800D107252046FFF77BF8002848
:10F0200014D00B490126E0004018466000216846D4
:10F030000170FDF74DFB0748A6404178B143417090
:10F0400068460078FDF762FB2846F8BD0825FBE717
:10F0500000F00140F820002004480178002901D088
:10F06000852070470121017000207047F8200020A2
:10F07000FEB5074640790C4641013F480E18307EE8
:10F08000002801D00820FEBD3260207B0125012828
:10F0900005D82178284688403849C86002E02078A1
:10F0A00000F07EFC2178364A01208900891808602A
:10F0B0006578FF2D06D03149A840C860284600F089
:10F0C00043FC01E00025ED43A078FF2808D0002391
:10F0D00000931A4619460193029000F0D3FB02E018
:10F0E0000020C0430290E078FF2804D000F058FCD4
:10F0F000E07800F029FC7879E17842011E48101888
:10F10000817639680520000223780818029A836006
:10F11000C5600261A2684262627B237B002A00D044
:10F120000122012B04D0022B04D0032B06D103E0D3
:10F13000022302E0042300E006231A4342657A79A1
:10F14000637955010C4AAA18D3763268002A04D094
:10F15000032304221B02C9184A6001250560306898
:10F16000002804D0042021793856FFF7E1FC002064
:10F1700070763576FEBD0000083400200005005092
:10F18000000700501FB50091069C029369460A7162
:10F190000C73002200F002F804B010BDF8B50D4663
:10F1A0004179184B4901C918002300934B7E002B6D
:10F1B00001D01120F8BD0B68002B04D014231A4293
:10F1C00001D101234B76D8CD0831D8C14B79FD242C
:10F1D0005B085B0023404B718C781839103DFF2C85
:10F1E00003D00123A340084CE360002A04D0002090
:10F1F000487606200090F8BD00682A4601F0BEFF60
:10F200000098F8BD08340020000500501522006861
:10F210008900920189184058704702688800403080
:10F22000C0B21018704700680121C160704770B506
:10F23000012424048C40032605683602AD19002BF6
:10F2400001D06C6000E0AC600068890008180521FE
:10F2500009024018026470BD02688800FF30413026
:10F2600080B2101870470268012000048840032112
:10F2700009025118886070478A0010B5FF32413288
:10F28000036892B200249C50026801200004884068
:10F29000032109025118486010BD000002680121D5
:10F2A000116100790C225043014A801801727047A5
:10F2B00028340020016801220A6000790C225043A2
:10F2C000024A022180180172704700002834002091
:10F2D000F0B5FF25023504688D40FF34FF34023459
:10F2E000059E2768AF4327600468FF34FF3402346B
:10F2F00025681D4325603346FFF799FFF0BD0000E8
:10F3000070B504460D4600790C2148432249461841
:10F31000307A002801D0082070BD002A05D0326064
:10F32000686870600020034608E0072070BD810017
:10F33000FF31226841315350401CC0B26179814293
:10F34000F5D82068E978000B40B2FFF7F1FB052003
:10F350002168000209186A784B68D2075B085B00D5
:10F36000D20F13434B602168AA7809188B68920763
:10F370009B089B00920F13438B602268297810181A
:10F380000269090712091201090F0A4302610120EB
:10F390003072002070BD00002834002030B50346D4
:10F3A0000068C103C90E012088401049086019682F
:10F3B0000020FF31C043FF3102310A6800240C6095
:10F3C0000322196812028918886018790C21084DE7
:10F3D00048434019007A022802D11846FFF75EFF21
:10F3E00018790C2148434019047230BD80E100E0D7
:10F3F000283400200179282251430B4A03238A181C
:10F4000001680020C0431B02CB189860C81DFF3064
:10F41000FA30036800230360052000020818036027
:10F4200001202032907070474C340020017928224E
:10F430005143054A0068891805221302C01802606A
:10F4400002202031887070474C340020F8B5074600
:10F450000C460079282148431B4945182E46203682
:10F46000B078002801D00820F8BD0CC50020286025
:10F4700070713071A07BF071607B083D002802D074
:10F48000204602F087F8216810488A001049521877
:10F4900010606268920051180860052338681B02EA
:10F4A00006CCC0188160C260216841622868083CAF
:10F4B000002805D03868217B000B40B2FFF738FBED
:10F4C0000120B0700020F8BD4C3400200C06000074
:10F4D000000700503EB5074D2C68AD6800940295BA
:10F4E0006C466170A37001920022694600F04AF8F0
:10F4F0003EBD0000FC2D02003EB50025069C009597
:10F5000002956D466970AB700192002C01D02022EB
:10F5100000E00022294600F035F83EBD30B5054632
:10F52000007928214843134944182068002806D050
:10F530002868C103C90E012088400F490860284689
:10F54000FFF758FF2034E07900280FD105202A6802
:10F5500000021218094992689300094A9B18196021
:10F560002B681818C0688000801801600020A07007
:10F5700030BD00004C34002080E100E002030000B8
:10F580000007005070B50D46017928235943064BFA
:10F59000CC18910701D0062070BD134601682A4699
:10F5A000204602F0B1F970BD4C340020F8B5064693
:10F5B0000F4600791C2148431A4915464418E07E3D
:10F5C000002801D00820F8BD39463046FDF7B4F8D0
:10F5D00065603869206028460025002813D0FF2286
:10F5E0003068397F1D328550FF22306845328550A2
:10F5F000032330681B020C4AC01842603068000BBD
:10F6000040B2FFF795FA05223068042112028018F3
:10F610000160E5752576A5750121E1762846A57678
:10F62000F8BD0000EC33002080000200F8B503793B
:10F630001C246343134C81251C190327666800238F
:10F64000AD003F02002E02D00668F619B560E67DD7
:10F65000002E0ED0237E002B07D06168002902D037
:10F660000068C01945601120F8BD21610123227690
:10F6700004E0E2750025E1606576257600F01AF871
:10F68000F8BD0000EC33002070B5044600791C2161
:10F69000074D48434019807E002808D1204601F0DC
:10F6A000F3F920791C22012150434019817670BD65
:10F6B000EC330020F8B5044600791C214843264964
:10F6C0004518A87E184302D1204601F0DDF968688C
:10F6D000002808D0812103222068890012028018A6
:10F6E00041600020F8BDFF204530216800220A500B
:10F6F000FF212531206800F08EF90646FF210931EF
:10F70000206800F088F90090FF214531206800F062
:10F7100082F90746009838433043E9D030463843F1
:10F7200007D12946206801F043F9E87D697E8842C7
:10F73000DED80020E875002E01D00320F8BD002F90
:10F7400001D00F20F8BDA97E01200029216801D039
:10F750000860C6E74860C4E7EC33002070B5054692
:10F760000C4600791C21484308494318284600F0FC
:10F7700055F8002801D0112070BD9A7500209C60BA
:10F780009882284600F004F870BD0000EC33002099
:10F79000F8B5044600791C2148431F490026451846
:10F7A000FF2720681D37C651206801218160294646
:10F7B000206802F0EFF86968002913D027E0FF27DE
:10F7C0000137FF211D31206800F025F9002802D102
:10F7D000A88AB842F5D1A88AB84203D02946206841
:10F7E00002F0D8F8A88AA97D8842E8D3A98AC81F60
:10F7F000F9380ED0FF271D373946206800F00BF985
:10F800000028F9D020680121C1600020A875304689
:10F81000F8BD0F26F9E70000EC33002000791C2129
:10F82000484303494018807D002800D001207047DC
:10F83000EC33002070B552000A439900049D0A433E
:10F840002902059E0A43310405240A432407800047
:10F850000721001909024018026070BD70B55200FE
:10F860000A439900049D0A432902059E0A43310474
:10F8700005240A43240780000721001909024018C3
:10F88000026070BD70B552000A439900049D0A439E
:10F890002902059E0A43310405240A4324078000F7
:10F8A0000721001909024018026070BD70B55200AE
:10F8B0000A439900049D0A432902059E0A43310424
:10F8C00005240A4324078000072100190902401873
:10F8D000026070BD1CB5002100910B460122019110
:10F8E000FFF7E4FF1CBD05221207800080180722E5
:10F8F00089001202801801607047052212078000FB
:10F9000080180722890012028018016070471CB518
:10F9100000220B46009211460192FFF79FFF1CBD8B
:10F920000522120780008018072203211202801886
:10F93000016070471CB5002100910B460122019126
:10F940001146FFF78BFF1CBD1CB5002100910B4633
:10F95000012201911146FFF795FF1CBD05221207F8
:10F9600080008218072000021018026803231B047D
:10F970009A430260026809040A430260704700006B
:10F98000012181400148C16070470000000500501E
:10F99000012181400148816070470000000500504E
:10F9A000012181400148816070470000000500503E
:10F9B000012181400148816070470000000500502E
:10F9C00038B5084B05241B68009324026B46411888
:10F9D00005E085005D592D192D69401C20C281422A
:10F9E000F7D838BD082E02000249401800210160F6
:10F9F000704700000060004003494018006801287B
:10FA000000D00020704700000060004040580028EF
:10FA100000D0012070474058002800D001207047D6
:10FA20000322120280184068084000D0012070476D
:10FA3000F0B50E480E4B02801E780E4D0024AA55DC
:10FA4000F02E0ED2701CB61804E00F5D641C2F540B
:10FA5000E4B2401C8642F8D218788018401C187016
:10FA6000F0BD0020187004490870F0BD96200020F9
:10FA7000F21F0020FC220020F31F0020704700002E
:10FA8000F0B50446018833480226012589B03A2999
:10FA90003AD00EDC02293BD02F4F102913D0112968
:10FAA0001AD0132916D100231A46852140887FDFFA
:10FAB00027E0512930D052291ED055290AD1A088DB
:10FAC000132176DF1DE0A188418024483E70057037
:10FAD0002348057009B0F0BD0021C9434180FDF7FE
:10FAE0009DF9032038701F48002105701C480170E3
:10FAF000F0E7FCF7FFF9EDE700231A4619464088C6
:10FB0000A9DF0028F5D1E5E7A088132176DFF8E723
:10FB1000A088002167DFF4E71022A11D6846FBF7EB
:10FB20003BFB684601780029D4D0007A042803D032
:10FB3000062801D00528CDD10229684608D00574D1
:10FB4000FF20833069468882A08804A9A8DFD8E70F
:10FB50000674F5E796200020F61F0020EB1F00201A
:10FB6000F01F0020EA1F00200078002803D102487F
:10FB70003B21408876DF70479620002010B5134A5D
:10FB800000215170017A012911D002290ED18189F9
:10FB9000491C8181C189491C89B2C181028A914273
:10FBA00004D1002101F050F800F0C0FA10BD838AA2
:10FBB000C28A991AFF2901DC89B201E0FF210131D3
:10FBC000511889B2C1829942EBD010BD3C2100206E
:10FBD000074A904201D1074803E0074A904202D108
:10FBE0000648C1607047064A9042FBD10548F8E7D5
:10FBF00000800040008C004000900040009C0040CD
:10FC000000A0004000AC00400C225043034A0021F9
:10FC10008318597011549970704700009425002082
:10FC20000449081820214156042901D201207047B7
:10FC3000002070478834002070B50646094C00202B
:10FC4000207064204843FF21FBF760FA05462A46EE
:10FC500031460548FCF7C0F91128F8D02078002873
:10FC6000FCD070BD7C2000208425020001490120C9
:10FC7000087070477C20002073B506460A4C0020AF
:10FC800020706846007964214843FF21FBF73EFA63
:10FC900005462A4631460548FCF79EF91128F8D05A
:10FCA00020780028FCD07CBD43200020F0220200F8
:10FCB00001490120087070474320002010B50068FA
:10FCC0000C2251430C18207AFFF7A2F8607AFFF754
:10FCD0009FF810BDF1B582B002980024056828197C
:10FCE00020300078FF2801D0FFF7CEF8641CE4B282
:10FCF000022CF4D32220405DFF2801D0FFF784F9C5
:10FD0000002420460C214843002647190090B819CA
:10FD10000190007AFF2804D0FFF7B6F80199FF2080
:10FD20000872761CF6B2022EF1D300982858411CB6
:10FD300005D0FEF7F7FF00210098C94329500020A5
:10FD4000641CE4B2F872022CDBD302984068FFF71F
:10FD500025FBFEBD10B5046820342078FFF758F865
:10FD60006078FFF755F810BDF8B50D461248012729
:10FD7000002449000E18305D002806D0305D401E7A
:10FD80003055305D00280ED00027641CE4B2022CF0
:10FD9000F1D3002F06D00948A9004058022140683D
:10FDA000FFF761FAF8BD0548A90040580068C1692D
:10FDB00028468847E9E700004121002064350020FB
:10FDC000FEB50C4601680546009120460C214843CB
:10FDD00000990190471816462846FFF7BBFF2146B9
:10FDE0002846FFF76BFF01980A30002E09D00099D2
:10FDF0008969B1420FD88EB22968085C002804D006
:10FE000005E02968085C002801D0002100E00121FC
:10FE10003868FEF771FF0023324621466868FFF715
:10FE200006FA7E606968024A0979FF205054FEBDD7
:10FE30003E210020F7B582B00446056803980C21E6
:10FE4000484347192035AE78039800902046FFF7C5
:10FE500081FF20460399FFF731FF00236068049A71
:10FE60000099FFF7E4F931463348FFF757F8397A3C
:10FE7000012002468A40797A884010433146FFF7D4
:10FE800023F879682D48002933D0F1000E1802219B
:10FE90006068FFF7E1F9014628783246FEF798FFDF
:10FEA0000023012203216068FFF7C1F96068002187
:10FEB000007982002248815003216068FFF7ADF984
:10FEC000064602216068FFF7C7F9014668783246A6
:10FED000FEF77EFF2878FEF7B9FF6878FEF7B6FFD9
:10FEE000049878606168174A09790320505405B076
:10FEF000F0BDF1000E1860680399FFF7ADF90146F7
:10FF000028783246FEF764FF00231A460321606812
:10FF1000FFF78DF960680399FFF778F9616809794F
:10FF20008A000749885003216068FFF776F9064682
:10FF300060680399C7E70000FF3F000000F0014040
:10FF4000583500203E210020F7B5076882B00446EE
:10FF500003980C214843C2193D4620350092AE78E3
:10FF60002046FFF7F7FE31463648FEF7D7FF009AE6
:10FF70000121127A08469040009A527A9140084333
:10FF80003146FEF7A1FF04992F48002937D0398B5D
:10FF900089B20491F1000E1802216068FFF75CF944
:10FFA000014628783246FEF713FF00230122032181
:10FFB0006068FFF73CF960680021007982002348FF
:10FFC000815003216068FFF728F906460221606826
:10FFD000FFF742F9014668783246FEF7F9FE2878C5
:10FFE000FEF734FF6878FEF731FF00990498486007
:10FFF0006168174A09790320505405B0F0BDF1003B
:020000040002F8
:100000000E1860680399FFF727F9014628783246F1
:10001000FEF7DEFE00231A4603216068FFF707F9AA
:1000200060680399FFF7F2F8616809798A00074967
:10003000885003216068FFF7F0F80646606803996E
:10004000C6E70000FF3F000004F0014058350020E3
:100050003E210020F7B582B00546046803980C21C4
:10006000484307192034A6782846FFF773FE314627
:100070002B48FEF753FF2278012108469040627812
:10008000914008433146FEF71FFF68680399FFF768
:10009000C4F8009003216868FFF7DEF80146207875
:1000A000009AFEF795FE686805210068090240186D
:1000B00000690006000E13D0002104980818796822
:1000C00088420FD23868FEF7E5FD0090032168688A
:1000D000FFF7C2F801466078009AFEF779FE07E064
:1000E0000121EAE76278012031469040FEF716FFD1
:1000F00004987860002368680321049AFFF797F852
:100100003046FEF767FF6968064A09790498890056
:1001100050506968044A09790398505405B0F0BDFD
:10012000FF3F0000583500203E2100200848416E66
:10013000491E416604D10749FD230A781A400A7016
:10014000016E491C0166042901D100210166704736
:10015000F03400203C21002070B50C490446486E64
:10016000042810D00A6E1218042A00D3121F401C53
:10017000486618204243551801462846FBF725F8E3
:100180000120256070BD002070BD0000F03400200B
:1001900010B518481822016E51430C18406E002803
:1001A0001FD0207A012802D0022816D10FE0A18AA0
:1001B000E08A091AFF2901DC8AB201E0FF2201323C
:1001C000E168800023690918181829DF01E0A08977
:1001D00028DF112806D0002803D00921204600F08E
:1001E00033FD10BD0449FD2208781040042210435D
:1001F000087010BDF03400203C21002010B50548E7
:1002000001784A07920F04D1022211430170FFF7CF
:10021000BFFF10BD3C21002010B50449042001F0AF
:10022000A1F900F0F9F80248C07810BD8E20002036
:10023000D42200200CB500216846017001711149DB
:1002400008698003C20F68460270007802016846A0
:10025000027008694001C10F6846017100794101CF
:1002600068460171084ACF20D178014007480078DC
:100270000143684600780143684600790143D17024
:100280000CBD00000005005090220020042000203A
:1002900000B5074B01221046FDF710FD5100C918AB
:1002A0004039521CD2B2C887042AF4D3004800BD9A
:1002B0005020002010B509480078012806D00228F7
:1002C00008D100F069F900F0EFF803E000F01AF946
:1002D00000F0C0F801F060FF10BD00000520002014
:1002E00010B53220FEF7CCFA0749042001F03AF9A4
:1002F0000A20FEF7C5FA00F08FF804480249C078DA
:10030000891F087010BD00001A200020D422002090
:1003100030B50F4B104A187801070E480FD5012150
:100320005C5C4518491CC9B2EC700629F8D9042157
:10033000435C5354491CC9B20929F9D930BD042181
:10034000535C4354491CC9B20929F9D930BD000096
:100350000C20002090220020C02A002010B5FDF7BC
:100360001BFB054A05490120135C0C18401CC0B258
:10037000E3700628F8D910BD0C2000209022002040
:1003800010B5144B00201978144A0C0712491AD5DD
:100390004400E41864780C54401CC0B20328F7D31E
:1003A0000C48AA23401E00781840012801D90123D7
:1003B00000E00023CB7000200B5C1354401CC0B243
:1003C0000328F9D910BD135C0B54401CC0B203289C
:1003D000F9D910BDA120002090220020D32A0020AE
:1003E00000B50022FDF7D0FA09490A4853005B180E
:1003F0005B788354521CD2B2032AF7D304490A22F1
:10040000491E0978114000D00121C17000BD0000D3
:10041000A120002090220020044A05490020135CFE
:100420000B54401C0428FADB70470000CC27002046
:10043000D42200200549064A04200B18203B1B7FCC
:100440001354401C0E28F8DB704700009022002057
:10045000D42200207CB50025104C01952570012088
:100460000346009001AA0E210D48FFF745F8002829
:1004700001D0FBF73FFD20780028FCD02570072332
:10048000084A0E210648FFF725F8002801D0FBF79F
:1004900031FD20780028FCD07CBD00000620002023
:1004A000FC1F00200C2000207CB512A00068124C1C
:1004B00000250190257001200346009001AA1E210D
:1004C0000E48FFF719F8002801D0FBF713FD20783C
:1004D0000028FCD025700723094A1E210748FEF793
:1004E000F9FF002801D0FBF705FD20780028FCD09B
:1004F0007CBD00006700000006200020FC1F0020DB
:100500000C2000207CB50024204D01942C70012685
:10051000334601AA1D211E480096FEF7EDFF002874
:1005200001D0FBF7E7FC28780028FCD02C700723CB
:10053000184A1D211648FEF7CDFF002801D0FBF711
:10054000D9FC28780028FCD01620694608712C7048
:10055000012301AA1D210E480096FEF7CDFF0028B9
:1005600001D0FBF7C7FC28780028FCD02C70094A82
:100570000123521E1D210648FEF7ACFF002801D0C2
:10058000FBF7B8FC28780028FCD07CBD06200020B2
:10059000FC1F0020A12000207CB522A00068224C76
:1005A0000025019025700126334601AA19211F4814
:1005B0000096FEF7A1FF002801D0FBF79BFC2078F6
:1005C0000028FCD025700723194A19211748FEF787
:1005D00081FF002801D0FBF78DFC20780028FCD09B
:1005E0003120694608712570012301AA19210F489D
:1005F0000096FEF781FF002801D0FBF77BFC2078F6
:100600000028FCD025700A4A0123521E19210748F0
:10061000FEF760FF002801D0FBF76CFC2078002873
:10062000FCD07CBDA800000006200020FC1F00209C
:10063000A1200020F8B500206946087008700F4C12
:100640000F4D104EFF270CE008780C214843285C22
:1006500001280AD068460078275469460878401C6B
:10066000087008780328EFD3F8BD69460878305C35
:10067000FEF7D0F8694609786054EEE7D4220020EE
:10068000942500202B2302007CB513A00068134C96
:1006900000250190257001200346009001AA0E213B
:1006A0000F48FEF729FF002801D0FBF723FC207834
:1006B0000028FCD0257006230A4A0E210848FEF7C0
:1006C00009FF002801D0FBF715FC20780028FCD09A
:1006D0000520FEF757F97CBD090000000620002028
:1006E000FC1F00209A2000207CB513A00068134C4A
:1006F00000250190257001200346009001AA1E21CB
:100700000F48FEF7F9FE002801D0FBF7F3FB207835
:100710000028FCD0257006230A4A1E210848FEF74F
:10072000D9FE002801D0FBF7E5FB20780028FCD09B
:100730000520FEF727F97CBD4500000006200020BB
:10074000FC1F00209A200020F0B53CA085B0006876
:1007500002903BA0002600683A49039035460127E5
:100760000E703B4602AA0E2137480097FEF7C4FEE2
:10077000002801D0FBF7BEFB324C2078002802D0C5
:10078000012F0ED01CE06D1CEDB2032D05D900F039
:10079000ADF8002501202F4620700520FEF7A4F8B3
:1007A000EBE700202070012301AA0E212648FEF766
:1007B00091FE002801D0FBF79DFB20780028FCD09B
:1007C0006846007900250127C4280ED0002020703B
:1007D00001200346009003AA1E211B48FEF78CFE51
:1007E00000280FD0FBF786FB0CE0012623E0052054
:1007F000FEF77AF86D1CEDB2032D03D900F076F800
:1008000000252F4620780028F1D0002F0ED00020A0
:100810002070012301AA1E210B48FEF75BFE002871
:1008200001D0FBF767FB20780028FCD068460079F0
:10083000402800D10226304605B0F0BD0700000078
:100840004F00000006200020FC1F0020F3B581B0FF
:100850000E460027164C174D0CE00120FEF778F8E5
:100860007F1CFFB2032F05D91349002008702870A0
:10087000207016E028782178401AB042EDDB0E494E
:1008800000200870012000220C4B08E021785F5CFA
:1008900001998F542178491C2170521CD2B2B24266
:1008A000F4D32978FF2902D9002129702170FEBDD7
:1008B000F41F0020F51F0020F11F0020FB23002063
:1008C000024900200870024908707047F51F002097
:1008D000F41F002010B5044900200870FBF744FB0A
:1008E000FBF74CFB10BD0000F81F00201FB50C4BA0
:1008F0006C460FCB0FC40B48FEF77CFD0948FEF792
:100900000DFE0023084A69460648FEF79FFD0028B1
:1009100001D0FBF7EFFA0348FEF788FD1FBD00008A
:10092000D8250200FC1F00202D16020070B50124FE
:100930000B49600408600B49401088600949403940
:100940008860094D6C602F20FEF780F8AC60074D81
:1009500000242F20AC60FEF779F8AC7070BD000069
:1009600080E100E040130140001001400021002020
:10097000F0B50D4C0D4B2546197899355A78002065
:100980002F469B789937265CB14207D12E5CB24244
:1009900004D13E5CB34201D10120F0BD401C992836
:1009A000F1D30020F0BD00001C2C02000820002024
:1009B00030B5FF220523CD7D002409321B02C31868
:1009C000002D8450986905D04B7ECA68D054487E6B
:1009D000401C487630BD70B500240546601C90B0C0
:1009E0000007000F08A9103008940870601C000769
:1009F000000F103048708878F9263040801C8870CD
:100A00001C2101A8FAF7E1FB694608791021084387
:100A100069460871029408A8049405940794069006
:100A2000287808A9887103206946888411200094D9
:100A3000087048708878F7213040801C0840EF210A
:100A40000840012630436946887014210AA8FAF745
:100A5000BCFB09A80A9068460B9069460E861420D4
:100A60004C8688862B4668880C330AAA01A9A2DF27
:100A700010B070BD1FB501246B461C701972019235
:100A800006C8684690471FBDFF2325330268002132
:100A9000D150FF2302680933D15000680121016061
:100AA0007047000010B50446FBF7ACF800280CD0E6
:100AB000A007C00E002C0ADA2107090F083989089F
:100AC000144A89008918C96906E0134810BDA108B5
