:020000040001F9
:10B00000303D0020D5B00100EFB00100F1B00100EB
:10B010000000000000000000000000000000000030
:10B02000000000000000000000000000F3B001007C
:10B030000000000000000000F5B00100F7B00100C2
:10B0400085B70100F9B0010021BB010081B9010001
:10B05000BDB901000000000025B30100ADB2010040
:10B06000D9BA0100F1BA010009BB0100F9B0010031
:10B07000F9B00100F9B00100F9B00100F9B0010028
:10B08000F9B0010061B90100F9B00100F9B00100A7
:10B0900011BA0100F9B0010019BA0100F9B00100BC
:10B0A000F9B00100F9B0010000000000000000004C
:10B0B0000000000000000000000000000000000090
:10B0C0000348854600F0B4F80048004755E1010008
:10B0D000303D00200321094802680A430260084805
:10B0E00002680A4302600748804707480047FEE7B6
:10B0F000FEE7FEE7FEE7FEE7FEE70000240500406E
:10B100005405004039BA0100C1B0010030B50B460A
:10B11000014600202022012409E00D46D5409D4231
:10B1200005D31D469540491B2546954040191546B7
:10B13000521E002DF1DC30BDF0B51FB406460020D4
:10B1400082B005464024019100901BE001992246FF
:10B150000F46304600F05BF8049A059B801A99412F
:10B1600010D310461946224600F041F8361A8F4196
:10B170000197224601200021009F00F038F838187E
:10B180004D4100902046641E0028DFDC019B0098A2
:10B190002946324607B0F0BD03460B439B0703D058
:10B1A00009E008C9121F08C0042AFAD203E00B788C
:10B1B0000370401C491C521EF9D27047D2B201E004
:10B1C0000270401C491EFBD270470022F6E710B502
:10B1D00013460A4604461946FFF7F0FF204610BD05
:10B1E000421C0178401C0029FBD1801A704710B521
:10B1F000202A04DB0146203A9140002010BD9140F6
:10B2000020239C1A0346E3401943904010BD10B51B
:10B21000202A04DB0846203AD040002110BD0B460E
:10B22000D340D0402024A21A91400843194610BDB3
:10B23000064C0125064E05E0E36807CC2B430C3C89
:10B2400098471034B442F7D3FFF73EFF442C020076
:10B25000642C020070B58C180578401C6B075B0FDE
:10B2600001D10378401C2A1106D10278401C03E06A
:10B2700006780E70401C491C5B1EF9D12B0705D4C3
:10B280000023521E0DD40B70491CFAE70378401CB2
:10B29000CB1A921C03E01D780D70491C5B1C521EDA
:10B2A000F9D5A142D8D3002070BD0000FEB5134CE3
:10B2B0000026E0680125124F002810D000F094FC11
:10B2C00000280BD00120B86068460670E068019045
:10B2D000217C68460181A57421688847FEBD094824
:10B2E00006600120B8600848066069460D708068F5
:10B2F0008880A57468462168EFE70000303400209C
:10B3000000730040007100400075004010B501F06E
:10B3100007FD02F01FFC05F013FC00F091FD02F0A8
:10B32000FFF910BDF0B50024FF268BB001360125D2
:10B3300027460694304604F077FA002807D0544890
:10B340004068284203D0304604F066FA2C43361D8C
:10B350006D007F1CB6B2042FECD3FF257D35284647
:10B3600004F062FA002809D0284604F055FA68076C
:10B37000044306AA0121002004F03AFA454D2007B3
:10B3800014D00127002627420CD04348B2001118E0
:10B3900008690969C004C00E8903AA58890F002AE8
:10B3A00000D090477F00761C042EECD3002C6DDA81
:10B3B00000200890401E63E0281940300778B90645
:10B3C000890E009100214156491C49D009A90098D5
:10B3D00003F05EF9002843D0B8090190009801F00D
:10B3E000FDFE80002F580198002F02D0032802D0C4
:10B3F0000DE0032834D1009808ABC20841079446F9
:10B40000985C490F01228A40104362469854009884
:10B41000052109078000401807210902401800682B
:10B4200006A98003800F0290009803F031F90028EC
:10B43000029802D0022802D012E0032810D101980D
:10B44000032808D1029802281ED00221009804F097
:10B450009DF9761CF6B2002F02D001990098B847EA
:10B46000641C042CA8D3002E10D06A4601210020B1
:10B4700004F0BEF906990098884207D00690089813
:10B4800000263446099097E70321DFE70BB0F0BDB3
:10B4900000630040443400200065004030B587B0B0
:10B4A00014221A496846FFF777FE012069460872A0
:10B4B00048721648164A303800F0CAFE0590002837
:10B4C00001D000F0FBFC1148303800F085FE00246C
:10B4D000684604800F4D2C700C480022114630380D
:10B4E00000F05AFD1128F7D028780028FCD02C70E5
:10B4F000064800220121303800F04EFD1128F7D017
:10B5000028780028FCD007B030BD0000C42302001A
:10B510009DFA01006C20002070B50546114C0020FA
:10B52000207064204843FF21FFF7F0FDC6B2322DA2
:10B530000CD0332D09D1324601210B4800F02CFDEF
:10B540001128F8D020780028FCD070BD32460021A8
:10B55000054800F021FD1128F8D020780028FCD003
:10B5600070BD00006C2000209423020070B5114CC7
:10B57000114D2146A060097800280DD000290AD17C
:10B5800000226221286800F089FF002801D000F025
:10B5900095FC0120207070BD0029FCD00748007880
:10B5A0000028F8D105F0E2FD286800F0BBFF00207C
:10B5B000F0E700004C20002048210200ED1F002091
:10B5C0000EB50BA0006800900AA0006801900AA0C8
:10B5D000006802900221684605F016FA022101A8CF
:10B5E00005F012FA022102A805F00EFA0EBD0000C5
:10B5F0001000000011800000106100000EB50BA0CB
:10B60000006800900AA0006801900AA000680290FB
:10B610000221684605F010FA022101A805F00CFA93
:10B62000022102A805F008FA0EBD0000600000002B
:10B63000610200006208000000B524A08BB0006821
:10B64000009023A00068019022A00068029022A030
:10B650000068039021A00068049021A00068059074
:10B6600020A00068069020A0006807901FA0006836
:10B6700008901FA0006809900221684605F092F921
:10B68000022101A805F08EF9022102A805F08AF92D
:10B69000022103A805F086F9022104A805F082F929
:10B6A000022105A805F07EF9022106A805F07AF925
:10B6B000022107A805F076F9022108A805F072F921
:10B6C000022109A805F06EF90BB000BD2A000000A8
:10B6D0002B1000002C0000002D0000002E000000A8
:10B6E0000E00000015780000171F00001800000071
:10B6F0002A2100001FB50EA0006800900DA0006870
:10B7000001900DA0006802900CA000680390022137
:10B7100002A805F05FF90221684605F05BF90221F5
:10B7200001A805F057F9022103A805F053F91FBD40
:10B73000238000003250000020270000302A000043
:10B740008307FF22DB0E9A408907090E99400028E3
:10B750000BDA0007000F0838830808489B00181808
:10B76000C36993430B43C3617047830804489B003C
:10B770001B181868904308431860704700ED00E0FC
:10B7800000E400E0F8B5FF20013002F089FF00245A
:10B7900001250E4E0E4F002807D00E4804600120F0
:10B7A000B0607D70002001F0FBFEFF20053002F04C
:10B7B00077FF002808D00748001D04600220B06011
:10B7C000BD70012001F0ECFEF8BD00000003004058
:10B7D000943300200001004030B585B00D4604468A
:10B7E000142214496846FFF7D7FC012069460094EB
:10B7F00008721048104A1C3800F02AFD0D481C3809
:10B8000000F0EAFC0D4C00202070284664214843DB
:10B81000FF21FFF77BFC054606482A4600211C381D
:10B8200000F0BAFB1128F7D020780028FCD005B032
:10B8300030BD0000B02302009DFA01006C20002002
:10B84000F0B585B016460F4604461D4614221E4923
:10B850006846FFF7A1FC0120694601970094087231
:10B8600048721948194A083800F0F2FC164808389E
:10B8700000F0B2FC164C0027277030466421484384
:10B88000FF21FFF743FC06460F48324600210838E7
:10B8900000F082FB1128F7D020780028FCD0277018
:10B8A000284664214843FF21FFF730FC054606483F
:10B8B0002A460121083800F06FFB1128F7D02078C4
:10B8C0000028FCD005B0F0BD9C2302009DFA0100C9
:10B8D0006C20002030B56421484385B0FF21FFF77C
:10B8E00015FC0546142210496846FFF755FC012057
:10B8F000694608720C480D4A083800F0A9FC0A484D
:10B90000083800F069FC0A4C0020207006482A46DE
:10B910000021083800F040FB1128F7D020780028DB
:10B92000FCD005B030BD000008210200E1FA0100A2
:10B930003320002010B5FFF74FFF10BD10B5054CA8
:10B940000121E37EE27B0220FFF77AFFE078FFF738
:10B95000C1FF10BD5C25002010B5FFF771FF10BDC1
:10B9600010B506490020086048608860C860034937
:10B9700040390860486005F0A1FC10BD401101404D
:10B9800070B5FF210C4809310A4C0025455021466D
:10B9900005F0D4FC00280CD1042002F03FFFA07E6B
:10B9A000FF2801D003F014FF657625712168201D62
:10B9B000884770BDC43300200030004010B50249F4
:10B9C000024802F05FFA10BD083400200040004039
:10B9D0001FB50C486C460FC80FC410216846C170D3
:10B9E000162181701521417017210170064A6946A0
:10B9F000064803F055FA002801D000F05FFA02F083
:10BA0000BDF91FBDF8230200910F02007020002035
:10BA100010B505F0C5FB10BD10B5064840680028FC
:10BA200005D08047002801D000F048FA10BD02F090
:10BA3000C9F910BD3C21002010B502F0ADFA002874
:10BA400005D01F491D484860C8131E4988611E481B
:10BA5000018CC9B201290BD1828C120708D1028D49
:10BA60001206120F042A03D1828D1206120F0AD079
:10BA7000012921D1818C09071ED1018D0906090FE9
:10BA80000A2904D007E0114A01219160F5E7828D6F
:10BA90001206120F05D00D290ED1808D0006000F61
:10BAA0000AD10B480168012904D00A4901600168E4
:10BAB0000129FCD1C021416110BD0000DFFF07C09A
:10BAC00000050040006C0040C00F00F00006004080
:10BAD00000EC06407593000010B5042202490348AB
:10BAE00002F0B0F910BD0000E433002000800040F7
:10BAF00010B504220249034802F0A4F910BD000069
:10BB0000F03300200090004010B5042202490348A1
:10BB100002F098F910BD0000FC33002000A00040A6
:10BB200010B50249024805F063FF10BDA83300209C
:10BB30000020004000B58BB018220C496846FFF782
:10BB40002BFBFF2101310A4806904018079109910B
:10BB500008900323074A06A9684600F013FD002851
:10BB600001D000F0ABF90BB000BD00000C240200C6
:10BB7000E12700207D18020010B50321192003F0F1
:10BB8000D4FDFFF7D7FF0321192003F0CEFD01F00C
:10BB90004DFE10BD30B47446641E2578641CAB4263
:10BBA00000D21D46635D5B00E31830BC184702E01D
:10BBB00008C8121F08C1002AFAD170477047002038
:10BBC00001E001C1121F002AFBD17047202804DACE
:10BBD000012181400348014201D00120704700202B
:10BBE00070470000FC06FFBC70B514490020124BE2
:10BBF0000860134908608C681248427CC56856008A
:10BC0000521CAC53D2B24274047CA24212D2846859
:10BC100000226468002C0AD00122846020684860F9
:10BC200001200860002A00D01860002070BD446820
:10BC30008460F3E7012070BD007000400071004097
:10BC40000075004030340020F7B584B0064600256A
:10BC50001788158020300290407B1446002806D0BB
:10BC60003A462146059800F085FF050009D1B078D5
:10BC7000002823D0059886462088001DB84202D9A6
:10BC80000C2007B0F0BD684679DF0028F9D1218883
:10BC900003207246505420881921401C80B2208015
:10BCA000115420887146401C80B22080411868469B
:10BCB000008806F075F8218840182080F078002868
:10BCC00017D0218803230A46F356C91C0598B942A8
:10BCD000D6D80221815421880122491C89B22180B1
:10BCE00042542188491C89B2218043542088401C39
:10BCF00020807068002817D021880023C3560A4688
:10BD0000C91C0598B942BBD80221815421880A2256
:10BD1000491C89B2218042542188491C89B2218062
:10BD200043542088401C2080308900280AD0009489
:10BD300030460197062202210830059B06F0B0F834
:10BD400005009ED1308A00280AD000943046019721
:10BD5000072203211030059B06F0A2F8050090D1C0
:10BD6000308B00280AD00094304601971522142108
:10BD70001830059B06F094F8050082D1306A00283F
:10BD800006D03B462246059901F082FC0500D8D139
:10BD9000706A002806D03B462246059902F00EFA4A
:10BDA0000500CED10298007B002807D03B462246F2
:10BDB0003046059904F07CFE0500C2D13078002899
:10BDC00007D03B4622463046059902F0CBFB0500E2
:10BDD000B7D1284655E70000174A0021535C002BD5
:10BDE00001D0012203E0491C0629F7D300221349A0
:10BDF000012806D002280BD0032810D0042818D11F
:10BE000012E04878002803D0002A01D001207047B2
:10BE10008878002803D0002A01D002207047C87813
:10BE2000002801D0032070470879002801D00420A1
:10BE30007047002070470000C1200020AC31002076
:10BE400030B5A7B03C2101A8FFF7BFF90221684631
:10BE50000171002484710621C1713C2110A8FFF7F3
:10BE6000B4F9012510A805820B48159020211FA8C0
:10BE7000FFF7ABF918A8C5774020009423902494CD
:10BE8000064B1FAA10A901A800F0A4FC002801D0AD
:10BE900000F014F827B030BD82200020ADF801007A
:10BEA000BFF34F8F04490348C860BFF34F8F00BFF3
:10BEB000FDE700000400FA0500ED00E00EB50021EA
:10BEC000029000916A4601910148FFF7E9FF0EBD1B
:10BED0000140000010B58268C368934203D001F0AE
:10BEE000D1FC002010BD052010BD002906D0002A7D
:10BEF00002D0531E134203D0092070470E20704712
:10BF00000160838000218160C1600846704710B5E0
:10BF10008268C3689A1A83889A4203D801F0BCFCED
:10BF2000002010BD042010BD10B5034800F010F92A
:10BF3000014800F04DFA10BD9423020010B50648E8
:10BF4000006800F0EFFA0448001D00F001F9024813
:10BF5000001D00F03DFA10BDFC20020070B5054642
:10BF600040680B4E0179715C0124FF290DD0FE2938
:10BF70000CD003F063F801466868064B0079820034
:10BF80009A58914202D1FF2131540024204670BDBD
:10BF9000322100201435002070B5044600680D469B
:10BFA000008B642180B25043FFF7B0F882B229467B
:10BFB000204600F001F870BDF8B50D46044617465E
:10BFC00000680C212E4623224E43125C3118022AAF
:10BFD00001D00820F8BD4968B94206D1C1690029DD
:10BFE0003FD06068007988473BE02046FFF7B6FF06
:10BFF000002802D0606803F02EF861681A4A0979B7
:10C00000FE20505423683A469E19776820462946F8
:10C01000002F02D09E69B7420AD3002A02D09B6942
:10C02000934202D803F0E4FD0BE003F01BFE08E0AE
:10C03000002A01D0964202D803F09EFE01E003F0F0
:10C0400021FF2068C06900280BD06168064A097981
:10C0500002204900D21C891848550221606803F06B
:10C0600023F80020F8BD000032210020FFB581B088
:10C0700006460768029D0C2045432320C05DEC194D
:10C08000002802D0082005B0F0BD002060600498B0
:10C09000A0722C4800680090284631680A30085C7D
:10C0A000002808D0002069464870039802F0BEFCC2
:10C0B000002816D101E00120F5E703987851012707
:10C0C00003983D46854004991F48002901D0C5606A
:10C0D00000E0856000256019083002F05DFD002851
:10C0E00001D00420CFE76D1CEDB2022DF3D3207AEE
:10C0F00002F0A6FD607A02F0A3FD206802F0E2FCE7
:10C1000005467068029902F0BFFF237A01462A466D
:10C11000184602F075FD206802F0D4FC05460221A5
:10C12000706802F0B1FF0146607A2A4602F068FDAD
:10C13000E7727168054A0979002049008A18029956
:10C140005054A0E7382C0200000500503521002093
:10C15000F8B506460768406802F0B8FF022170682B
:10C1600002F099FF002438192030007802F068FDB1
:10C17000641CE4B2022CF6D3002420460C21484370
:10C18000C519E97A002912D031680A30085C002804
:10C190001AD02978012088400E49C860286802F02A
:10C1A0009BFC287A02F04CFD687A02F049FD641C81
:10C1B000E4B2022CE1D370680021006803F020FC97
:10C1C00001202037F870F8BD28780121814001480E
:10C1D0008160E3E700050050F8B5076805460024D4
:10C1E0006A68204612790C2148435300174AC61941
:10C1F00000219A181155F17A00290DD029680A30CA
:10C20000085C002820D00021306802F08DFC3068E6
:10C2100002F072FC00207060641C022CE0D369689C
:10C220000A4AFF200979D21E50546868012100682B
:10C2300003F0E6FB686802F00EFF686802F052FF48
:10C2400002202037F870F8BD0121DDE735210020FC
:10C25000F7B588B00E00054609D02C68204620307E
:10C260000690C078002804D008200BB0F0BD0B2049
:10C27000FBE702F009FE002803D0852801D0042046
:10C28000F3E702F0CBFB002805D102F099FB002870
:10C2900001D00320E9E70698FF210170069841705C
:10C2A00006988170002007460C2141430B19DF726C
:10C2B000FF221A725A720022D243401CC0B262504E
:10C2C0000228F1D32046223002F06AFD002806D170
:10C2D0000027E019203002F05FFC002803D0284638
:10C2E00003F010FCCBE77F1CFFB2022FF1D3002735
:10C2F000B8003258501C12D0F019037A394628463B
:10C30000FFF7B4FE0490002804D0284603F0FAFB9F
:10C310000498AAE7002239462846FFF74DFE7F1C05
:10C32000FFB2022FE4D300200922244B316901E03F
:10C330004908401C994201D99042F9D3204A5168DA
:10C340009268029201916946087168681D4A0079F5
:10C35000029001A9686802F0EBFE070004D02846AD
:10C3600003F0D0FB384680E76868052200681202B7
:10C370008018316900690E01C640A661686802F044
:10C380006AFE01270097042332460221686802F002
:10C39000B7FE0221686802F07EFE0A98E0616868D4
:10C3A00009490079094A80000D506968FF20097920
:10C3B00050540698C770002057E70000FF0F000098
:10C3C000382C020099FB010020350020322100208A
:10C3D00070B5046805462034E078022802D00028B1
:10C3E00009D002E02846FFF7B3FE284603F08AFB97
:10C3F0000020E07070BD082070BD0000094B5B6834
:10C40000002B07D0002A07D0002805D00068037C45
:10C41000002B03D008207047072070474174426109
:10C420000020704704210020FFB507469007002533
:10C4300081B01E461446002825D1002C23D004F0DC
:10C440008DF93046114EF060304610300570457061
:10C450000299817044607560357001240C487570D4
:10C460002405046003211420FFF76AF909480460D9
:10C47000094CA76003211120FFF762F96068B060E2
:10C48000002005B0F0BD0720FBE70000F4200020ED
:10C4900080E200E000E100E000150140FEB51F4B26
:10C4A0005B68002B30D000282ED0052901D2072050
:10C4B000FEBD4369002B27D0437C012B26D00027EB
:10C4C000029104460025694616460D70684600F044
:10C4D000D1F801A805F0CEFC002819D00121017087
:10C4E0000F49446049688160029907614661C160F3
:10C4F00068460A49007948706846007800F0D8F824
:10C5000004F090FE2846FEBD0820FEBD0F46D7E78A
:10C5100068460425007800F0CBF8F3E704210020FA
:10C520000015014010B50849496800290AD00028C3
:10C5300008D04169002905D000210174022104F0CE
:10C5400099FE10BD082010BD0421002070B50B4DD0
:10C550000146AE780A48FFF7BDFC0446002E0AD01B
:10C560000020A870691C0122C81D02F077FF002876
:10C5700001D0FFF7A3FC204670BD0000142100206D
:10C580008C340020F0B5274E89B01F460D000446BC
:10C5900072601CD0A888296882B22348FFF7A5FCE6
:10C5A000002815D1A889A96882B21F481030FFF76A
:10C5B0009CFC00280CD120221C496846FEF7ECFDAB
:10C5C00060690690207C002804D0012103E0072048
:10C5D00009B0F0BD0021684601750777607C00282E
:10C5E00000D00E2069464875E0680290A06803906C
:10C5F00020680190606800900A480D4A083002F0F7
:10C60000EDFE0028E4D1B0702068401CE0D0054861
:10C61000083002F051FF03490122491CC81D02F0F5
:10C620001DFFD5E7142100208C340020182C0200B7
:10C630004919020010B501460C48FFF768FC0400D8
:10C6400012D10B4803F002F800280DD10849074821
:10C650000839FFF73FFC002806D1054901220839B7
:10C66000034802F093FF0446204610BD9C3400208E
:10C670001C21002030B5EFF3108172B6094A5468CE
:10C680000123002C04D00370002900D162B630BD14
:10C690005360054B1D68054C254015601C60002249
:10C6A0000270F1E72821002080E100E0FC06FFBCD9
:10C6B00008494A68002A0CD000280AD1EFF31080FC
:10C6C00072B60A68044B1A6000224A60002800D142
:10C6D00062B670472821002000E100E0F8B5074667
:10C6E00008680C460526411C01253602002906D0A3
:10C6F0002946814019488160206803F033F860685A
:10C70000411C02D0002103F01AF83968A069891988
:10C710004862607D217D3A6808439119C86638688F
:10C7200006CC80194261C160207B083C012814D1ED
:10C73000A068411C02D0002103F001F8E068411C10
:10C7400005D0854005488560E06803F00BF83A683D
:10C75000E1689219A06891601061F8BD0005005071
:10C76000800B01D00020704701207047F0B50C46C7
:10C7700093B01F216A461180072600279180002868
:10C7800009D0C17849070DD502A9FFF75DFA002845
:10C7900009D102AD01E000251780002C0ED0E07811
:10C7A000002802D0304613B0F0BD01AA0AA92046E5
:10C7B000FFF74AFA0028F6D10AAA02E068460022EA
:10C7C000878068468088C3B268460088C1B2284620
:10C7D00072DFE8E7FFB581B01E460A9F13460400EA
:10C7E00047D0002B45D0504D012028700020E87024
:10C7F000202219464D48FEF7CFFC00206F61C04350
:10C800002E612881284607211830FEF7DEFC4748B4
:10C810003C212030FEF7D9FC4448217820300170BB
:10C82000A1788170E178C170617841703F4A656993
:10C8300023695563114613632031E368A268CB6016
:10C840008A603A49E369A269CB638A63616A002915
:10C850001AD001463C310246483241628A60636A1E
:10C860001B880B80616A436A898899800021436A2A
:10C8700007E00E2005B0F0BD656AAD686D5C5554EB
:10C88000491C9D888D42F7D8A16A00291CD0274AEF
:10C89000943211460C398A608162A36A9B888B802E
:10C8A000A16A836A098819800021836A04E0A56A65
:10C8B000AD686D5C5554491C9D888D42F7D82C217C
:10C8C0000A5D1A4940310A73216A002909D01649C4
:10C8D0000A310162226A52884A80216A026A098802
:10C8E00011806168002900D04160104A0E49002083
:10C8F000B3322031C3001B1A85009B180C68401C02
:10C9000063510828F6DB094A0020EB320301850059
:10C910009B188C68401C63510828F7DB0348029978
:10C920002030FFF723FFA5E7A8200020AC3100202E
:10C9300010B50188134C102915D0112919D01B29C5
:10C9400010D1007A00280DD1E0780521401CFEF7B7
:10C95000DDFB084600F018F8002803D061690029C3
:10C9600000D0884710BD817D0129FBD180882081BE
:10C9700010BD00216171808821898842F8D1012091
:10C98000E8E70000A8200020F1B53F4C88B02078EF
:10C9900000280AD00898E07006A801F029F8069847
:10C9A0000125002804D065706AE0082009B0F0BDB8
:10C9B0003548002707211830FEF707FC334E707802
:10C9C000002802D0E078012807D0B07800280CD0E9
:10C9D000E078012801D0022807D12169002903D07D
:10C9E00025710820884700E027710898FFF7F4F9BF
:10C9F000E0702169002909D0032801D0042805D15D
:10CA00003078002802D06079002811D0A771182151
:10CA10006846FEF7DAFB684607700772E1781A4845
:10CA20000B001830FFF7B6F8052E080F191D20006F
:10CA3000A57107208847EAE7A57001906846057050
:10CA40004782078213E00221A170019068460570B9
:10CA5000B18941823189018209E0684604F0E0F839
:10CA600002E0684604F008F9E078002803D0684640
:10CA700073DF00289AD12169002901D0A078884766
:10CA8000002093E7A770F6E7A8200020AC31002033
:10CA900070B5054601461C220E48FEF77DFB0E4C84
:10CAA000002626702968002906D00822201DFEF7DE
:10CAB00073FB201D7ADF02E00748001D7BDF0028A2
:10CAC00007D1401E60806670044A00210448FFF7C9
:10CAD00095FC70BD78330020D8200020111E020084
:10CAE000F42B0200F8B5214C0146028800261E48AE
:10CAF000E589102A13D01E4F112A1FD0122A2BD0DD
:10CB0000502A1AD1881DC988A94216D14189022903
:10CB100013D10C3000F0FCF800280CD112E08A8808
:10CB200004464280104808220C301831FEF734FBCE
:10CB30006670002D01D100F017FEF8BD0021C94339
:10CB4000418046703868FFF7EDFC0028F5D0A169F8
:10CB50000029F2D08847F8BD034808220C3008317C
:10CB6000FEF71AFBE7E70000D8200020783300200A
:10CB7000F42B02007CB5054608880C46093090422B
:10CB800001D90C207CBD684671DF0028FAD12188CC
:10CB90000820685420881B21401C80B22080295422
:10CBA000208800A9401C80B2208040190622013153
:10CBB000FEF7F2FA20886946801D80B2208009784D
:10CBC000002900D0012129542088401C2080002009
:10CBD0007CBD000010B50446FFF784FF21460548E0
:10CBE00000F03EF8204602F063FE2046FFF7A0FE6C
:10CBF00010BD00008022002030B5184B0D46040007
:10CC00000FCB85B003936B4607C324D0002D22D0F1
:10CC10000020C043A0822868A0610020A0752146A2
:10CC2000684663DF002814D12178684681740121A9
:10CC30000182A21C04A90120A0DF002809D12946F5
:10CC4000204603F0E0FD002803D12946204604F0E9
:10CC5000C8FD05B030BD0E20FBE70000F82B020038
:10CC600010B500281BD0002919D00A88102A17D027
:10CC7000112A17D0502A12D104468A1DC888238A47
:10CC80001231984202D15389022B0FD0A3889842C7
:10CC900005D1A369002B02D052892046984710BDC8
:10CCA000898801E00021C943818210BD084600F057
:10CCB0002FF8002800D00120A07510BD07B584B062
:10CCC00000280DD0828A114B9A420BD0827D002A17
:10CCD00008D06A46128B142A06D9072007B000BD77
:10CCE0000E20FBE70820F9E7002200920192029251
:10CCF000039282896B461A80039106A90291012151
:10CD00009970808A6946A6DFE8E70000FFFF00000F
:10CD10004178027808021043C007C00F7047000036
:10CD200000B5174887B000680590002348221549D0
:10CD300005A804F0F1F8002801D0FFF7BFF86A4613
:10CD40000121002004F0D0F8002801D0FFF7B6F848
:10CD5000684604F0BFF8002801D0FFF7AFF80A4892
:10CD600004F0AEF8002801D0FFF7A8F8074804F057
:10CD700005F9002801D0FFF7A1F807B000BD0000B9
:10CD800024240200202A0020D5CB010099110200A2
:10CD900008B5002002460090074806490068FFF7E2
:10CDA0007DFB0090002801D0FFF788F8034901209F
:10CDB000087008BDD7030000F8200200EE1F002015
:10CDC00038B50024064800940068FFF7ABFB0090DC
:10CDD000002801D0FFF772F80248047038BD000047
:10CDE000F8200200EE1F002010B5064C60780028E5
:10CDF00006D00E2204490548FFF760FF002060704E
:10CE000010BD00000E2000209C2200208022002067
:10CE1000F0B587B000262D4F0546009638780C46B1
:10CE2000002815D02A480068FFF77CFB2848001D21
:10CE3000FFF78EF9032001F04FFE2548001DFFF794
:10CE4000C7FA0590032002F083FC22490820C8603D
:10CE5000002C11D0FF23610CE003F5330022C01831
:10CE600051415A000023FEF767F901461848002295
:10CE70000068FFF713FB05902846174932388842AF
:10CE800022D8164C26701249142220316846FEF72B
:10CE900083F904950125684605720D48104A6946D4
:10CEA000001DFFF7D5F905900948001DFFF794F91B
:10CEB000074832220021001DFFF76EF81128F7D035
:10CEC00020780028FCD03D7007B0F0BDF71F00208F
:10CED000FC200200000500501EC30000332000208B
:10CEE000E1FA010010B564210E48FFF791FF6420BC
:10CEF00001F02CFCEF206421C000FFF789FF6420C3
:10CF000001F024FC64210848FFF782FF642001F04F
:10CF10001DFC64210548FFF77BFF642001F016FC2F
:10CF200010BD0000DF0B0000A70600004705000051
:10CF300010B564210E48FFF76BFF642001F006FC7A
:10CF4000FD206421C000FFF763FF642001F0FEFBB9
:10CF500064210848FFF75CFF642001F0F7FB6421BF
:10CF60000548FFF755FF642001F0F0FB10BD0000FD
:10CF7000A6060000F7090000E80E0000F0B591B029
:10CF8000552006906C48079040420190FF200021F8
:10CF90002D30049019200B9005910846674A1154D2
:10CFA000401C80B20628F9D3104600F0E5FA0024B0
:10CFB00000F062FA214606225143614A00208F1890
:10CFC0000F9142005F49401C531859789B78090221
:10CFD000194380B2B9520328F3D3322001F004FC84
:10CFE0000B990498FEF792F801462046FEF78EF85A
:10CFF000002909D105980121084305900699FEF7FB
:10D00000B5FA0598400005904D480F99405EB04232
:10D0100000DA0646A84200DD05460220385E08997F
:10D02000884200DA08900299884200DD02900420CC
:10D03000385E0799884200DA07900199884200DD3E
:10D040000190A91B1920FF3140019131814233D950
:10D05000089A0299891AFF31913181422CD9079A95
:10D060000199891AFF319131814225D904984008EC
:10D07000A04221D2344804210170A819C10F081818
:10D08000401003B22D48801F0380089A0299891826
:10D09000CA0F511849100AB24280079C0199091918
:10D0A000CC0F6118491009B2284C81802478012CDA
:10D0B00024D0022C36D116E0641C0498A4B2844219
:10D0C00000D275E720480821017021480699FEF733
:10D0D0004DFA7D20C00001F087FB00200699FEF785
:10D0E00045FA11B0F0BD15481C0A44700370130ACC
:10D0F000C37082700A0A4271017113E05B00038001
:10D1000052004280490081800C481C0A0470FE24B1
:10D1100023404370130A83702240C2700A0A0271CE
:10D1200021404171054800F027FA044804F04AFF05
:10D1300008480699CBE70000FD7F0000A0200020F2
:10D14000A22A00200720002000200020012000202B
:10D150005111150100A2220010B50B46012806D07E
:10D16000022803D11146184602F09EFC10BD11465C
:10D17000184602F079FC10BD0022D2438300044916
:10D180000428CA5002D308182030027770470000E4
:10D1900044340020F0B50025ED43002A02D00023DE
:10D1A000042601E0042308260B4C04E09F00E75905
:10D1B0007F1C04D05B1CB342F8D32846F0BD261870
:10D1C0005DB2203635709E00A151002AF5D1E118DC
:10D1D00020310877F1E700004434002002490918A3
:10D1E000202008567047000044340020FEB5002778
:10D1F00068463C46077007717AA0006802907A483A
:10D2000001787A480278914277D079490078794D4F
:10D210000E5CC42E1AD010DC6C2E54D006DC422ECC
:10D2200036D0432E2DD0522E18D154E0C02E0DD022
:10D23000C12E14D0C22EF7D111E0C53E3300FEF747
:10D24000A9FC0705050505052D05B700042169485A
:10D2500003F036FA6749042004F09CF8A8E00421A2
:10D26000644803F02DFA3107090F684601706978A8
:10D27000017101783131017001790078FEF74CF9C4
:10D2800096E001215B4803F01BFAFFF777FE8FE081
:10D290000521584803F014FA681C11E01421554880
:10D2A00003F00EFA53490D2004F074F8697B322024
:10D2B000FEF732F9A97B3320FEF72EF94D480F30E7
:10D2C00003F04EFC74E014214A4803F0F9F9494890
:10D2D00003F06AFC6CE00221464803F0F1F968783B
:10D2E000444D454E1435662850D007DC432850D0B5
:10D2F000612834D063285BD115E062E06D283AD014
:10D300006F2802D0732853D11EE03C4801780229CF
:10D310004ED00221017003F0E1FE74DF03F01CFB2C
:10D32000FFF7E0FD44E003F0D9FE3448017800291E
:10D330003ED004700320FFF727FB002801D0FEF742
:10D34000BDFDFFF7F5FD33E002F07EFFF05DE8552F
:10D350007F1CFFB2042FF9D32C716C7114E002F022
:10D3600081FF04202918325C2039401CC0B20A77A2
:10D370000828F7D3F0E702F075FF0820315C295444
:10D38000401CC0B20E28F9D306210DE003F0E4FAE8
:10D390000EE002F059FF02F065FFF05DE8557F1CDA
:10D3A000FFB20E2FF9D314211248143003F0ECFA17
:10D3B0000D4802780D490B789A4201D104700C7027
:10D3C000FEBD012001F0DCF902A9042003F0E2FF18
:10D3D00002F088FE02F038FF02F044FF012001F065
:10D3E000CFF9FEBD55667788F41F0020F31F00209B
:10D3F000C3230020F52900209C220020F01F0020DC
:10D4000010B503F0DBF8012801D00228F9D110BDD6
:10D4100000B50022104600F07DFB0349884200D190
:10D420000122104600BD000055555555002807D073
:10D430000449814204D80449814201D9012070473E
:10D4400000207047542100206421002070B5084D51
:10D4500000242878002802D003F0E6FD05E0054D01
:10D460002878002802D003F04FFE2C7070BD000019
:10D47000EA1F0020EB1F002010B5064800780128A5
:10D4800004D0022801D102F049FF10BD02F0FAFEDB
:10D4900010BD00000120002010B50B4800780128C5
:10D4A00011D10A4C207800280DD0022802D0032880
:10D4B00005D102E0FFF716FD01E0FFF739FD04F0AA
:10D4C00097FC0020207010BDF61F0020F51F0020E3
:10D4D00010B57D20000101F0EBF80F490D2003F09D
:10D4E00059FF642001F0E4F802F0AEFE0B48C17869
:10D4F0000B482139DE2908D20A4942220A704A70B3
:10D500000021017000F094FB03E00121017000F0A4
:10D51000FBFF02F0FDFD10BD192000209C22002021
:10D52000F61F0020E81F002010B50F490D2003F062
:10D5300031FF642001F0BCF802F086FE0B48C17890
:10D540000B482139DE2908D20A4942220A704A7062
:10D550000021017000F06CFB03E00121017000F07C
:10D56000D3FF02F0D5FD10BD262000209C22002014
:10D57000F61F0020E81F002010B50849097801298E
:10D5800006D0022903D104F08BFD02F0E7FF10BDA5
:10D5900004F046FD02F0B2FF10BD000001200020A3
:10D5A00070B5084C050009D010342168002907D057
:10D5B00008682060496828468847F6E70834F4E799
:10D5C00070BD000094330020F8B52348416800295D
:10D5D0003ED00E6821494C6887688078E11B0D02B7
:10D5E0002D0AED1C002814D101201D4A00045060B2
:10D5F0001B4A403A50601B49400008601A490860C5
:10D600001A49012008602F2001F038F91249012041
:10D610008870B54200D23546E81900020F4B000A67
:10D62000403318600D4A5168001B091B0902090AA2
:10D630000002000AC91C814209D9506818602F20D5
:10D6400001F01CF901200749400480390860F8BD49
:10D6500003F084F8F8BD0000F4200020001501401C
:10D660004013014080E200E000E100E000100140D2
:10D670001CB506498868C968019100900020694678
:10D680000870684600F0BEFF1CBD00003821020093
:10D69000F8B50646108814468446801D0D4698420B
:10D6A00001D90C20F8BD32880720062AFAD31927A1
:10D6B000FF01184BBA4201D99A42F3D17188062969
:10D6C000F0D3B94201D99942ECD19A4203D09942A0
:10D6D00001D08A42E6D805216046295420881221CB
:10D6E000401C80B2208029542088401C80B22080B9
:10D6F0004119308804F054FB2188401880B2208002
:10D700004119708804F04CFB2188401820800020CB
:10D71000F8BD0000FFFF000010B5FEF7CFFB10BD05
:10D7200000B587B01C216846FDF74FFD0521C903F0
:10D7300001910F2109040020029100900322694603
:10D740000A73C88108740648059006480690684622
:10D75000FFF79EF9002801D0FEF7B0FB07B000BD2F
:10D7600099F9010019D70100F8B5164800F006FC38
:10D77000144D00260C3D144C002807D06169002987
:10D780001CD001206A461070684616E028780028F0
:10D7900005D06169002911D0684606700DE06878EF
:10D7A00000280DD0A168094800220068FEF776FE27
:10D7B000002803D0A169002900D088472E70F8BD49
:10D7C0006168F0E7E420002078330020F42B0200A9
:10D7D000092801D8303000E03730C0B2704700006F
:10D7E000024948784042487070470000922000206B
:10D7F00010B50D4B00204100CA18517809020CB237
:10D80000917821434C000919CC0F6118491009B2D5
:10D81000012801D0494209B20C0A401C5470C0B220
:10D8200091700328E7D310BD0720002010B5034AEC
:10D8300000210348FEF7E2FD10BD0000E9060200EA
:10D840000824020010B50E4900230A784C78A24241
:10D8500012D0521CD2B20A70022A00D10B700A7880
:10D86000074B920018339A5802608868101800021B
:10D87000000A8860012010BD0360002010BD000078
:10D88000F4200020826883881A4003689A5C0A703A
:10D890008168491C81607047C26883881A400368A8
:10D8A0009954C168491CC160704700000148007864
:10D8B0007047000001200020F8B506461C481F46AE
:10D8C000007815460C46C0070AD03046FFF7AEFD7B
:10D8D000002807D0002C07D0A00507D00620F8BDEF
:10D8E0000120F8BD0220F8BD0320F8BD3068A04239
:10D8F00004D8A80271680019884201D90520F8BD32
:10D90000002D10D0684602F03FFB00280DD0009893
:10D910000221C0C00170A101090C8180058102F0C3
:10D9200085FB0020F8BD0420F8BD0720F8BD0000ED
:10D9300030210020002902D10149002008707047E1
:10D9400034200020F0B52648264C001B0309264849
:10D9500019464069421C03D101200007406980023A
:10D96000224A12789646D2070CD00020F0BD1D4CFA
:10D9700015012C192568002D03D06468002C00D0F7
:10D98000491E521C9A42F2D3002420E0E2B2002544
:10D9900094462A460FE0134E1701BE193768002F30
:10D9A00002D07768002F05D1767BAE4202D935468A
:10D9B000D6B2B446521C9A42EDD362461501094ACA
:10D9C000AA185060157BAD02401B641C10608C428D
:10D9D000DCD306487146012211430170C5E70000FF
:10D9E000642100205421002000100010302100206C
:10D9F000002804D00349496E0160002070470320CD
:10DA000070470000AC340020F8B507461E481E469B
:10DA1000007815460C46C0070ED03846FFF706FDC5
:10DA200000280BD0002D0BD0002C09D02846204315
:10DA3000800707D00620F8BD0120F8BD0220F8BD00
:10DA40000320F8BD3868A04204D8B10078680919ED
:10DA5000884201D20520F8BD002E11D0684602F0A0
:10DA600093FA00280ED000980699076041600121C2
:10DA70000172C5600461868202F0D8FA0020F8BD08
:10DA80000420F8BD0720F8BD3021002070B5174BE9
:10DA90000446186E182148431549C0180A7895079E
:10DAA00015D5022C02D0032C1CD102E001F07EFF20
:10DAB00018E04A78521CD2B24A70032A12D90022C6
:10DAC0004A70082102F0D0FF02F048FA0AE050073D
:10DAD00008D5FB2002400A70586E002802D00220B0
:10DAE00002430A7002F06CFA70BD0000AC340020F2
:10DAF0003021002010B5054901200870044800239A
:10DB000001220168FFF7D8FE10BD0000342000207C
:10DB100054210020034980000968095802484160E7
:10DB200040687047542100203420002008B5074B7E
:10DB300001221A7000220092054A8900126801230E
:10DB4000511802460248FFF75FFF08BD342000204D
:10DB5000542100200EB503F05FF9694611200872C8
:10DB60000E48FDF73DFB82B20C4902A87CDF00287D
:10DB700001D0FEF7A3F90020009010226946019021
:10DB80000A803C224A808880FF209130C880684605
:10DB90007ADF002801D0FEF791F90EBD682A002037
:10DBA000FEB501A871DF6846C0790007000B009040
:10DBB00068468079009900020843009068464079E1
:10DBC0000099084300900107090FC0B24718114897
:10DBD000009B009AC45D10489204920E0470541881
:10DBE0000E4A9B02155D45701B0E0D4D5E18A95D1A
:10DBF0008170641C02F0D4FD002809D00548C15D85
:10DC0000054801700549095D4170A95D8170F1E722
:10DC1000FEBD000028240200032000202826020068
:10DC2000282802000149800008587047902102000E
:10DC300010B502F067FDFDF731FC10BDFEB5002404
:10DC40002646114D032701E0092C0BDA285D01223D
:10DC5000002311460097019601F004FD285D01F0B4
:10DC6000AFFD0AE0285D01220096002311460196CF
:10DC700001F0F8FC285D01F09BFD641C0C2CE3DB3B
:10DC800000F020F8FEBD00005021020008B5002081
:10DC90000090054A01210548FEF7B0FB00900028DE
:10DCA00001D0FEF70BF908BDE9CD0100F820020014
:10DCB00010B50021112001F02EFD00211A2001F0E5
:10DCC0002AFD10BD30B5074B002007491C4619340A
:10DCD0001D5C42008D54255C5218401C557019285B
:10DCE000F6DB30BD5C2102003C27002010B5FFF7B9
:10DCF000A5FF0A4A01210A48FEF780FB002801D04F
:10DD0000FEF7DCF80648074A0121001DFEF776FB06
:10DD1000002801D0FEF7D2F810BD000069E2010032
:10DD20004821020025E2010010B5FFF7C1FF03F012
:10DD30009FFBFFF765FB0A490128087008D00228FD
:10DD400005D100F015F8FDF7D5FCFDF757FC10BD27
:10DD500000F008F8FDF734FCFDF76EFC10BD000084
:10DD60000120002010B503F09BF803F08DF810BDE2
:10DD700010B503F09FF803F08DF810BD044A0020A1
:10DD80000146CA311154401CC0B21228F8D3704762
:10DD9000B022002008B5032001F0DAFC0649082073
:10DDA000C860064A00210648FEF728FB00900028BC
:10DDB00001D0FEF783F808BD00050050A5E2010080
:10DDC000FC200200F8B51E4C2078002836D0E06810
:10DDD000002600280CD00025607800282ED1684647
:10DDE00052DF052806D0002806D0FEF767F80BE0C2
:10DDF0000125F1E7012607E0009800F0ABFD21695D
:10DE0000002901D000988847002D13D160780028A0
:10DE100014D1608869460880A06861DF052804D0B5
:10DE2000002804D0FEF74AF804E0012502E0E1688A
:10DE3000A0688847002ECFD0002DE5D0F8BD0000A7
:10DE40003C210020F7B50025164604462F4616E073
:10DE5000A80001210904A940FF3041302258002ABE
:10DE60000BD003221202A21852680A4205D0275092
:10DE7000019A01991268496890476D1CEDB2B5424C
:10DE8000E6D3FEBD7FB50C460D46203506466978C3
:10DE900028780191009022462632D11E3046E3694F
:10DEA00003F077FB002819D1E87800281DD1207BEA
:10DEB000022801D0032818D12269E169914214D1C6
:10DEC0006269E261E37B2B70217E8906C90F69706C
:10DED000032804D03146204603F0F4FA7FBD0091B8
:10DEE0003146204603F0DAFB7FBD20460C3007C8E0
:10DEF00001AB07C3E878002100280ED00920C0013B
:10DF00003218506C5064820701D5012002E04007AE
:10DF100005D502206A46107001E06846017029713B
:10DF2000207E4007E0D422686846616890477FBD44
:10DF30000121814003484068014201D0012070471F
:10DF400000207047EC2000200121814003484078E8
:10DF5000014201D00120704700207047EC200020D2
:10DF6000014610B501208840FEF7FAFB10BD0121E3
:10DF70008140880700D00120704700004188054893
:10DF80000288914204D34088814201D80120704721
:10DF900000207047DC2000201048018CC9B2012904
:10DFA00017D1818C090714D1018D09060A0F03D1FD
:10DFB000828D1206120F0ED0090F012903D1828D16
:10DFC0001206120F07D0032903D1808D0006000F1F
:10DFD00001D000207047012070470000C00F00F002
:10DFE00001218140880400D001207047F0B5284C01
:10DFF0002146103948688B68227886469C46CF783F
:10E00000667836E0182353436168521CC918A37818
:10E01000D2B2934200D100220B78022B02D0032B04
:10E0200027D123E003464D68194603E0A94204D0F6
:10E030000B46C96900291CD0F8E7002919D08B428A
:10E0400008D1C069002805D1124F0125BD60002507
:10E05000AC4601270D68C969D961002909D00B6850
:10E060005B190B6005E00174C06900E00021002825
:10E07000F9D19642C6D10649624610398A60486095
:10E08000CF70704501D00120F0BD0020F0BD000030
:10E090000421002000100140F8B52C4E04467068A1
:10E0A0000025009041E0002C02D02046E46920E0E9
:10E0B000264818231030017842684B43491CC9B2E6
:10E0C000D21801708378994200D105701178506898
:10E0D00001292CD1017C002929D191684160D168A6
:10E0E00081601169C16051698161F178002900D0B6
:10E0F00045604368B268164F991A0902090AB94285
:10E1000002D28268891806E0D11A09028268090AD7
:10E110008A4202D9511A016000E005604560012180
:10E1200085600174C56103F085F8002CBBD10748F8
:10E130001030017840788142BAD1716800988142EC
:10E1400001D00120F8BD0020F8BD0000F42000201F
:10E15000FFFF7F000023184A0B211846FEF764F9E1
:10E16000002801D0FDF7AAFEFFF714FEFFF7BEFD61
:10E17000FFF78CFDFDF700FDFFF7D6FDFDF728FC4E
:10E18000FDF78CF9FFF7A4F9FDF7C0F8FFF708FDDC
:10E1900002F068FF02F048FF0320FEF7F5FB0028BD
:10E1A00001D0FDF78BFE03F0B7FCFFF74FF9FFF747
:10E1B00073F9FFF71BF8F6E76421002070B51446E9
:10E1C00082880E4605462088111D4118921C9942EE
:10E1D00001D8FE2A01D90C2070BD521C325420886F
:10E1E000FF21401C80B2208031542088401C80B226
:10E1F00020808119288803F0D3FD2188401880B23F
:10E200002080AA88002A09D0A968002908D080198E
:10E21000FCF7C2FF2088A98840182080002070BD2C
:10E22000072070BD10B50D480D4C0078002806D0B1
:10E2300060780C49800008585521FDF797F96078FF
:10E24000401CC0B26070E178884206D30020607044
:10E25000A078002801D102F057FF10BDEC1F00206C
:10E260004C2000209C26002010B50D4C0020607131
:10E270002179062902D0002901D008E02071A06888
:10E28000A061E169884202D001216171E061627997
:10E290002179A06902F01AFD2079401C207110BD7F
:10E2A0004C20002010B50948FDF752FF032000F074
:10E2B00013FC0648FEF78CF8032001F049FA0449E4
:10E2C0000820C86003490020087010BD002102002A
:10E2D00000050050F71F0020F7B592B000206946F6
:10E2E00008710870087604461090054607460290AB
:10E2F0000D9020460C21484380490B9046187289A6
:10E300009005810F68460171600012990F90095ABB
:10E310008805830F684603700379D2B2C9B20078CA
:10E3200083422AD0204601F087FB6A4612790120F9
:10E3300002A988546A46127888546A4611780029DE
:10E340000CD0012902D0022930D10DE06B4A0B9983
:10E3500050546946087E401C087627E00F9A1299AF
:10E36000895CF170707021E0002C1FD16349139A11
:10E370008A80149ACA80887018E0B3785F48012BAD
:10E3800005D08A4212D0707801280CD00EE0002C03
:10E390000CD1139A82801499C180002906D01046AE
:10E3A000FEF736FD02E0F1700120109012990F98EF
:10E3B000641C085AE4B27081032C9AD36846407AF0
:10E3C000012809D100F072FA4D484168FF2212027B
:10E3D00091434160FFF74CF91098002818D0684627
:10E3E000007A002814D16846807A002814D1434E60
:10E3F00000240C20604380194178012904D1C2789F
:10E40000417A007AFEF7A8FE641CE4B2032CF0D334
:10E410006846007A012803D06846807A012846D1F0
:10E4200002F070F9354C00200C21414309198A781B
:10E43000012A03D04A78012A03D014E07F1CFFB2DE
:10E4400011E0304A0D9B165C03AAD654CB780D9A86
:10E4500004A98B540D9A05A988540D99491CC9B279
:10E460006D1CEDB20D91401CC0B20328DCD3FD42FF
:10E470001DD00226032D1CD0002F06D0E188A088D5
:10E48000FEF7C6FC267200206072022D1ED0012D00
:10E490000DD16846017C007BFDF74CFA6846007D93
:10E4A0000C2250430121001901720021417215B064
:10E4B000F0BDFDF743FA267200216172012020753C
:10E4C00061750E49203108704870F0E76846437C5A
:10E4D000027C417B007BFDF73FFA6846007D0C2201
:10E4E0005043012100190172002242726846407DAA
:10E4F0000C22504300190172D8E700005C2500206F
:10E500000075004038210200F8B5002402F0FAF846
:10E510000320114900250860104908200127C86020
:10E52000FFF7A6F80E4E204601F086FA0C20604355
:10E5300080194770641CC570E4B24581032CF2D386
:10E540000220307275720648377575752030077075
:10E550004770FDF7F3F9F8BD0C07005000050050B7
:10E560005C250020F8B50F460178144605460129C0
:10E5700002D16878002806D02088821C9A422DD8C3
:10E58000012902D006E00720F8BD69784118891CEE
:10E59000994223D8181A801E86B2684606802188C0
:10E5A000B81C081869467DDF0028EDD128780228BC
:10E5B00005D169460988B14201D809210AE008213C
:10E5C000012805D16878B04202D86A46108001E07F
:10E5D0006846068068460088FE2801D90C20F8BDF0
:10E5E0002288401CB8542088401C80B220803954B6
:10E5F00020886946401C208009884018208000201F
:10E60000F8BD000010B501788A074178920F4907DC
:10E61000C90E406811438207540E0C438103890FD1
:10E6200003D00321090408400443002000F020F82F
:10E6300003494868FF22120210402043486010BD81
:10E640000075004010B500F013F8064A0121116072
:10E65000054800230468002CFCD003600348806850
:10E66000516010BD00700040007100400075004016
:10E6700010B5064902024B68FF242402A3431A4343
:10E680004A60002800D00120086010BD00750040DD
:10E69000C20843075B0F0120895C9840084070471F
:10E6A0000121890740180068002800D00120704728
:10E6B0007D21C90048430FD00849094A096800BFB5
:10E6C00000BF00BF00BF00BF00BF00BF00BF91423E
:10E6D00000D000BF0138F2D1704700005021002067
:10E6E0000024F4007D21C90048430FD00849094A9D
:10E6F000096800BF00BF00BF00BF00BF00BF00BF70
:10E7000000BF914200D000BF0138F2D17047000035
:10E71000502100200024F4007D21C90048430FD07F
:10E720000849094A096800BF00BF00BF00BF00BF19
:10E7300000BF00BF00BF914200D000BF0138F2D13E
:10E7400070470000502100200024F4007D21C90002
:10E7500048430FD00849094A096800BF00BF00BFFD
:10E7600000BF00BF00BF00BF00BF914200D000BF8C
:10E770000138F2D170470000502100200024F4003D
:10E780007D21C90048430FD00849094A096800BFE4
:10E7900000BF00BF00BF00BF00BF00BF00BF91426D
:10E7A00000D000BF0138F2D1704700005021002096
:10E7B0000024F4007D21C90048430FD00849094ACC
:10E7C000096800BF00BF00BF00BF00BF00BF00BF9F
:10E7D00000BF914200D000BF0138F2D17047000065
:10E7E000502100200024F4007D21C90048430FD0AF
:10E7F0000849094A096800BF00BF00BF00BF00BF49
:10E8000000BF00BF00BF914200D000BF0138F2D16D
:10E8100070470000502100200024F40000280FD091
:10E820000849094A096800BF00BF00BF00BF00BF18
:10E8300000BF00BF00BF914200D000BF0138F2D13D
:10E8400070470000502100200024F40000280FD061
:10E850000849094A096800BF00BF00BF00BF00BFE8
:10E8600000BF00BF00BF914200D000BF0138F2D10D
:10E8700070470000502100200024F40000280FD031
:10E880000849094A096800BF00BF00BF00BF00BFB8
:10E8900000BF00BF00BF914200D000BF0138F2D1DD
:10E8A00070470000502100200024F40010B5002023
:10E8B00005490122054C802348602360044B9A607F
:10E8C000044B1A60887410BD3034002080E100E0F1
:10E8D000007300400470004070B50E4C0025207895
:10E8E000002801D0852513E00021A160616021612D
:10E8F000E160094800680126304002D1032100F0A0
:10E900002FF802F035FB002801D1044886612670FB
:10E91000284670BD9433002000E100E0000500406F
:10E9200038B50020694608706846FDF7A3FE084C1C
:10E930002078002801D1FFF7CFFFE068401CE0609D
:10E940000120A07068460078FDF7B2FE38BD0000D7
:10E950009433002010B5002801D1FEF721FE10BD30
:10E960008207D30EFF229A408907090E10B59940FD
:10E9700000280BDA03071B0F083B9C080C4BA40074
:10E98000E318DC6994430C43DC6107E08408094B1D
:10E99000A400E418236893430B432360C106C90E07
:10E9A00001208840044908600449086010BD000047
:10E9B00000ED00E000E400E080E200E000E100E0C3
:10E9C00070B5144D2879002801D0082070BD114978
:10E9D00000204039421E0B182033401CC0B21A7070
:10E9E0002028F8D300242046FEF7C6FB641CE4B2BE
:10E9F000082CF8D303210620FFF7B2FFFF207D305B
:10EA000000F00AFF01200449C00748600120287176
:10EA1000002070BD8434002000630040024800796B
:10EA2000002800D00120704784340020FEB5044641
:10EA300020480D460019002620308157491C01D07E
:10EA4000082633E0A97800291DD0012200212046A4
:10EA5000FEF7A0FB411C14D0830017482A78181831
:10EA600069780369154F3B4003610369E706FF0CB2
:10EA70009207920BC907C90A3B430A431343036138
:10EA800004E0042612E00121C94301706A780120E4
:10EA9000A0400B49012A0BD0C860002100910B4611
:10EAA000012201912046114600F018FE3046FEBDBD
:10EAB0008860F2E74434002000650040FFE0ECFF8E
:10EAC0000005005010B5FEF789FB80060149000ED5
:10EAD000401810BD00600040054909182020085664
:10EAE000810004480818016989088900016170479C
:10EAF00044340020006500400949091820200856C8
:10EB00008100084809180869032210431F221202D5
:10EB100002430A6100BF00BF00BF086170470000E8
:10EB20004434002000650040002900D00121074A3C
:10EB3000121820201056820005481218106901236F
:10EB40001B059843090508431061704744340020B1
:10EB50000065004010B5044600F07AFF00280DD093
:10EB60002046FEF73BFBC0B2FEF706FB2046FEF751
:10EB700035FB074A0021800080180161054800210B
:10EB80000019C94320300170204600F0BBFD10BDC4
:10EB90000065004044340020F1B50427164E82B0D1
:10EBA00000240020694608706846FDF763FD0125D2
:10EBB000A540354204D02046FFF7BAF900280CD012
:10EBC00068460078FDF774FD002F04D0641CAE4346
:10EBD000E4B2002EE5D13846FEBD084901204A685E
:10EBE000A0401043486002980027047068460078EF
:10EBF000FDF75EFDEFE70000FF3F0000EC20002086
:10EC0000F8B514460D00074612D0002C10D000268F
:10EC1000FFF7E6F900280DD03846FFF789F90028FC
:10EC20000AD00648F9000818056144613046F8BD6D
:10EC30000E20F8BD0726F9E70826F7E700F50140A2
:10EC400070B505460024FFF78BF900280FD0284641
:10EC5000FFF7C6F9002804D02846FFF769F9002815
:10EC600007D001200449A8408860204670BD0724D1
:10EC7000FBE70824F9E7000000F5014070B5054600
:10EC80000024FFF76DF900280FD02846FFF7A8F9F8
:10EC9000002804D02846FFF74BF9002807D00120B0
:10ECA0000449A8404860204670BD0724FBE70824BB
:10ECB000F9E7000000F50140F8B504460026FFF72B
:10ECC0008FF9002812D001250948A5408560002150
:10ECD00068460170FDF7CEFC06484168A9434160D3
:10ECE00068460078FDF7E4FC3046F8BD0726FBE7F0
:10ECF00000F50140EC200020F8B506460D46002442
:10ED00000846FFF734F900281CD02846FFF71CF905
:10ED1000002815D03046FDF723FD002812D0002131
:10ED200068460170FDF7A6FC0748A90008180168AD
:10ED30003143016068460078FDF7BAFC2046F8BD13
:10ED40000824FBE70724F9E700F80140F8B5064678
:10ED50000D4600240846FFF70AF900281CD0284673
:10ED6000FFF7F2F8002815D03046FDF7F9FC00282F
:10ED700012D0002168460170FDF77CFC0748A9000D
:10ED800008180168B143016068460078FDF790FCFF
:10ED90002046F8BD0824FBE70724F9E700F8014006
:10EDA000F1B50427032682B00024002069460870CC
:10EDB0006846FDF75FFC0125A540354204D020469A
:10EDC000FFF7C2F800280CD068460078FDF770FC09
:10EDD000002F04D0641CAE43E4B2002EE5D13846C7
:10EDE000FEBD074901204A78A040104348700298B0
:10EDF0000027047068460078FDF75AFCEFE7000032
:10EE0000EC20002070B505460024FFF7B0F800287C
:10EE10000BD02846FFF798F8002808D0054A0120B3
:10EE2000E90089180860204670BD0724FBE7082424
:10EE3000F9E7000000F00140F8B504460025FFF7AF
:10EE400096F8002800D107252046FFF77DF8002816
:10EE500014D00B490126E0004018466000216846A6
:10EE60000170FDF707FC0748A6404178B1434170A7
:10EE700068460078FDF71CFC2846F8BD0825FBE72E
:10EE800000F00140EC20002004480178002901D066
:10EE9000852070470121017000207047EC20002080
:10EEA000FEB5074640790C4641013F480E18307EBA
:10EEB000002801D00820FEBD3260207B01250128FA
:10EEC00005D82178284688403849C86002E0207873
:10EED00000F07EFC2178364A0120890089180860FC
:10EEE0006578FF2D06D03149A840C860284600F05B
:10EEF00043FC01E00025ED43A078FF2808D0002363
:10EF000000931A4619460193029000F0D3FB02E0E9
:10EF10000020C0430290E078FF2804D000F058FCA5
:10EF2000E07800F029FC7879E17842011E48101859
:10EF3000817639680520000223780818029A8360D8
:10EF4000C5600261A2684262627B237B002A00D016
:10EF50000122012B04D0022B04D0032B06D103E0A5
:10EF6000022302E0042300E006231A4342657A7973
:10EF7000637955010C4AAA18D3763268002A04D066
:10EF8000032304221B02C9184A600125056030686A
:10EF9000002804D0042021793856FFF7E1FC002036
:10EFA00070763576FEBD0000C433002000050050A9
:10EFB000000700501FB50091069C029369460A7134
:10EFC0000C73002200F002F804B010BDF8B50D4635
:10EFD0004179184B4901C918002300934B7E002B3F
:10EFE00001D01120F8BD0B68002B04D014231A4265
:10EFF00001D101234B76D8CD0831D8C14B79FD24FE
:10F000005B085B0023404B718C781839103DFF2C56
:10F0100003D00123A340084CE360002A04D0002061
:10F02000487606200090F8BD00682A4601F0B6FF39
:10F030000098F8BDC4330020000500501522006878
:10F040008900920189184058704702688800403052
:10F05000C0B21018704700680121C160704770B5D8
:10F06000012424048C40032605683602AD19002BC8
:10F0700001D06C6000E0AC600068890008180521D0
:10F0800009024018026470BD02688800FF304130F8
:10F0900080B21018704702680120000488400321E4
:10F0A00009025118886070478A0010B5FF3241325A
:10F0B000036892B200249C5002680120000488403A
:10F0C000032109025118486010BD000002680121A7
:10F0D000116100790C225043014A80180172704777
:10F0E000E4330020016801220A6000790C225043B9
:10F0F000024A02218018017270470000E4330020A8
:10F10000F0B5FF25023504688D40FF34FF3402342A
:10F11000059E2768AF4327600468FF34FF3402343C
:10F1200025681D4325603346FFF799FFF0BD0000B9
:10F1300070B504460D4600790C2148432249461813
:10F14000307A002801D0082070BD002A05D0326036
:10F15000686870600020034608E0072070BD8100E9
:10F16000FF31226841315350401CC0B26179814265
:10F17000F5D82068E978000B40B2FFF7F1FB0520D5
:10F180002168000209186A784B68D2075B085B00A7
:10F19000D20F13434B602168AA7809188B68920735
:10F1A0009B089B00920F13438B60226829781018EC
:10F1B0000269090712091201090F0A4302610120BD
:10F1C0003072002070BD0000E433002030B50346EB
:10F1D0000068C103C90E0120884010490860196801
:10F1E0000020FF31C043FF3102310A6800240C6067
:10F1F0000322196812028918886018790C21084DB9
:10F2000048434019007A022802D11846FFF75EFFF2
:10F2100018790C2148434019047230BD80E100E0A8
:10F22000E43300200179282251430B4A03238A1832
:10F2300001680020C0431B02CB189860C81DFF3036
:10F24000FA300368002303600520000208180360F9
:10F250000120203290707047083400200179282264
:10F260005143054A0068891805221302C01802603C
:10F27000022020318870704708340020F8B5074616
:10F280000C460079282148431B4945182E46203654
:10F29000B078002801D00820F8BD0CC500202860F7
:10F2A00070713071A07BF071607B083D002802D046
:10F2B000204602F087F8216810488A001049521849
:10F2C00010606268920051180860052338681B02BC
:10F2D00006CCC0188160C260216841622868083C81
:10F2E000002805D03868217B000B40B2FFF738FBBF
:10F2F0000120B0700020F8BD083400200C0600008A
:10F30000000700503EB5074D2C68AD68009402958B
:10F310006C466170A37001920022694600F04AF8C1
:10F320003EBD0000082C02003EB50025069C00955D
:10F3300002956D466970AB700192002C01D02022BD
:10F3400000E00022294600F035F83EBD30B5054604
:10F35000007928214843134944182068002806D022
:10F360002868C103C90E012088400F49086028465B
:10F37000FFF758FF2034E07900280FD105202A68D4
:10F3800000021218094992689300094A9B181960F3
:10F390002B681818C0688000801801600020A070D9
:10F3A00030BD00000834002080E100E002030000CE
:10F3B0000007005070B50D46017928235943064BCC
:10F3C000CC18910701D0062070BD134601682A466B
:10F3D000204602F0B1F970BD08340020F8B50646A9
:10F3E0000F4600791C2148431A4915464418E07E0F
:10F3F000002801D00820F8BD39463046FDF76EF9E7
:10F4000065603869206028460025002813D0FF2257
:10F410003068397F1D328550FF2230684532855073
:10F42000032330681B020C4AC01842603068000B8E
:10F4300040B2FFF795FA05223068042112028018C5
:10F440000160E5752576A5750121E1762846A5764A
:10F45000F8BD0000A833002080000200F8B5037951
:10F460001C246343134C81251C1903276668002361
:10F47000AD003F02002E02D00668F619B560E67DA9
:10F48000002E0ED0237E002B07D06168002902D009
:10F490000068C01945601120F8BD21610123227662
:10F4A00004E0E2750025E1606576257600F01AF843
:10F4B000F8BD0000A833002070B5044600791C2177
:10F4C000074D48434019807E002808D1204601F0AE
:10F4D000F3F920791C22012150434019817670BD37
:10F4E000A8330020F8B5044600791C21484326497A
:10F4F0004518A87E184302D1204601F0DDF968685E
:10F50000002808D081210322206889001202801877
:10F5100041600020F8BDFF204530216800220A50DC
:10F52000FF212531206800F08EF90646FF210931C0
:10F53000206800F088F90090FF214531206800F034
:10F5400082F90746009838433043E9D030463843C3
:10F5500007D12946206801F043F9E87D697E884299
:10F56000DED80020E875002E01D00320F8BD002F62
:10F5700001D00F20F8BDA97E01200029216801D00B
:10F580000860C6E74860C4E7A833002070B50546A8
:10F590000C4600791C21484308494318284600F0CE
:10F5A00055F8002801D0112070BD9A7500209C608C
:10F5B0009882284600F004F870BD0000A8330020AF
:10F5C000F8B5044600791C2148431F490026451818
:10F5D000FF2720681D37C651206801218160294618
:10F5E000206802F0EFF86968002913D027E0FF27B0
:10F5F0000137FF211D31206800F025F9002802D1D4
:10F60000A88AB842F5D1A88AB84203D02946206812
:10F6100002F0D8F8A88AA97D8842E8D3A98AC81F31
:10F62000F9380ED0FF271D373946206800F00BF956
:10F630000028F9D020680121C1600020A87530465B
:10F64000F8BD0F26F9E70000A833002000791C213F
:10F65000484303494018807D002800D001207047AE
:10F66000A833002070B552000A439900049D0A4354
:10F670002902059E0A43310405240A432407800019
:10F680000721001909024018026070BD70B55200D0
:10F690000A439900049D0A432902059E0A43310446
:10F6A00005240A4324078000072100190902401895
:10F6B000026070BD70B552000A439900049D0A4370
:10F6C0002902059E0A43310405240A4324078000C9
:10F6D0000721001909024018026070BD70B5520080
:10F6E0000A439900049D0A432902059E0A433104F6
:10F6F00005240A4324078000072100190902401845
:10F70000026070BD1CB5002100910B4601220191E1
:10F71000FFF7E4FF1CBD05221207800080180722B6
:10F7200089001202801801607047052212078000CC
:10F7300080180722890012028018016070471CB5EA
:10F7400000220B46009211460192FFF79FFF1CBD5D
:10F750000522120780008018072203211202801858
:10F76000016070471CB5002100910B4601220191F8
:10F770001146FFF78BFF1CBD1CB5002100910B4605
:10F78000012201911146FFF795FF1CBD05221207CA
:10F7900080008218072000021018026803231B044F
:10F7A0009A430260026809040A430260704700003D
:10F7B000012181400148C1607047000000050050F0
:10F7C0000121814001488160704700000005005020
:10F7D0000121814001488160704700000005005010
:10F7E0000121814001488160704700000005005000
:10F7F00038B5084B05241B68009324026B4641185A
:10F8000005E085005D592D192D69401C20C28142FB
:10F81000F7D838BD142C02000249401800210160BD
:10F82000704700000060004003494018006801284C
:10F8300000D00020704700000060004040580028C1
:10F8400000D0012070474058002800D001207047A8
:10F850000322120280184068084000D0012070473F
:10F86000F0B50E480E4B02801E780E4D0024AA55AE
:10F87000F02E0ED2701CB61804E00F5D641C2F54DD
:10F88000E4B2401C8642F8D218788018401C1870E8
:10F89000F0BD0020187004490870F0BD86200020DB
:10F8A000F11F0020C4220020F21F0020704700003A
:10F8B000F0B50446018833480226012589B03A296B
:10F8C0003AD00EDC02293BD02F4F102913D011293A
:10F8D0001AD0132916D100231A46852140887FDFCC
:10F8E00027E0512930D052291ED055290AD1A088AD
:10F8F000132176DF1DE0A188418024483E70057009
:10F900002348057009B0F0BD0021C9434180FDF7CF
:10F9100057FA032038701F48002105701C480170F9
:10F92000F0E7FCF7CBFAEDE700231A4619464088CA
:10F93000A9DF0028F5D1E5E7A088132176DFF8E7F5
:10F94000A088002167DFF4E71022A11D6846FBF7BD
:10F9500023FC684601780029D4D0007A042803D01B
:10F96000062801D00528CDD10229684608D00574A3
:10F97000FF20833069468882A08804A9A8DFD8E7E1
:10F980000674F5E786200020F51F0020EB1F0020FD
:10F99000F01F0020EA1F00200078002803D1024851
:10F9A0003B21408876DF70478620002010B5134A3F
:10F9B00000215170017A012911D002290ED18189CB
:10F9C000491C8181C189491C89B2C181028A914245
:10F9D00004D1002101F048F800F0C0FA10BD838A7C
:10F9E000C28A991AFF2901DC89B201E0FF210131A5
:10F9F000511889B2C1829942EBD010BD302100204C
:10FA0000074A904201D1074803E0074A904202D1D9
:10FA10000648C1607047064A9042FBD10548F8E7A6
:10FA200000800040008C004000900040009C00409E
:10FA300000A0004000AC00400C225043034A0021CB
:10FA40008318597011549970704700005C2500208C
:10FA50000449081820214156042901D20120704789
:10FA6000002070474434002070B50646094C002041
:10FA7000207064204843FF21FBF748FB05462A46D7
:10FA800031460548FCF788FA1128F8D0207800287C
:10FA9000FCD070BD6C20002094230200014901209D
:10FAA000087070476C20002073B506460A4C002091
:10FAB00020706846007964214843FF21FBF726FB4C
:10FAC00005462A4631460548FCF766FA1128F8D063
:10FAD00020780028FCD07CBD3320002000210200CB
:10FAE00001490120087070473320002010B50068DC
:10FAF0000C2251430C18207AFFF7A2F8607AFFF726
:10FB00009FF810BDF1B582B002980024056828194D
:10FB100020300078FF2801D0FFF7CEF8641CE4B253
:10FB2000022CF4D32220405DFF2801D0FFF784F996
:10FB3000002420460C214843002647190090B8199C
:10FB40000190007AFF2804D0FFF7B6F80199FF2052
:10FB50000872761CF6B2022EF1D300982858411C88
:10FB600005D0FEF7F7FF00210098C9432950002077
:10FB7000641CE4B2F872022CDBD302984068FFF7F1
:10FB800025FBFEBD10B5046820342078FFF758F837
:10FB90006078FFF755F810BDF8B50D4612480127FB
:10FBA000002449000E18305D002806D0305D401E4C
:10FBB0003055305D00280ED00027641CE4B2022CC2
:10FBC000F1D3002F06D00948A9004058022140680F
:10FBD000FFF761FAF8BD0548A90040580068C169FF
:10FBE00028468847E9E7000035210020203500201D
:10FBF000FEB50C4601680546009120460C2148439D
:10FC000000990190471816462846FFF7BBFF21468A
:10FC10002846FFF76BFF01980A30002E09D00099A3
:10FC20008969B1420FD88EB22968085C002804D0D7
:10FC300005E02968085C002801D0002100E00121CE
:10FC40003868FEF771FF0023324621466868FFF7E7
:10FC500006FA7E606968024A0979FF205054FEBDA9
:10FC600032210020F7B582B00446056803980C21C4
:10FC7000484347192035AE78039800902046FFF797
:10FC800081FF20460399FFF731FF00236068049A43
:10FC90000099FFF7E4F931463348FFF757F8397A0E
:10FCA000012002468A40797A884010433146FFF7A6
:10FCB00023F879682D48002933D0F1000E1802216D
:10FCC0006068FFF7E1F9014628783246FEF798FFB1
:10FCD0000023012203216068FFF7C1F96068002159
:10FCE000007982002248815003216068FFF7ADF956
:10FCF000064602216068FFF7C7F901466878324678
:10FD0000FEF77EFF2878FEF7B9FF6878FEF7B6FFAA
:10FD1000049878606168174A09790320505405B047
:10FD2000F0BDF1000E1860680399FFF7ADF90146C8
:10FD300028783246FEF764FF00231A4603216068E4
:10FD4000FFF78DF960680399FFF778F96168097921
:10FD50008A000749885003216068FFF776F9064654
:10FD600060680399C7E70000FF3F000000F0014012
:10FD70001435002032210020F7B5076882B0044610
:10FD800003980C214843C2193D4620350092AE78B5
:10FD90002046FFF7F7FE31463648FEF7D7FF009AB8
:10FDA0000121127A08469040009A527A9140084305
:10FDB0003146FEF7A1FF04992F48002937D0398B2F
:10FDC00089B20491F1000E1802216068FFF75CF916
:10FDD000014628783246FEF713FF00230122032153
:10FDE0006068FFF73CF960680021007982002348D1
:10FDF000815003216068FFF728F9064602216068F8
:10FE0000FFF742F9014668783246FEF7F9FE287896
:10FE1000FEF734FF6878FEF731FF009904984860D8
:10FE20006168174A09790320505405B0F0BDF1000C
:10FE30000E1860680399FFF727F9014628783246C3
:10FE4000FEF7DEFE00231A4603216068FFF707F97C
:10FE500060680399FFF7F2F8616809798A00074939
:10FE6000885003216068FFF7F0F806466068039940
:10FE7000C6E70000FF3F000004F0014014350020F9
:10FE800032210020F7B582B00546046803980C21A2
:10FE9000484307192034A6782846FFF773FE3146F9
:10FEA0002B48FEF753FF22780121084690406278E4
:10FEB000914008433146FEF71FFF68680399FFF73A
:10FEC000C4F8009003216868FFF7DEF80146207847
:10FED000009AFEF795FE686805210068090240183F
:10FEE00000690006000E13D00021049808187968F4
:10FEF00088420FD23868FEF7E5FD0090032168685C
:10FF0000FFF7C2F801466078009AFEF779FE07E035
:10FF10000121EAE76278012031469040FEF716FFA2
:10FF200004987860002368680321049AFFF797F823
:10FF30003046FEF767FF6968064A09790498890028
:10FF400050506968044A09790398505405B0F0BDCF
:10FF5000FF3F000014350020322100200848416E88
:10FF6000491E416604D10749FD230A781A400A70E8
:10FF7000016E491C0166042901D100210166704708
:10FF8000AC3400203021002070B50C490446486E86
:10FF9000042810D00A6E1218042A00D3121F401C25
:10FFA000486618204243551801462846FBF70DF9CC
:10FFB0000120256070BD002070BD0000AC34002021
:10FFC00010B518481822016E51430C18406E0028D5
:10FFD0001FD0207A012802D0022816D10FE0A18A72
:10FFE000E08A091AFF2901DC8AB201E0FF2201320E
:10FFF000E168800023690918181829DF01E0A08949
:020000040002F8
:1000000028DF112806D0002803D00921204600F05F
:100010002BFD10BD0449FD22087810400422104336
:10002000087010BDAC3400203021002010B5054808
:1000300001784A07920F04D1022211430170FFF7A1
:10004000BFFF10BD3021002010B50449042001F08D
:10005000A1F900F0F9F80248C07810BD7E20002018
:100060009C2200200CB500216846017001711149E5
:1000700008698003C20F6846027000780201684672
:10008000027008694001C10F6846017100794101A1
:1000900068460171084ACF20D178014007480078AE
:1000A0000143684600780143684600790143D170F6
:1000B0000CBD0000000500506C2200200020002034
:1000C00000B5074B01221046FDF724FD5100C91869
:1000D0004039521CD2B2C887042AF4D3004800BD6C
:1000E0004020002010B509480078012806D00228D9
:1000F00008D100F08BF900F011F903E000F03CF9B1
:1001000000F0C0F801F03CFF10BD0000012000200D
:1001100010B53220FEF7CCFA0749042001F03AF975
:100120000A20FEF7C5FA00F08FF804480249C078AB
:10013000891E087010BD0000102000209C220020A5
:1001400030B50F4B104A187801070E480FD5012122
:100150005C5C4518491CC9B2EC700629F8D9042129
:10016000435C5354491CC9B20929F9D930BD042153
:10017000535C4354491CC9B20929F9D930BD000068
:10018000072000206C2200207C2A002010B5FDF7FB
:100190002FFB054A05490120135C0C18401CC0B216
:1001A000E3700628F8D910BD072000206C2200203B
:1001B00010B5144B00201978144A0C0712491AD5AF
:1001C0004400E41864780C54401CC0B20328F7D3F0
:1001D0000C48AA23401E00781840012801D90123A9
:1001E00000E00023CB7000200B5C1354401CC0B215
:1001F0000328F9D910BD135C0B54401CC0B203286E
:10020000F9D910BD922000206C2200208F2A0020F6
:1002100000B50022FDF7E4FA09490A4853005B18CB
:100220005B788354521CD2B2032AF7D304490A22C2
:10023000491E0978114000D00121C17000BD0000A5
:10024000922000206C220020044A05490020135C03
:100250000B54401C0428FADB704700009427002050
:100260009C2200200549064A04200B18203B1B7FD6
:100270001354401C0E28F8DB704700006C2200204D
:100280009C2200207CB50024204D01942C70012676
:10029000334601AA0E211E480096FFF745F80028B4
:1002A00001D0FBF70BFE28780028FCD02C70072328
:1002B000184A0E211648FFF725F8002801D0FBF751
:1002C000FDFD28780028FCD00F20694608712C70AD
:1002D000012301AA0E210E480096FFF725F80028F9
:1002E00001D0FBF7EBFD28780028FCD02C7001230F
:1002F000094A0E210648FFF705F8002801D0FBF750
:10030000DDFD28780028FCD07CBD00000220002004
:10031000F81F0020072000208A2000207CB512A0B2
:100320000068124C002501902570012003460090C2
:1003300001AA1E210E48FEF7F7FF002801D0FBF7A7
:10034000BDFD20780028FCD025700723094A1E2116
:100350000748FEF7D7FF002801D0FBF7AFFD207854
:100360000028FCD07CBD00006700000002200020B7
:10037000F81F0020072000207CB50024204D0194A8
:100380002C700126334601AA1D211E480096FEF757
:10039000CBFF002801D0FBF791FD28780028FCD086
:1003A0002C700723184A1D211648FEF7ABFF0028C2
:1003B00001D0FBF783FD28780028FCD01620694681
:1003C00008712C70012301AA1D210E480096FEF72A
:1003D000ABFF002801D0FBF771FD28780028FCD086
:1003E0002C70094A0123521E1D210648FEF78AFF80
:1003F000002801D0FBF762FD28780028FCD07CBDE6
:1004000002200020F81F0020922000207CB522A0AE
:100410000068224C0025019025700126334601AA70
:1004200019211F480096FEF77FFF002801D0FBF737
:1004300045FD20780028FCD025700723194A192192
:100440001748FEF75FFF002801D0FBF737FD207843
:100450000028FCD03120694608712570012301AACB
:1004600019210F480096FEF75FFF002801D0FBF727
:1004700025FD20780028FCD025700A4A0123521E51
:1004800019210748FEF73EFF002801D0FBF716FDB3
:1004900020780028FCD07CBDA800000002200020AD
:1004A000F81F002092200020F8B50020694608704F
:1004B00008700F4C0F4D104EFF270CE008780C21F0
:1004C0004843285C01280AD06846007827546946CA
:1004D0000878401C087008780328EFD3F8BD6946F7
:1004E0000878305CFEF7AEF8694609786054EEE7AC
:1004F0009C2200205C2500203B2102007CB513A03B
:100500000068134C002501902570012003460090DF
:1005100001AA0E210F48FEF707FF002801D0FBF7C4
:10052000CDFC20780028FCD0257006230A4A0E2135
:100530000848FEF7E7FE002801D0FBF7BFFC207853
:100540000028FCD00520FEF735F97CBD090000002D
:1005500002200020F81F00208B2000207CB513A073
:100560000068134C0025019025700120034600907F
:1005700001AA1E210F48FEF7D7FE002801D0FBF785
:100580009DFC20780028FCD0257006230A4A1E21F5
:100590000848FEF7B7FE002801D0FBF78FFC207853
:1005A0000028FCD00520FEF705F97CBD45000000C1
:1005B00002200020F81F00208B200020F0B53CA076
:1005C00085B0006802903BA0002600683A4903907D
:1005D000354601270E703B4602AA0E213748009788
:1005E000FEF7A2FE002801D0FBF768FC324C207811
:1005F000002802D0012F0ED01CE06D1CEDB2032D9F
:1006000005D900F08BF8002501202F462070052029
:10061000FEF782F8EBE700202070012301AA0E21EB
:100620002648FEF76FFE002801D0FBF747FC207834
:100630000028FCD06846007900250127C4280ED088
:100640000020207001200346009003AA1E211B48B1
:10065000FEF76AFE00280FD0FBF730FC0CE0012605
:1006600023E00520FEF758F86D1CEDB2032D03D9E9
:1006700000F054F800252F4620780028F1D0002FF4
:100680000ED000202070012301AA1E210B48FEF786
:1006900039FE002801D0FBF711FC20780028FCD09F
:1006A00068460079402800D10226304605B0F0BDEA
:1006B000070000004F00000002200020F81F00206B
:1006C00030B50022064D074B07E01C782C5D8454A2
:1006D0001C78641C1C70521CD2B28A42F5D330BD07
:1006E000C3230020F31F00200349002008700349A2
:1006F000087003490870704778200020F41F00201C
:10070000F31F002010B5044900200870FBF70CFC13
:10071000FBF714FC10BD0000F71F00201FB50C4BA9
:100720006C460FCB0FC40B48FEF77CFD0948FEF763
:100730000DFE0023084A69460648FEF79FFD002883
:1007400001D0FBF7BBFB0348FEF788FD1FBD00008F
:10075000E8230200F81F00205D14020070B5012498
:100760000B49600408600B49401088600949403912
:100770008860094D6C602F20FEF780F8AC60074D53
:1007800000242F20AC60FEF779F8AC7070BD00003B
:1007900080E100E04013014000100140F4200020FF
:1007A000F0B50D4C0D4B2546197899355A78002037
:1007B0002F469B789937265CB14207D12E5CB24216
:1007C00004D13E5CB34201D10120F0BD401C992808
:1007D000F1D30020F0BD0000282A020003200020F1
:1007E00030B5FF220523CD7D002409321B02C3183A
:1007F000002D8450986905D04B7ECA68D054487E3D
:10080000401C487630BD70B500240546601C90B091
:100810000007000F08A9103008940870601C00073A
:10082000000F103048708878F9263040801C88709E
:100830001C2101A8FAF7C9FC694608791021084370
:1008400069460871029408A80494059407940690D8
:10085000287808A9887103206946888411200094AB
:10086000087048708878F7213040801C0840EF21DC
:100870000840012630436946887014210AA8FAF717
:10088000A4FC09A80A9068460B9069460E861420BD
:100890004C8688862B4668880C330AAA01A9A2DFF9
:1008A00010B070BD1FB501246B461C701972019207
:1008B00006C8684690471FBDFF2325330268002104
:1008C000D150FF2302680933D15000680121016033
:1008D0007047000010B50446FBF778F900280CD0EB
:1008E000A007C00E002C0ADA2107090F0839890871
:1008F000144A89008918C96906E0134810BDA10887
:10090000124A890089180968C1400806800F042826
:1009100011D200280FD002280DD00D494B68E206F5
:10092000D20E01209040002B08D0620992008B5813
:1009300003438B5004E00448401C10BD0549086087
:10094000002010BD00ED00E00120000000E400E008
:100950002821002000E100E038B50024FCF7A6FFC4
:100960000546FFF771FBFF2800D0012405A10968A7
:10097000009169460D708870CC700421684600F0C3
:1009800003F838BD0001000070B50D46064600248E
:1009900004E0305DFBF74EFE641CE4B2AC42F8D3D9
:1009A00070BD000038B5094C0022227000920B4641
:1009B00002461D210648FEF7B7FC002801D0FBF7D0
:1009C0007DFA20780028FCD038BD000002200020ED
:1009D000F81F002038B500236A461370084C2370B6
:1009E000117000930B46024619210648FEF79CFC45
:1009F000002801D0FBF762FA20780028FCD038BD2F
:100A000002200020F81F002038B5094C0022227077
:100A100000920B4602460E210648FEF785FC002890
:100A200001D0FBF74BFA20780028FCD038BD00003D
:100A300002200020F81F002038B5094C0022227047
:100A400000920B4602461E210648FEF76DFC002868
:100A500001D0FBF733FA20780028FCD038BD000025
:100A600002200020F81F00201FB5002200920192F2
:100A700002920392037A012B02D0022B11D106E0DD
:100A80006B461A7002690292828A9A8109E00123F8
:100A90006A4613708289C389D31A6A46138183898F
:100AA00053814268019200688268684690471FBD82
:100AB000FFB50746806A81B0144600283DD0002566
:100AC00038462030009033E00C20B96A68430E1895
